{
  "_format": "hh-sol-artifact-1",
  "contractName": "MerchantContract",
  "sourceName": "contracts/merchantContract.sol",
  "abi": [
    {
      "inputs": [
        {
          "internalType": "address payable",
          "name": "MerchantAddress",
          "type": "address"
        },
        {
          "internalType": "string",
          "name": "MerchantName",
          "type": "string"
        },
        {
          "internalType": "address",
          "name": "MainContractAddress",
          "type": "address"
        }
      ],
      "stateMutability": "nonpayable",
      "type": "constructor"
    },
    {
      "anonymous": false,
      "inputs": [
        {
          "indexed": true,
          "internalType": "address",
          "name": "previousOwner",
          "type": "address"
        },
        {
          "indexed": true,
          "internalType": "address",
          "name": "newOwner",
          "type": "address"
        }
      ],
      "name": "OwnershipTransferred",
      "type": "event"
    },
    {
      "inputs": [],
      "name": "approveMerchant",
      "outputs": [],
      "stateMutability": "nonpayable",
      "type": "function"
    },
    {
      "inputs": [],
      "name": "approved",
      "outputs": [
        {
          "internalType": "bool",
          "name": "",
          "type": "bool"
        }
      ],
      "stateMutability": "view",
      "type": "function"
    },
    {
      "inputs": [
        {
          "internalType": "uint256",
          "name": "idPurchase",
          "type": "uint256"
        }
      ],
      "name": "buy",
      "outputs": [],
      "stateMutability": "payable",
      "type": "function"
    },
    {
      "inputs": [
        {
          "internalType": "address payable",
          "name": "NewAddress",
          "type": "address"
        }
      ],
      "name": "changeMyAddress",
      "outputs": [],
      "stateMutability": "nonpayable",
      "type": "function"
    },
    {
      "inputs": [],
      "name": "checkMyAddress",
      "outputs": [
        {
          "internalType": "address",
          "name": "",
          "type": "address"
        }
      ],
      "stateMutability": "view",
      "type": "function"
    },
    {
      "inputs": [],
      "name": "checkMyBalance",
      "outputs": [
        {
          "internalType": "uint256",
          "name": "",
          "type": "uint256"
        }
      ],
      "stateMutability": "view",
      "type": "function"
    },
    {
      "inputs": [],
      "name": "checkMyEscrowAmount",
      "outputs": [
        {
          "internalType": "uint256",
          "name": "",
          "type": "uint256"
        }
      ],
      "stateMutability": "view",
      "type": "function"
    },
    {
      "inputs": [],
      "name": "checkMyName",
      "outputs": [
        {
          "internalType": "string",
          "name": "",
          "type": "string"
        }
      ],
      "stateMutability": "view",
      "type": "function"
    },
    {
      "inputs": [
        {
          "internalType": "uint256",
          "name": "idPurchase",
          "type": "uint256"
        }
      ],
      "name": "complete",
      "outputs": [],
      "stateMutability": "nonpayable",
      "type": "function"
    },
    {
      "inputs": [
        {
          "internalType": "uint256",
          "name": "idPurchase",
          "type": "uint256"
        },
        {
          "internalType": "uint256",
          "name": "purchaseAmount",
          "type": "uint256"
        },
        {
          "internalType": "uint256",
          "name": "escrowTime",
          "type": "uint256"
        }
      ],
      "name": "createPurchase",
      "outputs": [],
      "stateMutability": "nonpayable",
      "type": "function"
    },
    {
      "inputs": [],
      "name": "disapproveMerchant",
      "outputs": [],
      "stateMutability": "nonpayable",
      "type": "function"
    },
    {
      "inputs": [],
      "name": "getOwnerAddress",
      "outputs": [
        {
          "internalType": "address",
          "name": "",
          "type": "address"
        }
      ],
      "stateMutability": "view",
      "type": "function"
    },
    {
      "inputs": [
        {
          "internalType": "uint256",
          "name": "idPurchase",
          "type": "uint256"
        }
      ],
      "name": "getPurchaseStatus",
      "outputs": [
        {
          "internalType": "uint256",
          "name": "",
          "type": "uint256"
        }
      ],
      "stateMutability": "view",
      "type": "function"
    },
    {
      "inputs": [],
      "name": "mainContract",
      "outputs": [
        {
          "internalType": "contract MainContract",
          "name": "",
          "type": "address"
        }
      ],
      "stateMutability": "view",
      "type": "function"
    },
    {
      "inputs": [],
      "name": "name",
      "outputs": [
        {
          "internalType": "string",
          "name": "",
          "type": "string"
        }
      ],
      "stateMutability": "view",
      "type": "function"
    },
    {
      "inputs": [],
      "name": "owner",
      "outputs": [
        {
          "internalType": "address",
          "name": "",
          "type": "address"
        }
      ],
      "stateMutability": "view",
      "type": "function"
    },
    {
      "inputs": [],
      "name": "pauseWithdrawals",
      "outputs": [],
      "stateMutability": "nonpayable",
      "type": "function"
    },
    {
      "inputs": [],
      "name": "paused",
      "outputs": [
        {
          "internalType": "bool",
          "name": "",
          "type": "bool"
        }
      ],
      "stateMutability": "view",
      "type": "function"
    },
    {
      "inputs": [
        {
          "internalType": "uint256",
          "name": "",
          "type": "uint256"
        }
      ],
      "name": "purchases",
      "outputs": [
        {
          "internalType": "uint256",
          "name": "dateF",
          "type": "uint256"
        },
        {
          "internalType": "uint256",
          "name": "amount",
          "type": "uint256"
        },
        {
          "internalType": "uint256",
          "name": "status",
          "type": "uint256"
        },
        {
          "internalType": "uint256",
          "name": "escrow_amount",
          "type": "uint256"
        },
        {
          "internalType": "uint256",
          "name": "escrow_time",
          "type": "uint256"
        }
      ],
      "stateMutability": "view",
      "type": "function"
    },
    {
      "inputs": [
        {
          "internalType": "uint256",
          "name": "idPurchase",
          "type": "uint256"
        },
        {
          "internalType": "address payable",
          "name": "BuyerAddress",
          "type": "address"
        },
        {
          "internalType": "uint256",
          "name": "refundAmount",
          "type": "uint256"
        }
      ],
      "name": "refund",
      "outputs": [],
      "stateMutability": "nonpayable",
      "type": "function"
    },
    {
      "inputs": [],
      "name": "renounceOwnership",
      "outputs": [],
      "stateMutability": "nonpayable",
      "type": "function"
    },
    {
      "inputs": [],
      "name": "topUpMyContract",
      "outputs": [],
      "stateMutability": "payable",
      "type": "function"
    },
    {
      "inputs": [
        {
          "internalType": "address",
          "name": "newOwner",
          "type": "address"
        }
      ],
      "name": "transferOwnership",
      "outputs": [],
      "stateMutability": "nonpayable",
      "type": "function"
    },
    {
      "inputs": [],
      "name": "unpauseWithdrawals",
      "outputs": [],
      "stateMutability": "nonpayable",
      "type": "function"
    },
    {
      "inputs": [],
      "name": "withdrawal",
      "outputs": [],
      "stateMutability": "nonpayable",
      "type": "function"
    }
  ],
  "bytecode": "0x60806040523480156200001157600080fd5b506040516200358938038062003589833981810160405281019062000037919062000503565b620000576200004b6200014060201b60201c565b6200014860201b60201c565b82600260006101000a81548173ffffffffffffffffffffffffffffffffffffffff021916908373ffffffffffffffffffffffffffffffffffffffff1602179055508160039080519060200190620000b09291906200020c565b5080600160006101000a81548173ffffffffffffffffffffffffffffffffffffffff021916908373ffffffffffffffffffffffffffffffffffffffff160217905550600060048190555060006005819055506000600160146101000a81548160ff02191690831515021790555060018060156101000a81548160ff021916908315150217905550505050620005e3565b600033905090565b60008060009054906101000a900473ffffffffffffffffffffffffffffffffffffffff169050816000806101000a81548173ffffffffffffffffffffffffffffffffffffffff021916908373ffffffffffffffffffffffffffffffffffffffff1602179055508173ffffffffffffffffffffffffffffffffffffffff168173ffffffffffffffffffffffffffffffffffffffff167f8be0079c531659141344cd1fd0a4f28419497f9722a3daafe3b4186f6b6457e060405160405180910390a35050565b8280546200021a90620005ad565b90600052602060002090601f0160209004810192826200023e57600085556200028a565b82601f106200025957805160ff19168380011785556200028a565b828001600101855582156200028a579182015b82811115620002895782518255916020019190600101906200026c565b5b5090506200029991906200029d565b5090565b5b80821115620002b85760008160009055506001016200029e565b5090565b6000604051905090565b600080fd5b600080fd5b600073ffffffffffffffffffffffffffffffffffffffff82169050919050565b6000620002fd82620002d0565b9050919050565b6200030f81620002f0565b81146200031b57600080fd5b50565b6000815190506200032f8162000304565b92915050565b600080fd5b600080fd5b6000601f19601f8301169050919050565b7f4e487b7100000000000000000000000000000000000000000000000000000000600052604160045260246000fd5b6200038a826200033f565b810181811067ffffffffffffffff82111715620003ac57620003ab62000350565b5b80604052505050565b6000620003c1620002bc565b9050620003cf82826200037f565b919050565b600067ffffffffffffffff821115620003f257620003f162000350565b5b620003fd826200033f565b9050602081019050919050565b60005b838110156200042a5780820151818401526020810190506200040d565b838111156200043a576000848401525b50505050565b6000620004576200045184620003d4565b620003b5565b9050828152602081018484840111156200047657620004756200033a565b5b620004838482856200040a565b509392505050565b600082601f830112620004a357620004a262000335565b5b8151620004b584826020860162000440565b91505092915050565b6000620004cb82620002d0565b9050919050565b620004dd81620004be565b8114620004e957600080fd5b50565b600081519050620004fd81620004d2565b92915050565b6000806000606084860312156200051f576200051e620002c6565b5b60006200052f868287016200031e565b935050602084015167ffffffffffffffff811115620005535762000552620002cb565b5b62000561868287016200048b565b92505060406200057486828701620004ec565b9150509250925092565b7f4e487b7100000000000000000000000000000000000000000000000000000000600052602260045260246000fd5b60006002820490506001821680620005c657607f821691505b60208210811415620005dd57620005dc6200057e565b5b50919050565b612f9680620005f36000396000f3fe6080604052600436106101665760003560e01c80638da5cb5b116100d1578063cd61f34c1161008a578063d96a094a11610064578063d96a094a1461048f578063e4c4be58146104ab578063e796a6eb146104c2578063f2fde38b146104eb57610166565b8063cd61f34c14610436578063d270e7ab1461044d578063d4e932921461047857610166565b80638da5cb5b14610338578063903b8c7614610363578063971d852f1461038e5780639b27c10f146103b7578063a18bf1e9146103e0578063b37d61f81461040b57610166565b806356bb54a71161012357806356bb54a7146102365780635ba7a0691461024d5780635c975abb1461028a57806368db764a146102b5578063715018a6146102e05780638392fe31146102f757610166565b806306fdde031461016b5780630c4f65bd14610196578063143e6199146101c15780631536e674146101d85780631833b7c6146101e257806319d40b081461020b575b600080fd5b34801561017757600080fd5b50610180610514565b60405161018d9190611d93565b60405180910390f35b3480156101a257600080fd5b506101ab6105a2565b6040516101b89190611df6565b60405180910390f35b3480156101cd57600080fd5b506101d66105bf565b005b6101e06105fe565b005b3480156101ee57600080fd5b5061020960048036038101906102049190611e54565b6106ff565b005b34801561021757600080fd5b50610220610753565b60405161022d9190611e9c565b60405180910390f35b34801561024257600080fd5b5061024b610766565b005b34801561025957600080fd5b50610274600480360381019061026f9190611eed565b61078a565b6040516102819190611f29565b60405180910390f35b34801561029657600080fd5b5061029f6107b2565b6040516102ac9190611e9c565b60405180910390f35b3480156102c157600080fd5b506102ca6107c5565b6040516102d79190611f29565b60405180910390f35b3480156102ec57600080fd5b506102f56107df565b005b34801561030357600080fd5b5061031e60048036038101906103199190611eed565b6107f3565b60405161032f959493929190611f44565b60405180910390f35b34801561034457600080fd5b5061034d610829565b60405161035a9190611df6565b60405180910390f35b34801561036f57600080fd5b50610378610852565b6040516103859190611d93565b60405180910390f35b34801561039a57600080fd5b506103b560048036038101906103b09190611eed565b6108f4565b005b3480156103c357600080fd5b506103de60048036038101906103d99190611f97565b610c1b565b005b3480156103ec57600080fd5b506103f5610d3e565b6040516104029190611df6565b60405180910390f35b34801561041757600080fd5b50610420610d78565b60405161042d9190611f29565b60405180910390f35b34801561044257600080fd5b5061044b610d92565b005b34801561045957600080fd5b50610462610dd1565b60405161046f9190612049565b60405180910390f35b34801561048457600080fd5b5061048d610df7565b005b6104a960048036038101906104a49190611eed565b610f5d565b005b3480156104b757600080fd5b506104c06112b7565b005b3480156104ce57600080fd5b506104e960048036038101906104e49190612064565b6112dc565b005b3480156104f757600080fd5b50610512600480360381019061050d91906120e3565b6116cc565b005b600380546105219061213f565b80601f016020809104026020016040519081016040528092919081815260200182805461054d9061213f565b801561059a5780601f1061056f5761010080835404028352916020019161059a565b820191906000526020600020905b81548152906001019060200180831161057d57829003601f168201915b505050505081565b60006105ac611750565b60006105b6610829565b90508091505090565b6105c7611750565b60018060146101000a81548160ff0219169083151502179055506000600160156101000a81548160ff021916908315150217905550565b6106066117ce565b61060e611860565b6000341415610652576040517f08c379a0000000000000000000000000000000000000000000000000000000008152600401610649906121bd565b60405180910390fd5b3460056000828254610664919061220c565b92505081905550600160009054906101000a900473ffffffffffffffffffffffffffffffffffffffff1673ffffffffffffffffffffffffffffffffffffffff166327d9f318600230346040518463ffffffff1660e01b81526004016106cb9392919061229d565b600060405180830381600087803b1580156106e557600080fd5b505af11580156106f9573d6000803e3d6000fd5b50505050565b6107076117ce565b61070f611860565b80600260006101000a81548173ffffffffffffffffffffffffffffffffffffffff021916908373ffffffffffffffffffffffffffffffffffffffff16021790555050565b600160149054906101000a900460ff1681565b61076e611750565b60018060156101000a81548160ff021916908315150217905550565b6000610794611860565b60066000838152602001908152602001600020600201549050919050565b600160159054906101000a900460ff1681565b60006107cf6117ce565b6107d7611860565b600454905090565b6107e7611750565b6107f160006118b8565b565b60066020528060005260406000206000915090508060000154908060010154908060020154908060030154908060040154905085565b60008060009054906101000a900473ffffffffffffffffffffffffffffffffffffffff16905090565b606061085c6117ce565b610864611860565b600380546108719061213f565b80601f016020809104026020016040519081016040528092919081815260200182805461089d9061213f565b80156108ea5780601f106108bf576101008083540402835291602001916108ea565b820191906000526020600020905b8154815290600101906020018083116108cd57829003601f168201915b5050505050905090565b6108fc6117ce565b610904611860565b4260066000838152602001908152602001600020600001541061095c576040517f08c379a000000000000000000000000000000000000000000000000000000000815260040161095390612346565b60405180910390fd5b6000600660008381526020019081526020016000206002015414156109b6576040517f08c379a00000000000000000000000000000000000000000000000000000000081526004016109ad906123b2565b60405180910390fd5b600160066000838152602001908152602001600020600201541415610a10576040517f08c379a0000000000000000000000000000000000000000000000000000000008152600401610a0790612444565b60405180910390fd5b600360066000838152602001908152602001600020600201541415610a6a576040517f08c379a0000000000000000000000000000000000000000000000000000000008152600401610a61906124d6565b60405180910390fd5b600460066000838152602001908152602001600020600201541415610ac4576040517f08c379a0000000000000000000000000000000000000000000000000000000008152600401610abb90612568565b60405180910390fd5b600660008281526020019081526020016000206001015460046000828254610aec9190612588565b925050819055506006600082815260200190815260200160002060010154600660008381526020019081526020016000206003016000828254610b2f9190612588565b92505081905550600660008281526020019081526020016000206001015460056000828254610b5e919061220c565b9250508190555060036006600083815260200190815260200160002060020181905550600160009054906101000a900473ffffffffffffffffffffffffffffffffffffffff1673ffffffffffffffffffffffffffffffffffffffff1663cb3a4c30600130846000806040518663ffffffff1660e01b8152600401610be6959493929190612632565b600060405180830381600087803b158015610c0057600080fd5b505af1158015610c14573d6000803e3d6000fd5b5050505050565b610c236117ce565b610c2b611860565b6040518060a00160405280428152602001838152602001600181526020016000815260200182815250600660008581526020019081526020016000206000820151816000015560208201518160010155604082015181600201556060820151816003015560808201518160040155905050600160009054906101000a900473ffffffffffffffffffffffffffffffffffffffff1673ffffffffffffffffffffffffffffffffffffffff16630be1b838600130864230886001896040518963ffffffff1660e01b8152600401610d07989796959493929190612685565b600060405180830381600087803b158015610d2157600080fd5b505af1158015610d35573d6000803e3d6000fd5b50505050505050565b6000610d486117ce565b610d50611860565b600260009054906101000a900473ffffffffffffffffffffffffffffffffffffffff16905090565b6000610d826117ce565b610d8a611860565b600554905090565b610d9a611750565b6000600160146101000a81548160ff02191690831515021790555060018060156101000a81548160ff021916908315150217905550565b600160009054906101000a900473ffffffffffffffffffffffffffffffffffffffff1681565b610dff6117ce565b610e0761197c565b610e0f611860565b600060055411610e54576040517f08c379a0000000000000000000000000000000000000000000000000000000008152600401610e4b90612775565b60405180910390fd5b600260009054906101000a900473ffffffffffffffffffffffffffffffffffffffff1673ffffffffffffffffffffffffffffffffffffffff166108fc6005549081150290604051600060405180830381858888f19350505050158015610ebe573d6000803e3d6000fd5b50600160009054906101000a900473ffffffffffffffffffffffffffffffffffffffff1673ffffffffffffffffffffffffffffffffffffffff166327d9f3186001306005546040518463ffffffff1660e01b8152600401610f2193929190612795565b600060405180830381600087803b158015610f3b57600080fd5b505af1158015610f4f573d6000803e3d6000fd5b505050506000600581905550565b610f65611860565b6000341415610fa9576040517f08c379a0000000000000000000000000000000000000000000000000000000008152600401610fa0906121bd565b60405180910390fd5b600060066000838152602001908152602001600020600201541415611003576040517f08c379a0000000000000000000000000000000000000000000000000000000008152600401610ffa906123b2565b60405180910390fd5b60026006600083815260200190815260200160002060020154141561105d576040517f08c379a00000000000000000000000000000000000000000000000000000000081526004016110549061283e565b60405180910390fd5b6003600660008381526020019081526020016000206002015414156110b7576040517f08c379a00000000000000000000000000000000000000000000000000000000081526004016110ae906124d6565b60405180910390fd5b600460066000838152602001908152602001600020600201541415611111576040517f08c379a000000000000000000000000000000000000000000000000000000000815260040161110890612568565b60405180910390fd5b60066000828152602001908152602001600020600101543414611169576040517f08c379a0000000000000000000000000000000000000000000000000000000008152600401611160906128aa565b60405180910390fd5b346004600082825461117b919061220c565b925050819055506006600082815260200190815260200160002060040154426111a4919061220c565b6006600083815260200190815260200160002060000181905550600260066000838152602001908152602001600020600201819055503460066000838152602001908152602001600020600301819055506112003360006119d4565b600160009054906101000a900473ffffffffffffffffffffffffffffffffffffffff1673ffffffffffffffffffffffffffffffffffffffff16630be1b8386002308460066000878152602001908152602001600020600001543334600260006040518963ffffffff1660e01b81526004016112829897969594939291906128ca565b600060405180830381600087803b15801561129c57600080fd5b505af11580156112b0573d6000803e3d6000fd5b5050505050565b6112bf611750565b6000600160156101000a81548160ff021916908315150217905550565b6112e46117ce565b6112ec61197c565b6112f4611860565b60008111611337576040517f08c379a000000000000000000000000000000000000000000000000000000000815260040161132e906129ba565b60405180910390fd5b6006600084815260200190815260200160002060010154811115611390576040517f08c379a000000000000000000000000000000000000000000000000000000000815260040161138790612a4c565b60405180910390fd5b6000600660008581526020019081526020016000206002015414156113ea576040517f08c379a00000000000000000000000000000000000000000000000000000000081526004016113e1906123b2565b60405180910390fd5b600160066000858152602001908152602001600020600201541415611444576040517f08c379a000000000000000000000000000000000000000000000000000000000815260040161143b90612444565b60405180910390fd5b60046006600085815260200190815260200160002060020154141561149e576040517f08c379a000000000000000000000000000000000000000000000000000000000815260040161149590612568565b60405180910390fd5b806005546004546114af919061220c565b10156114f0576040517f08c379a00000000000000000000000000000000000000000000000000000000081526004016114e790612ade565b60405180910390fd5b8060066000858152602001908152602001600020600301541061155857806006600085815260200190815260200160002060030160008282546115339190612588565b92505081905550806004600082825461154c9190612588565b925050819055506115bb565b806005541061157f5780600560008282546115739190612588565b925050819055506115ba565b6040517f08c379a00000000000000000000000000000000000000000000000000000000081526004016115b190612b70565b60405180910390fd5b5b8173ffffffffffffffffffffffffffffffffffffffff166108fc829081150290604051600060405180830381858888f19350505050158015611601573d6000803e3d6000fd5b50600460066000858152602001908152602001600020600201819055506116298260016119d4565b600160009054906101000a900473ffffffffffffffffffffffffffffffffffffffff1673ffffffffffffffffffffffffffffffffffffffff16630be1b83860033086428787600460006040518963ffffffff1660e01b8152600401611695989796959493929190612c27565b600060405180830381600087803b1580156116af57600080fd5b505af11580156116c3573d6000803e3d6000fd5b50505050505050565b6116d4611750565b600073ffffffffffffffffffffffffffffffffffffffff168173ffffffffffffffffffffffffffffffffffffffff161415611744576040517f08c379a000000000000000000000000000000000000000000000000000000000815260040161173b90612d17565b60405180910390fd5b61174d816118b8565b50565b611758611cf2565b73ffffffffffffffffffffffffffffffffffffffff16611776610829565b73ffffffffffffffffffffffffffffffffffffffff16146117cc576040517f08c379a00000000000000000000000000000000000000000000000000000000081526004016117c390612d83565b60405180910390fd5b565b600260009054906101000a900473ffffffffffffffffffffffffffffffffffffffff1673ffffffffffffffffffffffffffffffffffffffff163373ffffffffffffffffffffffffffffffffffffffff161461185e576040517f08c379a000000000000000000000000000000000000000000000000000000000815260040161185590612e15565b60405180910390fd5b565b60011515600160149054906101000a900460ff161515146118b6576040517f08c379a00000000000000000000000000000000000000000000000000000000081526004016118ad90612e81565b60405180910390fd5b565b60008060009054906101000a900473ffffffffffffffffffffffffffffffffffffffff169050816000806101000a81548173ffffffffffffffffffffffffffffffffffffffff021916908373ffffffffffffffffffffffffffffffffffffffff1602179055508173ffffffffffffffffffffffffffffffffffffffff168173ffffffffffffffffffffffffffffffffffffffff167f8be0079c531659141344cd1fd0a4f28419497f9722a3daafe3b4186f6b6457e060405160405180910390a35050565b60001515600160159054906101000a900460ff161515146119d2576040517f08c379a00000000000000000000000000000000000000000000000000000000081526004016119c990612eed565b60405180910390fd5b565b6000811415611ab857600160076000600260009054906101000a900473ffffffffffffffffffffffffffffffffffffffff1673ffffffffffffffffffffffffffffffffffffffff1673ffffffffffffffffffffffffffffffffffffffff1681526020019081526020016000206000016000828254611a52919061220c565b925050819055506001600860008473ffffffffffffffffffffffffffffffffffffffff1673ffffffffffffffffffffffffffffffffffffffff1681526020019081526020016000206000016000828254611aac919061220c565b92505081905550611b8f565b600160076000600260009054906101000a900473ffffffffffffffffffffffffffffffffffffffff1673ffffffffffffffffffffffffffffffffffffffff1673ffffffffffffffffffffffffffffffffffffffff1681526020019081526020016000206001016000828254611b2d919061220c565b925050819055506001600860008473ffffffffffffffffffffffffffffffffffffffff1673ffffffffffffffffffffffffffffffffffffffff1681526020019081526020016000206001016000828254611b87919061220c565b925050819055505b600160009054906101000a900473ffffffffffffffffffffffffffffffffffffffff1673ffffffffffffffffffffffffffffffffffffffff1663cb3a4c30600230600060076000600260009054906101000a900473ffffffffffffffffffffffffffffffffffffffff1673ffffffffffffffffffffffffffffffffffffffff1673ffffffffffffffffffffffffffffffffffffffff1681526020019081526020016000206000015460076000600260009054906101000a900473ffffffffffffffffffffffffffffffffffffffff1673ffffffffffffffffffffffffffffffffffffffff1673ffffffffffffffffffffffffffffffffffffffff168152602001908152602001600020600101546040518663ffffffff1660e01b8152600401611cbc959493929190612f0d565b600060405180830381600087803b158015611cd657600080fd5b505af1158015611cea573d6000803e3d6000fd5b505050505050565b600033905090565b600081519050919050565b600082825260208201905092915050565b60005b83811015611d34578082015181840152602081019050611d19565b83811115611d43576000848401525b50505050565b6000601f19601f8301169050919050565b6000611d6582611cfa565b611d6f8185611d05565b9350611d7f818560208601611d16565b611d8881611d49565b840191505092915050565b60006020820190508181036000830152611dad8184611d5a565b905092915050565b600073ffffffffffffffffffffffffffffffffffffffff82169050919050565b6000611de082611db5565b9050919050565b611df081611dd5565b82525050565b6000602082019050611e0b6000830184611de7565b92915050565b600080fd5b6000611e2182611db5565b9050919050565b611e3181611e16565b8114611e3c57600080fd5b50565b600081359050611e4e81611e28565b92915050565b600060208284031215611e6a57611e69611e11565b5b6000611e7884828501611e3f565b91505092915050565b60008115159050919050565b611e9681611e81565b82525050565b6000602082019050611eb16000830184611e8d565b92915050565b6000819050919050565b611eca81611eb7565b8114611ed557600080fd5b50565b600081359050611ee781611ec1565b92915050565b600060208284031215611f0357611f02611e11565b5b6000611f1184828501611ed8565b91505092915050565b611f2381611eb7565b82525050565b6000602082019050611f3e6000830184611f1a565b92915050565b600060a082019050611f596000830188611f1a565b611f666020830187611f1a565b611f736040830186611f1a565b611f806060830185611f1a565b611f8d6080830184611f1a565b9695505050505050565b600080600060608486031215611fb057611faf611e11565b5b6000611fbe86828701611ed8565b9350506020611fcf86828701611ed8565b9250506040611fe086828701611ed8565b9150509250925092565b6000819050919050565b600061200f61200a61200584611db5565b611fea565b611db5565b9050919050565b600061202182611ff4565b9050919050565b600061203382612016565b9050919050565b61204381612028565b82525050565b600060208201905061205e600083018461203a565b92915050565b60008060006060848603121561207d5761207c611e11565b5b600061208b86828701611ed8565b935050602061209c86828701611e3f565b92505060406120ad86828701611ed8565b9150509250925092565b6120c081611dd5565b81146120cb57600080fd5b50565b6000813590506120dd816120b7565b92915050565b6000602082840312156120f9576120f8611e11565b5b6000612107848285016120ce565b91505092915050565b7f4e487b7100000000000000000000000000000000000000000000000000000000600052602260045260246000fd5b6000600282049050600182168061215757607f821691505b6020821081141561216b5761216a612110565b5b50919050565b7f416d6f756e742073686f756c642062652067726561746572207468616e203021600082015250565b60006121a7602083611d05565b91506121b282612171565b602082019050919050565b600060208201905081810360008301526121d68161219a565b9050919050565b7f4e487b7100000000000000000000000000000000000000000000000000000000600052601160045260246000fd5b600061221782611eb7565b915061222283611eb7565b9250827fffffffffffffffffffffffffffffffffffffffffffffffffffffffffffffffff03821115612257576122566121dd565b5b828201905092915050565b6000819050919050565b600061228761228261227d84612262565b611fea565b611eb7565b9050919050565b6122978161226c565b82525050565b60006060820190506122b2600083018661228e565b6122bf6020830185611de7565b6122cc6040830184611f1a565b949350505050565b7f54686520657363726f772074696d65206f66207468697320707572636861736560008201527f2069736e2774206f766572207965742100000000000000000000000000000000602082015250565b6000612330603083611d05565b915061233b826122d4565b604082019050919050565b6000602082019050818103600083015261235f81612323565b9050919050565b7f5468617420707572636861736520646f65736e27742065786973742100000000600082015250565b600061239c601c83611d05565b91506123a782612366565b602082019050919050565b600060208201905081810360008301526123cb8161238f565b9050919050565b7f54686174207075726368617365206861736e277420796574206265656e20706160008201527f6964210000000000000000000000000000000000000000000000000000000000602082015250565b600061242e602383611d05565b9150612439826123d2565b604082019050919050565b6000602082019050818103600083015261245d81612421565b9050919050565b7f546861742070757263686173652068617320616c7265616479206265656e206360008201527f6f6d706c65746564210000000000000000000000000000000000000000000000602082015250565b60006124c0602983611d05565b91506124cb82612464565b604082019050919050565b600060208201905081810360008301526124ef816124b3565b9050919050565b7f546861742070757263686173652068617320616c7265616479206265656e207260008201527f6566756e64656421000000000000000000000000000000000000000000000000602082015250565b6000612552602883611d05565b915061255d826124f6565b604082019050919050565b6000602082019050818103600083015261258181612545565b9050919050565b600061259382611eb7565b915061259e83611eb7565b9250828210156125b1576125b06121dd565b5b828203905092915050565b6000819050919050565b60006125e16125dc6125d7846125bc565b611fea565b611eb7565b9050919050565b6125f1816125c6565b82525050565b6000819050919050565b600061261c612617612612846125f7565b611fea565b611eb7565b9050919050565b61262c81612601565b82525050565b600060a08201905061264760008301886125e8565b6126546020830187611de7565b6126616040830186611f1a565b61266e6060830185612623565b61267b6080830184612623565b9695505050505050565b60006101008201905061269b600083018b6125e8565b6126a8602083018a611de7565b6126b56040830189611f1a565b6126c26060830188611f1a565b6126cf6080830187611de7565b6126dc60a0830186611f1a565b6126e960c08301856125e8565b6126f660e0830184611f1a565b9998505050505050505050565b7f42616c616e63652073686f756c642062652067726561746572207468616e203060008201527f2121000000000000000000000000000000000000000000000000000000000000602082015250565b600061275f602283611d05565b915061276a82612703565b604082019050919050565b6000602082019050818103600083015261278e81612752565b9050919050565b60006060820190506127aa60008301866125e8565b6127b76020830185611de7565b6127c46040830184611f1a565b949350505050565b7f546861742070757263686173652068617320616c7265616479206265656e207060008201527f6169642100000000000000000000000000000000000000000000000000000000602082015250565b6000612828602483611d05565b9150612833826127cc565b604082019050919050565b600060208201905081810360008301526128578161281b565b9050919050565b7f57726f6e6720616d6f756e742100000000000000000000000000000000000000600082015250565b6000612894600d83611d05565b915061289f8261285e565b602082019050919050565b600060208201905081810360008301526128c381612887565b9050919050565b6000610100820190506128e0600083018b61228e565b6128ed602083018a611de7565b6128fa6040830189611f1a565b6129076060830188611f1a565b6129146080830187611de7565b61292160a0830186611f1a565b61292e60c083018561228e565b61293b60e0830184612623565b9998505050505050505050565b7f526566756e6420616d6f756e742073686f756c6420626520677265617465722060008201527f7468616e20302121000000000000000000000000000000000000000000000000602082015250565b60006129a4602883611d05565b91506129af82612948565b604082019050919050565b600060208201905081810360008301526129d381612997565b9050919050565b7f526566756e6420616d6f756e742073686f756c646e277420626520677265617460008201527f6572207468616e20746865207075726368617365416d6f756e74210000000000602082015250565b6000612a36603b83611d05565b9150612a41826129da565b604082019050919050565b60006020820190508181036000830152612a6581612a29565b9050919050565b7f596f7520646f6e2774206861766520656e6f756768206d6f6e657920696e207460008201527f686520736d6172742d636f6e7472616374210000000000000000000000000000602082015250565b6000612ac8603283611d05565b9150612ad382612a6c565b604082019050919050565b60006020820190508181036000830152612af781612abb565b9050919050565b7f4572726f722070726f63657373696e6720726566756e642c20636865636b207960008201527f6f757220736d6172742d636f6e74726163742062616c616e6365210000000000602082015250565b6000612b5a603b83611d05565b9150612b6582612afe565b604082019050919050565b60006020820190508181036000830152612b8981612b4d565b9050919050565b6000819050919050565b6000612bb5612bb0612bab84612b90565b611fea565b611eb7565b9050919050565b612bc581612b9a565b82525050565b6000612bd682612016565b9050919050565b612be681612bcb565b82525050565b6000819050919050565b6000612c11612c0c612c0784612bec565b611fea565b611eb7565b9050919050565b612c2181612bf6565b82525050565b600061010082019050612c3d600083018b612bbc565b612c4a602083018a611de7565b612c576040830189611f1a565b612c646060830188611f1a565b612c716080830187612bdd565b612c7e60a0830186611f1a565b612c8b60c0830185612c18565b612c9860e0830184612623565b9998505050505050505050565b7f4f776e61626c653a206e6577206f776e657220697320746865207a65726f206160008201527f6464726573730000000000000000000000000000000000000000000000000000602082015250565b6000612d01602683611d05565b9150612d0c82612ca5565b604082019050919050565b60006020820190508181036000830152612d3081612cf4565b9050919050565b7f4f776e61626c653a2063616c6c6572206973206e6f7420746865206f776e6572600082015250565b6000612d6d602083611d05565b9150612d7882612d37565b602082019050919050565b60006020820190508181036000830152612d9c81612d60565b9050919050565b7f4f6e6c79204d65726368616e742063616e2063616c6c20746869732066756e6360008201527f74696f6e00000000000000000000000000000000000000000000000000000000602082015250565b6000612dff602483611d05565b9150612e0a82612da3565b604082019050919050565b60006020820190508181036000830152612e2e81612df2565b9050919050565b7f4d65726368616e74206e6f7420617070726f7665642100000000000000000000600082015250565b6000612e6b601683611d05565b9150612e7682612e35565b602082019050919050565b60006020820190508181036000830152612e9a81612e5e565b9050919050565b7f5769746864726177616c73206172652070617573656421000000000000000000600082015250565b6000612ed7601783611d05565b9150612ee282612ea1565b602082019050919050565b60006020820190508181036000830152612f0681612eca565b9050919050565b600060a082019050612f22600083018861228e565b612f2f6020830187611de7565b612f3c6040830186612623565b612f496060830185611f1a565b612f566080830184611f1a565b969550505050505056fea264697066735822122030d1814a8932d143994251fd0b0da71db6d592497a2d2ffc950ad4d5b145be5f64736f6c63430008090033",
  "linkReferences": {},
  "deployedLinkReferences": {}
}