{
  "_format": "hh-sol-artifact-1",
  "contractName": "MainContract",
  "sourceName": "contracts/mainContract.sol",
  "abi": [
    {
      "inputs": [
        {
          "internalType": "address",
          "name": "OWNER",
          "type": "address"
        }
      ],
      "stateMutability": "nonpayable",
      "type": "constructor"
    },
    {
      "anonymous": false,
      "inputs": [
        {
          "indexed": false,
          "internalType": "address",
          "name": "MerchantContractAddress",
          "type": "address"
        },
        {
          "indexed": false,
          "internalType": "bool",
          "name": "Approved",
          "type": "bool"
        }
      ],
      "name": "ApprovedMerchantContract",
      "type": "event"
    },
    {
      "anonymous": false,
      "inputs": [
        {
          "indexed": false,
          "internalType": "uint256",
          "name": "ID",
          "type": "uint256"
        },
        {
          "indexed": false,
          "internalType": "address",
          "name": "MerchantContractAddress",
          "type": "address"
        },
        {
          "indexed": false,
          "internalType": "address",
          "name": "MerchantAddress",
          "type": "address"
        },
        {
          "indexed": false,
          "internalType": "string",
          "name": "MerchantName",
          "type": "string"
        }
      ],
      "name": "CreateMerchantContract",
      "type": "event"
    },
    {
      "anonymous": false,
      "inputs": [
        {
          "indexed": false,
          "internalType": "address",
          "name": "MerchantContractAddress",
          "type": "address"
        }
      ],
      "name": "NewMerchantContractApproved",
      "type": "event"
    },
    {
      "anonymous": false,
      "inputs": [
        {
          "indexed": false,
          "internalType": "address",
          "name": "MerchantContractAddress",
          "type": "address"
        },
        {
          "indexed": false,
          "internalType": "bool",
          "name": "Paused",
          "type": "bool"
        }
      ],
      "name": "PausedMerchantContract",
      "type": "event"
    },
    {
      "anonymous": false,
      "inputs": [
        {
          "indexed": false,
          "internalType": "address",
          "name": "MerchantContractAddress",
          "type": "address"
        },
        {
          "indexed": false,
          "internalType": "uint256",
          "name": "Sells",
          "type": "uint256"
        },
        {
          "indexed": false,
          "internalType": "uint256",
          "name": "Refunds",
          "type": "uint256"
        },
        {
          "indexed": false,
          "internalType": "uint256",
          "name": "Purchases",
          "type": "uint256"
        },
        {
          "indexed": false,
          "internalType": "uint256",
          "name": "Cancellations",
          "type": "uint256"
        }
      ],
      "name": "SaveHistoric",
      "type": "event"
    },
    {
      "anonymous": false,
      "inputs": [
        {
          "indexed": false,
          "internalType": "address",
          "name": "Voter",
          "type": "address"
        },
        {
          "indexed": false,
          "internalType": "address",
          "name": "MerchantContractAddress",
          "type": "address"
        }
      ],
      "name": "VoteNewMerchantContractApproval",
      "type": "event"
    },
    {
      "inputs": [
        {
          "internalType": "address payable",
          "name": "MerchantAddress",
          "type": "address"
        },
        {
          "internalType": "string",
          "name": "MerchantName",
          "type": "string"
        }
      ],
      "name": "addMerchantContract",
      "outputs": [],
      "stateMutability": "nonpayable",
      "type": "function"
    },
    {
      "inputs": [
        {
          "internalType": "uint256",
          "name": "MerchantContractID",
          "type": "uint256"
        }
      ],
      "name": "disapproveMerchantContract",
      "outputs": [],
      "stateMutability": "nonpayable",
      "type": "function"
    },
    {
      "inputs": [
        {
          "internalType": "uint256",
          "name": "MerchantContractID",
          "type": "uint256"
        }
      ],
      "name": "freezeWithdrawalsMerchantContract",
      "outputs": [],
      "stateMutability": "nonpayable",
      "type": "function"
    },
    {
      "inputs": [
        {
          "internalType": "uint256",
          "name": "MerchantContractID",
          "type": "uint256"
        }
      ],
      "name": "getMerchantAddress",
      "outputs": [
        {
          "internalType": "address",
          "name": "",
          "type": "address"
        }
      ],
      "stateMutability": "view",
      "type": "function"
    },
    {
      "inputs": [
        {
          "internalType": "uint256",
          "name": "",
          "type": "uint256"
        }
      ],
      "name": "merchants",
      "outputs": [
        {
          "internalType": "contract MerchantContract",
          "name": "merchantContract",
          "type": "address"
        },
        {
          "internalType": "string",
          "name": "name",
          "type": "string"
        },
        {
          "internalType": "uint256",
          "name": "status",
          "type": "uint256"
        },
        {
          "internalType": "uint256",
          "name": "votes",
          "type": "uint256"
        }
      ],
      "stateMutability": "view",
      "type": "function"
    },
    {
      "inputs": [
        {
          "internalType": "address",
          "name": "",
          "type": "address"
        }
      ],
      "name": "merchants2",
      "outputs": [
        {
          "internalType": "contract MerchantContract",
          "name": "merchantContract",
          "type": "address"
        },
        {
          "internalType": "string",
          "name": "name",
          "type": "string"
        },
        {
          "internalType": "uint256",
          "name": "status",
          "type": "uint256"
        },
        {
          "internalType": "uint256",
          "name": "votes",
          "type": "uint256"
        }
      ],
      "stateMutability": "view",
      "type": "function"
    },
    {
      "inputs": [
        {
          "internalType": "uint256",
          "name": "MerchantContractID",
          "type": "uint256"
        }
      ],
      "name": "unfreezeWithdrawalsMerchantContract",
      "outputs": [],
      "stateMutability": "nonpayable",
      "type": "function"
    }
  ],
  "bytecode": "0x60806040523480156200001157600080fd5b5060405162005dde38038062005dde8339818101604052810190620000379190620000f0565b806000806101000a81548173ffffffffffffffffffffffffffffffffffffffff021916908373ffffffffffffffffffffffffffffffffffffffff16021790555060006001819055505062000122565b600080fd5b600073ffffffffffffffffffffffffffffffffffffffff82169050919050565b6000620000b8826200008b565b9050919050565b620000ca81620000ab565b8114620000d657600080fd5b50565b600081519050620000ea81620000bf565b92915050565b60006020828403121562000109576200010862000086565b5b60006200011984828501620000d9565b91505092915050565b615cac80620001326000396000f3fe60806040523480156200001157600080fd5b5060043610620000885760003560e01c80638d91d77611620000635780638d91d776146200011c57806392c8823b146200013c5780639f81a5381462000175578063e9e914ca14620001955762000088565b80630f29cebe146200008d5780635e14466814620000c6578063707326c414620000e6575b600080fd5b620000ab6004803603810190620000a591906200134b565b620001b5565b604051620000bd9493929190620014a7565b60405180910390f35b620000e46004803603810190620000de91906200152c565b62000295565b005b620001046004803603810190620000fe91906200152c565b620004e0565b6040516200011391906200156f565b60405180910390f35b6200013a60048036038101906200013491906200152c565b620006b0565b005b6200015a60048036038101906200015491906200152c565b62000942565b6040516200016c9493929190620014a7565b60405180910390f35b6200019360048036038101906200018d91906200152c565b62000a22565b005b620001b36004803603810190620001ad919062001722565b62000c6d565b005b60036020528060005260406000206000915090508060000160009054906101000a900473ffffffffffffffffffffffffffffffffffffffff16908060010180546200020090620017b7565b80601f01602080910402602001604051908101604052809291908181526020018280546200022e90620017b7565b80156200027f5780601f1062000253576101008083540402835291602001916200027f565b820191906000526020600020905b8154815290600101906020018083116200026157829003601f168201915b5050505050908060020154908060030154905084565b60008054906101000a900473ffffffffffffffffffffffffffffffffffffffff1673ffffffffffffffffffffffffffffffffffffffff163373ffffffffffffffffffffffffffffffffffffffff161462000326576040517f08c379a00000000000000000000000000000000000000000000000000000000081526004016200031d9062001863565b60405180910390fd5b6002600082815260200190815260200160002060000160009054906101000a900473ffffffffffffffffffffffffffffffffffffffff1673ffffffffffffffffffffffffffffffffffffffff166356bb54a76040518163ffffffff1660e01b8152600401600060405180830381600087803b158015620003a557600080fd5b505af1158015620003ba573d6000803e3d6000fd5b505050506200046b6040518060400160405280601181526020017f4d65726368616e74436f6e7472616374200000000000000000000000000000008152506002600084815260200190815260200160002060000160009054906101000a900473ffffffffffffffffffffffffffffffffffffffff166040518060400160405280600881526020017f205061757365642100000000000000000000000000000000000000000000000081525062000f6b565b7fbb5abab7720f7597afcce36262e4fc1027dba0f18560ba922a6a57e6abd674a26002600083815260200190815260200160002060000160009054906101000a900473ffffffffffffffffffffffffffffffffffffffff166001604051620004d5929190620018a2565b60405180910390a150565b60008060009054906101000a900473ffffffffffffffffffffffffffffffffffffffff1673ffffffffffffffffffffffffffffffffffffffff163373ffffffffffffffffffffffffffffffffffffffff161462000574576040517f08c379a00000000000000000000000000000000000000000000000000000000081526004016200056b9062001863565b60405180910390fd5b60006002600084815260200190815260200160002060000160009054906101000a900473ffffffffffffffffffffffffffffffffffffffff1673ffffffffffffffffffffffffffffffffffffffff1663a3eb6e5b6040518163ffffffff1660e01b815260040160206040518083038186803b158015620005f357600080fd5b505afa15801562000608573d6000803e3d6000fd5b505050506040513d601f19601f820116820180604052508101906200062e9190620018e6565b9050620006a76040518060400160405280601281526020017f4d65726368616e7420416464726573733a200000000000000000000000000000815250826040518060400160405280600281526020017f212100000000000000000000000000000000000000000000000000000000000081525062000f6b565b80915050919050565b60008054906101000a900473ffffffffffffffffffffffffffffffffffffffff1673ffffffffffffffffffffffffffffffffffffffff163373ffffffffffffffffffffffffffffffffffffffff161462000741576040517f08c379a0000000000000000000000000000000000000000000000000000000008152600401620007389062001863565b60405180910390fd5b600280600083815260200190815260200160002060020154146200079c576040517f08c379a0000000000000000000000000000000000000000000000000000000008152600401620007939062001968565b60405180910390fd5b600160026000838152602001908152602001600020600201819055506002600082815260200190815260200160002060000160009054906101000a900473ffffffffffffffffffffffffffffffffffffffff1673ffffffffffffffffffffffffffffffffffffffff1663cd61f34c6040518163ffffffff1660e01b8152600401600060405180830381600087803b1580156200083757600080fd5b505af11580156200084c573d6000803e3d6000fd5b5050505060006002600083815260200190815260200160002060000160009054906101000a900473ffffffffffffffffffffffffffffffffffffffff169050620009026040518060400160405280601181526020017f4d65726368616e74204164647265737320000000000000000000000000000000815250826040518060400160405280601681526020017f20686173206265656e20646973617070726f766564210000000000000000000081525062000f6b565b7fe9133cef7732c37a065f96f8d682dd1aa56be5871b2278c2991c506df0bb670581600060405162000936929190620018a2565b60405180910390a15050565b60026020528060005260406000206000915090508060000160009054906101000a900473ffffffffffffffffffffffffffffffffffffffff16908060010180546200098d90620017b7565b80601f0160208091040260200160405190810160405280929190818152602001828054620009bb90620017b7565b801562000a0c5780601f10620009e05761010080835404028352916020019162000a0c565b820191906000526020600020905b815481529060010190602001808311620009ee57829003601f168201915b5050505050908060020154908060030154905084565b60008054906101000a900473ffffffffffffffffffffffffffffffffffffffff1673ffffffffffffffffffffffffffffffffffffffff163373ffffffffffffffffffffffffffffffffffffffff161462000ab3576040517f08c379a000000000000000000000000000000000000000000000000000000000815260040162000aaa9062001863565b60405180910390fd5b6002600082815260200190815260200160002060000160009054906101000a900473ffffffffffffffffffffffffffffffffffffffff1673ffffffffffffffffffffffffffffffffffffffff1663e4c4be586040518163ffffffff1660e01b8152600401600060405180830381600087803b15801562000b3257600080fd5b505af115801562000b47573d6000803e3d6000fd5b5050505062000bf86040518060400160405280601181526020017f4d65726368616e74436f6e7472616374200000000000000000000000000000008152506002600084815260200190815260200160002060000160009054906101000a900473ffffffffffffffffffffffffffffffffffffffff166040518060400160405280600a81526020017f20556e706175736564210000000000000000000000000000000000000000000081525062000f6b565b7fbb5abab7720f7597afcce36262e4fc1027dba0f18560ba922a6a57e6abd674a26002600083815260200190815260200160002060000160009054906101000a900473ffffffffffffffffffffffffffffffffffffffff16600060405162000c62929190620018a2565b60405180910390a150565b60008054906101000a900473ffffffffffffffffffffffffffffffffffffffff1673ffffffffffffffffffffffffffffffffffffffff163373ffffffffffffffffffffffffffffffffffffffff161462000cfe576040517f08c379a000000000000000000000000000000000000000000000000000000000815260040162000cf59062001863565b60405180910390fd5b6000828260405162000d109062001214565b62000d1d9291906200199b565b604051809103906000f08015801562000d3a573d6000803e3d6000fd5b50905060405180608001604052808273ffffffffffffffffffffffffffffffffffffffff16815260200183815260200160018152602001600081525060026000600154815260200190815260200160002060008201518160000160006101000a81548173ffffffffffffffffffffffffffffffffffffffff021916908373ffffffffffffffffffffffffffffffffffffffff160217905550602082015181600101908051906020019062000df092919062001222565b50604082015181600201556060820151816003015590505062000e486040518060400160405280601581526020017f43726561746564206e6577204d65726368616e742100000000000000000000008152506200100e565b62000e896040518060400160405280601a81526020017f4d65726368616e74436f6e747261637420416464726573733a2000000000000081525082620010ab565b62000eca6040518060400160405280600981526020017f416464726573733a20000000000000000000000000000000000000000000000081525084620010ab565b62000f0b6040518060400160405280600681526020017f4e616d653a200000000000000000000000000000000000000000000000000000815250836200114b565b7ff599270eaa88ab822e3059ee56e99862a9c50be81729382ec6f6739a3a4c24fa60015482858560405162000f449493929190620019f4565b60405180910390a16001600081548092919062000f619062001a77565b9190505550505050565b6200100983838360405160240162000f869392919062001ac5565b6040516020818303038152906040527fe0e9ad4f000000000000000000000000000000000000000000000000000000007bffffffffffffffffffffffffffffffffffffffffffffffffffffffff19166020820180517bffffffffffffffffffffffffffffffffffffffffffffffffffffffff8381831617835250505050620011eb565b505050565b620010a88160405160240162001025919062001b10565b6040516020818303038152906040527f41304fac000000000000000000000000000000000000000000000000000000007bffffffffffffffffffffffffffffffffffffffffffffffffffffffff19166020820180517bffffffffffffffffffffffffffffffffffffffffffffffffffffffff8381831617835250505050620011eb565b50565b620011478282604051602401620010c492919062001b34565b6040516020818303038152906040527f319af333000000000000000000000000000000000000000000000000000000007bffffffffffffffffffffffffffffffffffffffffffffffffffffffff19166020820180517bffffffffffffffffffffffffffffffffffffffffffffffffffffffff8381831617835250505050620011eb565b5050565b620011e782826040516024016200116492919062001b68565b6040516020818303038152906040527f4b5c4277000000000000000000000000000000000000000000000000000000007bffffffffffffffffffffffffffffffffffffffffffffffffffffffff19166020820180517bffffffffffffffffffffffffffffffffffffffffffffffffffffffff8381831617835250505050620011eb565b5050565b60008151905060006a636f6e736f6c652e6c6f679050602083016000808483855afa5050505050565b6140d38062001ba483390190565b8280546200123090620017b7565b90600052602060002090601f016020900481019282620012545760008555620012a0565b82601f106200126f57805160ff1916838001178555620012a0565b82800160010185558215620012a0579182015b828111156200129f57825182559160200191906001019062001282565b5b509050620012af9190620012b3565b5090565b5b80821115620012ce576000816000905550600101620012b4565b5090565b6000604051905090565b600080fd5b600080fd5b600073ffffffffffffffffffffffffffffffffffffffff82169050919050565b60006200131382620012e6565b9050919050565b620013258162001306565b81146200133157600080fd5b50565b60008135905062001345816200131a565b92915050565b600060208284031215620013645762001363620012dc565b5b6000620013748482850162001334565b91505092915050565b6000819050919050565b6000620013a8620013a26200139c84620012e6565b6200137d565b620012e6565b9050919050565b6000620013bc8262001387565b9050919050565b6000620013d082620013af565b9050919050565b620013e281620013c3565b82525050565b600081519050919050565b600082825260208201905092915050565b60005b838110156200142457808201518184015260208101905062001407565b8381111562001434576000848401525b50505050565b6000601f19601f8301169050919050565b60006200145882620013e8565b620014648185620013f3565b93506200147681856020860162001404565b62001481816200143a565b840191505092915050565b6000819050919050565b620014a1816200148c565b82525050565b6000608082019050620014be6000830187620013d7565b8181036020830152620014d281866200144b565b9050620014e3604083018562001496565b620014f2606083018462001496565b95945050505050565b62001506816200148c565b81146200151257600080fd5b50565b6000813590506200152681620014fb565b92915050565b600060208284031215620015455762001544620012dc565b5b6000620015558482850162001515565b91505092915050565b620015698162001306565b82525050565b60006020820190506200158660008301846200155e565b92915050565b60006200159982620012e6565b9050919050565b620015ab816200158c565b8114620015b757600080fd5b50565b600081359050620015cb81620015a0565b92915050565b600080fd5b600080fd5b7f4e487b7100000000000000000000000000000000000000000000000000000000600052604160045260246000fd5b62001615826200143a565b810181811067ffffffffffffffff82111715620016375762001636620015db565b5b80604052505050565b60006200164c620012d2565b90506200165a82826200160a565b919050565b600067ffffffffffffffff8211156200167d576200167c620015db565b5b62001688826200143a565b9050602081019050919050565b82818337600083830152505050565b6000620016bb620016b5846200165f565b62001640565b905082815260208101848484011115620016da57620016d9620015d6565b5b620016e784828562001695565b509392505050565b600082601f830112620017075762001706620015d1565b5b813562001719848260208601620016a4565b91505092915050565b600080604083850312156200173c576200173b620012dc565b5b60006200174c85828601620015ba565b925050602083013567ffffffffffffffff81111562001770576200176f620012e1565b5b6200177e85828601620016ef565b9150509250929050565b7f4e487b7100000000000000000000000000000000000000000000000000000000600052602260045260246000fd5b60006002820490506001821680620017d057607f821691505b60208210811415620017e757620017e662001788565b5b50919050565b7f4f6e6c79204f776e65722063616e2063616c6c20746869732066756e6374696f60008201527f6e00000000000000000000000000000000000000000000000000000000000000602082015250565b60006200184b602183620013f3565b91506200185882620017ed565b604082019050919050565b600060208201905081810360008301526200187e816200183c565b9050919050565b60008115159050919050565b6200189c8162001885565b82525050565b6000604082019050620018b960008301856200155e565b620018c8602083018462001891565b9392505050565b600081519050620018e0816200131a565b92915050565b600060208284031215620018ff57620018fe620012dc565b5b60006200190f84828501620018cf565b91505092915050565b7f5468697320616464726573732069736e277420617070726f7665642100000000600082015250565b600062001950601c83620013f3565b91506200195d8262001918565b602082019050919050565b60006020820190508181036000830152620019838162001941565b9050919050565b62001995816200158c565b82525050565b6000604082019050620019b260008301856200198a565b8181036020830152620019c681846200144b565b90509392505050565b6000620019dc82620013af565b9050919050565b620019ee81620019cf565b82525050565b600060808201905062001a0b600083018762001496565b62001a1a60208301866200155e565b62001a296040830185620019e3565b818103606083015262001a3d81846200144b565b905095945050505050565b7f4e487b7100000000000000000000000000000000000000000000000000000000600052601160045260246000fd5b600062001a84826200148c565b91507fffffffffffffffffffffffffffffffffffffffffffffffffffffffffffffffff82141562001aba5762001ab962001a48565b5b600182019050919050565b6000606082019050818103600083015262001ae181866200144b565b905062001af260208301856200155e565b818103604083015262001b0681846200144b565b9050949350505050565b6000602082019050818103600083015262001b2c81846200144b565b905092915050565b6000604082019050818103600083015262001b5081856200144b565b905062001b6160208301846200155e565b9392505050565b6000604082019050818103600083015262001b8481856200144b565b9050818103602083015262001b9a81846200144b565b9050939250505056fe60806040523480156200001157600080fd5b50604051620040d3380380620040d3833981810160405281019062000037919062000462565b620000576200004b620000e460201b60201c565b620000ec60201b60201c565b81600260006101000a81548173ffffffffffffffffffffffffffffffffffffffff021916908373ffffffffffffffffffffffffffffffffffffffff1602179055508060039080519060200190620000b0929190620001b0565b50600060048190555060006005819055506000600160146101000a81548160ff02191690831515021790555050506200052d565b600033905090565b60008060009054906101000a900473ffffffffffffffffffffffffffffffffffffffff169050816000806101000a81548173ffffffffffffffffffffffffffffffffffffffff021916908373ffffffffffffffffffffffffffffffffffffffff1602179055508173ffffffffffffffffffffffffffffffffffffffff168173ffffffffffffffffffffffffffffffffffffffff167f8be0079c531659141344cd1fd0a4f28419497f9722a3daafe3b4186f6b6457e060405160405180910390a35050565b828054620001be90620004f7565b90600052602060002090601f016020900481019282620001e257600085556200022e565b82601f10620001fd57805160ff19168380011785556200022e565b828001600101855582156200022e579182015b828111156200022d57825182559160200191906001019062000210565b5b5090506200023d919062000241565b5090565b5b808211156200025c57600081600090555060010162000242565b5090565b6000604051905090565b600080fd5b600080fd5b600073ffffffffffffffffffffffffffffffffffffffff82169050919050565b6000620002a18262000274565b9050919050565b620002b38162000294565b8114620002bf57600080fd5b50565b600081519050620002d381620002a8565b92915050565b600080fd5b600080fd5b6000601f19601f8301169050919050565b7f4e487b7100000000000000000000000000000000000000000000000000000000600052604160045260246000fd5b6200032e82620002e3565b810181811067ffffffffffffffff8211171562000350576200034f620002f4565b5b80604052505050565b60006200036562000260565b905062000373828262000323565b919050565b600067ffffffffffffffff821115620003965762000395620002f4565b5b620003a182620002e3565b9050602081019050919050565b60005b83811015620003ce578082015181840152602081019050620003b1565b83811115620003de576000848401525b50505050565b6000620003fb620003f58462000378565b62000359565b9050828152602081018484840111156200041a5762000419620002de565b5b62000427848285620003ae565b509392505050565b600082601f830112620004475762000446620002d9565b5b815162000459848260208601620003e4565b91505092915050565b600080604083850312156200047c576200047b6200026a565b5b60006200048c85828601620002c2565b925050602083015167ffffffffffffffff811115620004b057620004af6200026f565b5b620004be858286016200042f565b9150509250929050565b7f4e487b7100000000000000000000000000000000000000000000000000000000600052602260045260246000fd5b600060028204905060018216806200051057607f821691505b60208210811415620005275762000526620004c8565b5b50919050565b613b96806200053d6000396000f3fe6080604052600436106101355760003560e01c8063971d852f116100ab578063cd61f34c1161006f578063cd61f34c1461039d578063d4e93292146103b4578063d96a094a146103cb578063e4c4be58146103e7578063e796a6eb146103fe578063f2fde38b1461042757610135565b8063971d852f146102ca5780639b27c10f146102f3578063a18bf1e91461031c578063a3eb6e5b14610347578063b37d61f81461037257610135565b806356bb54a7116100fd57806356bb54a7146101da5780635c975abb146101f157806368db764a1461021c578063715018a6146102475780638392fe311461025e5780638da5cb5b1461029f57610135565b806306fdde031461013a578063143e6199146101655780631536e6741461017c5780631833b7c61461018657806319d40b08146101af575b600080fd5b34801561014657600080fd5b5061014f610450565b60405161015c9190612ad4565b60405180910390f35b34801561017157600080fd5b5061017a6104de565b005b6101846105e1565b005b34801561019257600080fd5b506101ad60048036038101906101a89190612b59565b6107a0565b005b3480156101bb57600080fd5b506101c461092b565b6040516101d19190612ba1565b60405180910390f35b3480156101e657600080fd5b506101ef61093e565b005b3480156101fd57600080fd5b506102066109ee565b6040516102139190612ba1565b60405180910390f35b34801561022857600080fd5b50610231610a01565b60405161023e9190612bd5565b60405180910390f35b34801561025357600080fd5b5061025c610b32565b005b34801561026a57600080fd5b5061028560048036038101906102809190612c1c565b610b46565b604051610296959493929190612c49565b60405180910390f35b3480156102ab57600080fd5b506102b4610b7c565b6040516102c19190612cbd565b60405180910390f35b3480156102d657600080fd5b506102f160048036038101906102ec9190612c1c565b610ba5565b005b3480156102ff57600080fd5b5061031a60048036038101906103159190612cd8565b610eb5565b005b34801561032857600080fd5b50610331611100565b60405161033e9190612cbd565b60405180910390f35b34801561035357600080fd5b5061035c611271565b6040516103699190612cbd565b60405180910390f35b34801561037e57600080fd5b50610387611304565b6040516103949190612bd5565b60405180910390f35b3480156103a957600080fd5b506103b2611435565b005b3480156103c057600080fd5b506103c9611539565b005b6103e560048036038101906103e09190612c1c565b61180c565b005b3480156103f357600080fd5b506103fc611b3c565b005b34801561040a57600080fd5b5061042560048036038101906104209190612d2b565b611bed565b005b34801561043357600080fd5b5061044e60048036038101906104499190612daa565b6121d7565b005b6003805461045d90612e06565b80601f016020809104026020016040519081016040528092919081815260200182805461048990612e06565b80156104d65780601f106104ab576101008083540402835291602001916104d6565b820191906000526020600020905b8154815290600101906020018083116104b957829003601f168201915b505050505081565b6104e661225b565b60018060146101000a81548160ff0219169083151502179055506105976040518060400160405280600981526020017f4d65726368616e74200000000000000000000000000000000000000000000000815250600260009054906101000a900473ffffffffffffffffffffffffffffffffffffffff166040518060400160405280600d81526020017f20697320617070726f76656421000000000000000000000000000000000000008152506122d9565b7fbbefd2748bf3df11d4780ac73713fdbf70aa738d1f39988c1c02b7ce7e9b18da30600160149054906101000a900460ff166040516105d7929190612e38565b60405180910390a1565b600260009054906101000a900473ffffffffffffffffffffffffffffffffffffffff1673ffffffffffffffffffffffffffffffffffffffff163373ffffffffffffffffffffffffffffffffffffffff1614610671576040517f08c379a000000000000000000000000000000000000000000000000000000000815260040161066890612ed3565b60405180910390fd5b60011515600160149054906101000a900460ff161515146106c7576040517f08c379a00000000000000000000000000000000000000000000000000000000081526004016106be90612f3f565b60405180910390fd5b600034141561070b576040517f08c379a000000000000000000000000000000000000000000000000000000000815260040161070290612fab565b60405180910390fd5b346005600082825461071d9190612ffa565b925050819055506107656040518060400160405280600981526020017f42616c616e63653a200000000000000000000000000000000000000000000000815250600554612378565b7f4ee35957461b3fd4f97e9fa8f1562099a40403bdcb8a85ca136771f469a3552c3034604051610796929190613050565b60405180910390a1565b600260009054906101000a900473ffffffffffffffffffffffffffffffffffffffff1673ffffffffffffffffffffffffffffffffffffffff163373ffffffffffffffffffffffffffffffffffffffff1614610830576040517f08c379a000000000000000000000000000000000000000000000000000000000815260040161082790612ed3565b60405180910390fd5b60011515600160149054906101000a900460ff16151514610886576040517f08c379a000000000000000000000000000000000000000000000000000000000815260040161087d90612f3f565b60405180910390fd5b80600260006101000a81548173ffffffffffffffffffffffffffffffffffffffff021916908373ffffffffffffffffffffffffffffffffffffffff1602179055506109286040518060400160405280601381526020017f4d79206e657720616464726573732069733a2000000000000000000000000000815250600260009054906101000a900473ffffffffffffffffffffffffffffffffffffffff16612414565b50565b600160149054906101000a900460ff1681565b61094661225b565b60018060156101000a81548160ff0219169083151502179055506109a4600260009054906101000a900473ffffffffffffffffffffffffffffffffffffffff16604051806060016040528060258152602001613b3c602591396124b0565b7febc82356aaaf865811d770ad9745f6e986872a120f623cecf3a04828850d76ac30600160159054906101000a900460ff166040516109e4929190612e38565b60405180910390a1565b600160159054906101000a900460ff1681565b6000600260009054906101000a900473ffffffffffffffffffffffffffffffffffffffff1673ffffffffffffffffffffffffffffffffffffffff163373ffffffffffffffffffffffffffffffffffffffff1614610a93576040517f08c379a0000000000000000000000000000000000000000000000000000000008152600401610a8a90612ed3565b60405180910390fd5b60011515600160149054906101000a900460ff16151514610ae9576040517f08c379a0000000000000000000000000000000000000000000000000000000008152600401610ae090612f3f565b60405180910390fd5b610b2a6040518060400160405280601181526020017f4d7920457363726f77416d6f756e743a20000000000000000000000000000000815250600454612378565b600454905090565b610b3a61225b565b610b44600061254c565b565b60066020528060005260406000206000915090508060000154908060010154908060020154908060030154908060040154905085565b60008060009054906101000a900473ffffffffffffffffffffffffffffffffffffffff16905090565b600260009054906101000a900473ffffffffffffffffffffffffffffffffffffffff1673ffffffffffffffffffffffffffffffffffffffff163373ffffffffffffffffffffffffffffffffffffffff1614610c35576040517f08c379a0000000000000000000000000000000000000000000000000000000008152600401610c2c90612ed3565b60405180910390fd5b60011515600160149054906101000a900460ff16151514610c8b576040517f08c379a0000000000000000000000000000000000000000000000000000000008152600401610c8290612f3f565b60405180910390fd5b42600660008381526020019081526020016000206000015410610ce3576040517f08c379a0000000000000000000000000000000000000000000000000000000008152600401610cda906130eb565b60405180910390fd5b600660008281526020019081526020016000206001015460046000828254610d0b919061310b565b925050819055506006600082815260200190815260200160002060010154600660008381526020019081526020016000206003016000828254610d4e919061310b565b92505081905550600660008281526020019081526020016000206001015460056000828254610d7d9190612ffa565b92505081905550610df96040518060400160405280600e81526020017f5075636861736520772f20696420000000000000000000000000000000000000815250826040518060400160405280600f81526020017f2077617320636f6d706c65746564210000000000000000000000000000000000815250612610565b610e3a6040518060400160405280601381526020017f546f74616c457363726f77416d6f756e743a2000000000000000000000000000815250600454612378565b610e7b6040518060400160405280600981526020017f42616c616e63653a200000000000000000000000000000000000000000000000815250600554612378565b7faaaf03c480f43393f2414d5013b316f6cc36576bed29ae1ea15d8936dcc0d5e781604051610eaa9190612bd5565b60405180910390a150565b600260009054906101000a900473ffffffffffffffffffffffffffffffffffffffff1673ffffffffffffffffffffffffffffffffffffffff163373ffffffffffffffffffffffffffffffffffffffff1614610f45576040517f08c379a0000000000000000000000000000000000000000000000000000000008152600401610f3c90612ed3565b60405180910390fd5b60011515600160149054906101000a900460ff16151514610f9b576040517f08c379a0000000000000000000000000000000000000000000000000000000008152600401610f9290612f3f565b60405180910390fd5b6040518060a0016040528042815260200183815260200160018152602001600081526020018281525060066000858152602001908152602001600020600082015181600001556020820151816001015560408201518160020155606082015181600301556080820151816004015590505061104b6040518060400160405280600e81526020017f5075636861736520772f2069642000000000000000000000000000000000000081525084612378565b6110c06040518060400160405280600c81526020017f20616e6420616d6f756e74200000000000000000000000000000000000000000815250836040518060400160405280600d81526020017f2077617320637265617465642100000000000000000000000000000000000000815250612610565b7fb505b090182fd7beb3c70cb69467e3b025bf377859f8bebbdaa1afeacde07e0a4283836040516110f39392919061313f565b60405180910390a1505050565b6000600260009054906101000a900473ffffffffffffffffffffffffffffffffffffffff1673ffffffffffffffffffffffffffffffffffffffff163373ffffffffffffffffffffffffffffffffffffffff1614611192576040517f08c379a000000000000000000000000000000000000000000000000000000000815260040161118990612ed3565b60405180910390fd5b60011515600160149054906101000a900460ff161515146111e8576040517f08c379a00000000000000000000000000000000000000000000000000000000081526004016111df90612f3f565b60405180910390fd5b6112496040518060400160405280600f81526020017f4d7920616464726573732069733a200000000000000000000000000000000000815250600260009054906101000a900473ffffffffffffffffffffffffffffffffffffffff16612414565b600260009054906101000a900473ffffffffffffffffffffffffffffffffffffffff16905090565b600061127b61225b565b6112dc6040518060400160405280601281526020017f4d65726368616e7420416464726573733a200000000000000000000000000000815250600260009054906101000a900473ffffffffffffffffffffffffffffffffffffffff16612414565b600260009054906101000a900473ffffffffffffffffffffffffffffffffffffffff16905090565b6000600260009054906101000a900473ffffffffffffffffffffffffffffffffffffffff1673ffffffffffffffffffffffffffffffffffffffff163373ffffffffffffffffffffffffffffffffffffffff1614611396576040517f08c379a000000000000000000000000000000000000000000000000000000000815260040161138d90612ed3565b60405180910390fd5b60011515600160149054906101000a900460ff161515146113ec576040517f08c379a00000000000000000000000000000000000000000000000000000000081526004016113e390612f3f565b60405180910390fd5b61142d6040518060400160405280600c81526020017f4d792042616c616e63653a200000000000000000000000000000000000000000815250600554612378565b600554905090565b61143d61225b565b6000600160146101000a81548160ff0219169083151502179055506114ef6040518060400160405280600981526020017f4d65726368616e74200000000000000000000000000000000000000000000000815250600260009054906101000a900473ffffffffffffffffffffffffffffffffffffffff166040518060400160405280601081526020017f20697320646973617070726f76656421000000000000000000000000000000008152506122d9565b7fbbefd2748bf3df11d4780ac73713fdbf70aa738d1f39988c1c02b7ce7e9b18da30600160149054906101000a900460ff1660405161152f929190612e38565b60405180910390a1565b600260009054906101000a900473ffffffffffffffffffffffffffffffffffffffff1673ffffffffffffffffffffffffffffffffffffffff163373ffffffffffffffffffffffffffffffffffffffff16146115c9576040517f08c379a00000000000000000000000000000000000000000000000000000000081526004016115c090612ed3565b60405180910390fd5b60001515600160159054906101000a900460ff1615151461161f576040517f08c379a0000000000000000000000000000000000000000000000000000000008152600401611616906131c2565b60405180910390fd5b60011515600160149054906101000a900460ff16151514611675576040517f08c379a000000000000000000000000000000000000000000000000000000000815260040161166c90612f3f565b60405180910390fd5b6000600554116116ba576040517f08c379a00000000000000000000000000000000000000000000000000000000081526004016116b190613254565b60405180910390fd5b600260009054906101000a900473ffffffffffffffffffffffffffffffffffffffff1673ffffffffffffffffffffffffffffffffffffffff166108fc6005549081150290604051600060405180830381858888f19350505050158015611724573d6000803e3d6000fd5b506117866040518060400160405280600981526020017f416464726573733a200000000000000000000000000000000000000000000000815250600260009054906101000a900473ffffffffffffffffffffffffffffffffffffffff16612414565b6117c76040518060400160405280600e81526020017f42616c616e63652053656e743a20000000000000000000000000000000000000815250600554612378565b7f7fcf532c15f0a6db0bd6d0e038bea71d30d808c7d98cb3bf7268a95bf5081b65306005546040516117fa929190613050565b60405180910390a16000600581905550565b60011515600160149054906101000a900460ff16151514611862576040517f08c379a000000000000000000000000000000000000000000000000000000000815260040161185990612f3f565b60405180910390fd5b60003414156118a6576040517f08c379a000000000000000000000000000000000000000000000000000000000815260040161189d90612fab565b60405180910390fd5b600060066000838152602001908152602001600020600201541415611900576040517f08c379a00000000000000000000000000000000000000000000000000000000081526004016118f7906132c0565b60405180910390fd5b60026006600083815260200190815260200160002060020154141561195a576040517f08c379a000000000000000000000000000000000000000000000000000000000815260040161195190613352565b60405180910390fd5b6003600660008381526020019081526020016000206002015414156119b4576040517f08c379a00000000000000000000000000000000000000000000000000000000081526004016119ab906133e4565b60405180910390fd5b60066000828152602001908152602001600020600101543414611a0c576040517f08c379a0000000000000000000000000000000000000000000000000000000008152600401611a0390613450565b60405180910390fd5b3460046000828254611a1e9190612ffa565b92505081905550611a666040518060400160405280601381526020017f546f74616c457363726f77416d6f756e743a2000000000000000000000000000815250600454612378565b600660008281526020019081526020016000206004015442611a889190612ffa565b600660008381526020019081526020016000206000018190555060026006600083815260200190815260200160002060020181905550346006600083815260200190815260200160002060030181905550611ae43360006126af565b7ff7af8fb316f3a41b7db460c51be9f487d7f75844a791ee49f15d5a00063ed263816006600084815260200190815260200160002060000154333034604051611b31959493929190613470565b60405180910390a150565b611b4461225b565b6000600160156101000a81548160ff021916908315150217905550611ba3600260009054906101000a900473ffffffffffffffffffffffffffffffffffffffff16604051806060016040528060278152602001613b15602791396124b0565b7febc82356aaaf865811d770ad9745f6e986872a120f623cecf3a04828850d76ac30600160159054906101000a900460ff16604051611be3929190612e38565b60405180910390a1565b600260009054906101000a900473ffffffffffffffffffffffffffffffffffffffff1673ffffffffffffffffffffffffffffffffffffffff163373ffffffffffffffffffffffffffffffffffffffff1614611c7d576040517f08c379a0000000000000000000000000000000000000000000000000000000008152600401611c7490612ed3565b60405180910390fd5b60001515600160159054906101000a900460ff16151514611cd3576040517f08c379a0000000000000000000000000000000000000000000000000000000008152600401611cca906131c2565b60405180910390fd5b60011515600160149054906101000a900460ff16151514611d29576040517f08c379a0000000000000000000000000000000000000000000000000000000008152600401611d2090612f3f565b60405180910390fd5b60008111611d6c576040517f08c379a0000000000000000000000000000000000000000000000000000000008152600401611d6390613535565b60405180910390fd5b6006600084815260200190815260200160002060010154811115611dc5576040517f08c379a0000000000000000000000000000000000000000000000000000000008152600401611dbc906135c7565b60405180910390fd5b600060066000858152602001908152602001600020600201541415611e1f576040517f08c379a0000000000000000000000000000000000000000000000000000000008152600401611e16906132c0565b60405180910390fd5b600160066000858152602001908152602001600020600201541415611e79576040517f08c379a0000000000000000000000000000000000000000000000000000000008152600401611e7090613659565b60405180910390fd5b600360066000858152602001908152602001600020600201541415611ed3576040517f08c379a0000000000000000000000000000000000000000000000000000000008152600401611eca906136eb565b60405180910390fd5b80600554600454611ee49190612ffa565b1015611f25576040517f08c379a0000000000000000000000000000000000000000000000000000000008152600401611f1c9061377d565b60405180910390fd5b80600660008581526020019081526020016000206003015410611fcb5780600660008581526020019081526020016000206003016000828254611f68919061310b565b925050819055508060046000828254611f81919061310b565b92505081905550611fc66040518060400160405280601581526020017f457363726f77416d6f756e742075706461746564210000000000000000000000815250612971565b61206c565b8060055410612030578060056000828254611fe6919061310b565b9250508190555061202b6040518060400160405280601081526020017f42616c616e636520757064617465642100000000000000000000000000000000815250612971565b61206b565b6040517f08c379a00000000000000000000000000000000000000000000000000000000081526004016120629061380f565b60405180910390fd5b5b8173ffffffffffffffffffffffffffffffffffffffff166108fc829081150290604051600060405180830381858888f193505050501580156120b2573d6000803e3d6000fd5b50600360066000858152602001908152602001600020600201819055506120da8260016126af565b6121196040518060400160405280600c81526020017f696450757263686173653a20000000000000000000000000000000000000000081525084612378565b6121586040518060400160405280600981526020017f416464726573733a20000000000000000000000000000000000000000000000081525083612414565b6121976040518060400160405280600e81526020017f526566756e64416d6f756e743a2000000000000000000000000000000000000081525082612378565b7ff40cc8c1a1d17359049ba500cfc894596a692cffc9d03943cd92ec2e159cf6ae3083836040516121ca9392919061388e565b60405180910390a1505050565b6121df61225b565b600073ffffffffffffffffffffffffffffffffffffffff168173ffffffffffffffffffffffffffffffffffffffff16141561224f576040517f08c379a000000000000000000000000000000000000000000000000000000000815260040161224690613937565b60405180910390fd5b6122588161254c565b50565b612263612a0a565b73ffffffffffffffffffffffffffffffffffffffff16612281610b7c565b73ffffffffffffffffffffffffffffffffffffffff16146122d7576040517f08c379a00000000000000000000000000000000000000000000000000000000081526004016122ce906139a3565b60405180910390fd5b565b6123738383836040516024016122f1939291906139c3565b6040516020818303038152906040527fe0e9ad4f000000000000000000000000000000000000000000000000000000007bffffffffffffffffffffffffffffffffffffffffffffffffffffffff19166020820180517bffffffffffffffffffffffffffffffffffffffffffffffffffffffff8381831617835250505050612a12565b505050565b612410828260405160240161238e929190613a08565b6040516020818303038152906040527f9710a9d0000000000000000000000000000000000000000000000000000000007bffffffffffffffffffffffffffffffffffffffffffffffffffffffff19166020820180517bffffffffffffffffffffffffffffffffffffffffffffffffffffffff8381831617835250505050612a12565b5050565b6124ac828260405160240161242a929190613a38565b6040516020818303038152906040527f319af333000000000000000000000000000000000000000000000000000000007bffffffffffffffffffffffffffffffffffffffffffffffffffffffff19166020820180517bffffffffffffffffffffffffffffffffffffffffffffffffffffffff8381831617835250505050612a12565b5050565b61254882826040516024016124c6929190613a68565b6040516020818303038152906040527f759f86bb000000000000000000000000000000000000000000000000000000007bffffffffffffffffffffffffffffffffffffffffffffffffffffffff19166020820180517bffffffffffffffffffffffffffffffffffffffffffffffffffffffff8381831617835250505050612a12565b5050565b60008060009054906101000a900473ffffffffffffffffffffffffffffffffffffffff169050816000806101000a81548173ffffffffffffffffffffffffffffffffffffffff021916908373ffffffffffffffffffffffffffffffffffffffff1602179055508173ffffffffffffffffffffffffffffffffffffffff168173ffffffffffffffffffffffffffffffffffffffff167f8be0079c531659141344cd1fd0a4f28419497f9722a3daafe3b4186f6b6457e060405160405180910390a35050565b6126aa83838360405160240161262893929190613a98565b6040516020818303038152906040527fa3f5c739000000000000000000000000000000000000000000000000000000007bffffffffffffffffffffffffffffffffffffffffffffffffffffffff19166020820180517bffffffffffffffffffffffffffffffffffffffffffffffffffffffff8381831617835250505050612a12565b505050565b600081141561279357600160076000600260009054906101000a900473ffffffffffffffffffffffffffffffffffffffff1673ffffffffffffffffffffffffffffffffffffffff1673ffffffffffffffffffffffffffffffffffffffff168152602001908152602001600020600001600082825461272d9190612ffa565b925050819055506001600860008473ffffffffffffffffffffffffffffffffffffffff1673ffffffffffffffffffffffffffffffffffffffff16815260200190815260200160002060000160008282546127879190612ffa565b9250508190555061286a565b600160076000600260009054906101000a900473ffffffffffffffffffffffffffffffffffffffff1673ffffffffffffffffffffffffffffffffffffffff1673ffffffffffffffffffffffffffffffffffffffff16815260200190815260200160002060010160008282546128089190612ffa565b925050819055506001600860008473ffffffffffffffffffffffffffffffffffffffff1673ffffffffffffffffffffffffffffffffffffffff16815260200190815260200160002060010160008282546128629190612ffa565b925050819055505b7ffec773402b469d925a189c9c910ae3efc5776194b342a24b4b88d026d45a01283060076000600260009054906101000a900473ffffffffffffffffffffffffffffffffffffffff1673ffffffffffffffffffffffffffffffffffffffff1673ffffffffffffffffffffffffffffffffffffffff1681526020019081526020016000206000015460076000600260009054906101000a900473ffffffffffffffffffffffffffffffffffffffff1673ffffffffffffffffffffffffffffffffffffffff1673ffffffffffffffffffffffffffffffffffffffff1681526020019081526020016000206001015460405161296593929190613add565b60405180910390a15050565b612a07816040516024016129859190612ad4565b6040516020818303038152906040527f41304fac000000000000000000000000000000000000000000000000000000007bffffffffffffffffffffffffffffffffffffffffffffffffffffffff19166020820180517bffffffffffffffffffffffffffffffffffffffffffffffffffffffff8381831617835250505050612a12565b50565b600033905090565b60008151905060006a636f6e736f6c652e6c6f679050602083016000808483855afa5050505050565b600081519050919050565b600082825260208201905092915050565b60005b83811015612a75578082015181840152602081019050612a5a565b83811115612a84576000848401525b50505050565b6000601f19601f8301169050919050565b6000612aa682612a3b565b612ab08185612a46565b9350612ac0818560208601612a57565b612ac981612a8a565b840191505092915050565b60006020820190508181036000830152612aee8184612a9b565b905092915050565b600080fd5b600073ffffffffffffffffffffffffffffffffffffffff82169050919050565b6000612b2682612afb565b9050919050565b612b3681612b1b565b8114612b4157600080fd5b50565b600081359050612b5381612b2d565b92915050565b600060208284031215612b6f57612b6e612af6565b5b6000612b7d84828501612b44565b91505092915050565b60008115159050919050565b612b9b81612b86565b82525050565b6000602082019050612bb66000830184612b92565b92915050565b6000819050919050565b612bcf81612bbc565b82525050565b6000602082019050612bea6000830184612bc6565b92915050565b612bf981612bbc565b8114612c0457600080fd5b50565b600081359050612c1681612bf0565b92915050565b600060208284031215612c3257612c31612af6565b5b6000612c4084828501612c07565b91505092915050565b600060a082019050612c5e6000830188612bc6565b612c6b6020830187612bc6565b612c786040830186612bc6565b612c856060830185612bc6565b612c926080830184612bc6565b9695505050505050565b6000612ca782612afb565b9050919050565b612cb781612c9c565b82525050565b6000602082019050612cd26000830184612cae565b92915050565b600080600060608486031215612cf157612cf0612af6565b5b6000612cff86828701612c07565b9350506020612d1086828701612c07565b9250506040612d2186828701612c07565b9150509250925092565b600080600060608486031215612d4457612d43612af6565b5b6000612d5286828701612c07565b9350506020612d6386828701612b44565b9250506040612d7486828701612c07565b9150509250925092565b612d8781612c9c565b8114612d9257600080fd5b50565b600081359050612da481612d7e565b92915050565b600060208284031215612dc057612dbf612af6565b5b6000612dce84828501612d95565b91505092915050565b7f4e487b7100000000000000000000000000000000000000000000000000000000600052602260045260246000fd5b60006002820490506001821680612e1e57607f821691505b60208210811415612e3257612e31612dd7565b5b50919050565b6000604082019050612e4d6000830185612cae565b612e5a6020830184612b92565b9392505050565b7f4f6e6c79204d65726368616e742063616e2063616c6c20746869732066756e6360008201527f74696f6e00000000000000000000000000000000000000000000000000000000602082015250565b6000612ebd602483612a46565b9150612ec882612e61565b604082019050919050565b60006020820190508181036000830152612eec81612eb0565b9050919050565b7f4d65726368616e74206e6f7420617070726f7665642100000000000000000000600082015250565b6000612f29601683612a46565b9150612f3482612ef3565b602082019050919050565b60006020820190508181036000830152612f5881612f1c565b9050919050565b7f416d6f756e742073686f756c642062652067726561746572207468616e203021600082015250565b6000612f95602083612a46565b9150612fa082612f5f565b602082019050919050565b60006020820190508181036000830152612fc481612f88565b9050919050565b7f4e487b7100000000000000000000000000000000000000000000000000000000600052601160045260246000fd5b600061300582612bbc565b915061301083612bbc565b9250827fffffffffffffffffffffffffffffffffffffffffffffffffffffffffffffffff0382111561304557613044612fcb565b5b828201905092915050565b60006040820190506130656000830185612cae565b6130726020830184612bc6565b9392505050565b7f54686520657363726f772074696d65206f66207468697320707572636861736560008201527f2069736e2774206f766572207965742100000000000000000000000000000000602082015250565b60006130d5603083612a46565b91506130e082613079565b604082019050919050565b60006020820190508181036000830152613104816130c8565b9050919050565b600061311682612bbc565b915061312183612bbc565b92508282101561313457613133612fcb565b5b828203905092915050565b60006060820190506131546000830186612bc6565b6131616020830185612bc6565b61316e6040830184612bc6565b949350505050565b7f5769746864726177616c73206172652070617573656421000000000000000000600082015250565b60006131ac601783612a46565b91506131b782613176565b602082019050919050565b600060208201905081810360008301526131db8161319f565b9050919050565b7f42616c616e63652073686f756c642062652067726561746572207468616e203060008201527f2121000000000000000000000000000000000000000000000000000000000000602082015250565b600061323e602283612a46565b9150613249826131e2565b604082019050919050565b6000602082019050818103600083015261326d81613231565b9050919050565b7f54686520707572636861736520646f65736e2774206578697374210000000000600082015250565b60006132aa601b83612a46565b91506132b582613274565b602082019050919050565b600060208201905081810360008301526132d98161329d565b9050919050565b7f5468652070757263686173652068617320616c7265616479206265656e20706160008201527f6964210000000000000000000000000000000000000000000000000000000000602082015250565b600061333c602383612a46565b9150613347826132e0565b604082019050919050565b6000602082019050818103600083015261336b8161332f565b9050919050565b7f5468652070757263686173652068617320616c7265616479206265656e20726560008201527f66756e6465642100000000000000000000000000000000000000000000000000602082015250565b60006133ce602783612a46565b91506133d982613372565b604082019050919050565b600060208201905081810360008301526133fd816133c1565b9050919050565b7f57726f6e6720616d6f756e742100000000000000000000000000000000000000600082015250565b600061343a600d83612a46565b915061344582613404565b602082019050919050565b600060208201905081810360008301526134698161342d565b9050919050565b600060a0820190506134856000830188612bc6565b6134926020830187612bc6565b61349f6040830186612cae565b6134ac6060830185612cae565b6134b96080830184612bc6565b9695505050505050565b7f526566756e6420616d6f756e742073686f756c6420626520677265617465722060008201527f7468616e20302121000000000000000000000000000000000000000000000000602082015250565b600061351f602883612a46565b915061352a826134c3565b604082019050919050565b6000602082019050818103600083015261354e81613512565b9050919050565b7f526566756e6420616d6f756e742073686f756c646e277420626520677265617460008201527f6572207468616e20746865207075726368617365416d6f756e74210000000000602082015250565b60006135b1603b83612a46565b91506135bc82613555565b604082019050919050565b600060208201905081810360008301526135e0816135a4565b9050919050565b7f54686174207075726368617365206861736e277420796574206265656e20706160008201527f6964210000000000000000000000000000000000000000000000000000000000602082015250565b6000613643602383612a46565b915061364e826135e7565b604082019050919050565b6000602082019050818103600083015261367281613636565b9050919050565b7f546861742070757263686173652068617320616c7265616479206265656e207260008201527f6566756e64656421000000000000000000000000000000000000000000000000602082015250565b60006136d5602883612a46565b91506136e082613679565b604082019050919050565b60006020820190508181036000830152613704816136c8565b9050919050565b7f596f7520646f6e2774206861766520656e6f756768206d6f6e657920696e207460008201527f686520736d6172742d636f6e7472616374210000000000000000000000000000602082015250565b6000613767603283612a46565b91506137728261370b565b604082019050919050565b600060208201905081810360008301526137968161375a565b9050919050565b7f4572726f722070726f63657373696e6720726566756e642c20636865636b207960008201527f6f757220736d6172742d636f6e74726163742062616c616e6365210000000000602082015250565b60006137f9603b83612a46565b91506138048261379d565b604082019050919050565b60006020820190508181036000830152613828816137ec565b9050919050565b6000819050919050565b600061385461384f61384a84612afb565b61382f565b612afb565b9050919050565b600061386682613839565b9050919050565b60006138788261385b565b9050919050565b6138888161386d565b82525050565b60006060820190506138a36000830186612cae565b6138b0602083018561387f565b6138bd6040830184612bc6565b949350505050565b7f4f776e61626c653a206e6577206f776e657220697320746865207a65726f206160008201527f6464726573730000000000000000000000000000000000000000000000000000602082015250565b6000613921602683612a46565b915061392c826138c5565b604082019050919050565b6000602082019050818103600083015261395081613914565b9050919050565b7f4f776e61626c653a2063616c6c6572206973206e6f7420746865206f776e6572600082015250565b600061398d602083612a46565b915061399882613957565b602082019050919050565b600060208201905081810360008301526139bc81613980565b9050919050565b600060608201905081810360008301526139dd8186612a9b565b90506139ec6020830185612cae565b81810360408301526139fe8184612a9b565b9050949350505050565b60006040820190508181036000830152613a228185612a9b565b9050613a316020830184612bc6565b9392505050565b60006040820190508181036000830152613a528185612a9b565b9050613a616020830184612cae565b9392505050565b6000604082019050613a7d6000830185612cae565b8181036020830152613a8f8184612a9b565b90509392505050565b60006060820190508181036000830152613ab28186612a9b565b9050613ac16020830185612bc6565b8181036040830152613ad38184612a9b565b9050949350505050565b6000606082019050613af26000830186612cae565b613aff6020830185612bc6565b613b0c6040830184612bc6565b94935050505056fe202d2d3e204d65726368616e74207769746864726177616c732061726520756e70617573656421202d2d3e204d65726368616e74207769746864726177616c73206172652070617573656421a26469706673582212207496b054698c446f42e335f5f1103980966b34220f8af8b623c78e05937d5f9e64736f6c63430008090033a264697066735822122063d229059272eb3fa3bc7c441c43c15970fb20824afd05faf649e431d5b6d3b164736f6c63430008090033",
  "linkReferences": {},
  "deployedLinkReferences": {}
}