{
  "_format": "hh-sol-artifact-1",
  "contractName": "MainContract",
  "sourceName": "contracts/mainContract.sol",
  "abi": [
    {
      "inputs": [],
      "stateMutability": "nonpayable",
      "type": "constructor"
    },
    {
      "anonymous": false,
      "inputs": [
        {
          "indexed": false,
          "internalType": "contract MerchantContract",
          "name": "contractInstance",
          "type": "address"
        }
      ],
      "name": "ApproveMerchantContract",
      "type": "event"
    },
    {
      "anonymous": false,
      "inputs": [
        {
          "indexed": false,
          "internalType": "contract MerchantContract",
          "name": "contractInstance",
          "type": "address"
        },
        {
          "indexed": false,
          "internalType": "uint256",
          "name": "idPurchase",
          "type": "uint256"
        },
        {
          "indexed": false,
          "internalType": "uint256",
          "name": "cancelTime",
          "type": "uint256"
        },
        {
          "indexed": false,
          "internalType": "uint256",
          "name": "completeTime",
          "type": "uint256"
        },
        {
          "indexed": false,
          "internalType": "address",
          "name": "buyerAddress",
          "type": "address"
        },
        {
          "indexed": false,
          "internalType": "uint256",
          "name": "purchaseAmount",
          "type": "uint256"
        }
      ],
      "name": "Buy",
      "type": "event"
    },
    {
      "anonymous": false,
      "inputs": [
        {
          "indexed": false,
          "internalType": "contract MerchantContract",
          "name": "contractInstance",
          "type": "address"
        },
        {
          "indexed": false,
          "internalType": "address",
          "name": "buyerAddress",
          "type": "address"
        },
        {
          "indexed": false,
          "internalType": "uint256",
          "name": "idPurchase",
          "type": "uint256"
        }
      ],
      "name": "Cancel",
      "type": "event"
    },
    {
      "anonymous": false,
      "inputs": [
        {
          "indexed": false,
          "internalType": "contract MerchantContract",
          "name": "contractInstance",
          "type": "address"
        },
        {
          "indexed": false,
          "internalType": "uint256",
          "name": "idPurchase",
          "type": "uint256"
        }
      ],
      "name": "Complete",
      "type": "event"
    },
    {
      "anonymous": false,
      "inputs": [
        {
          "indexed": false,
          "internalType": "contract MerchantContract",
          "name": "contractInstance",
          "type": "address"
        },
        {
          "indexed": false,
          "internalType": "address",
          "name": "merchantAddress",
          "type": "address"
        },
        {
          "indexed": false,
          "internalType": "string",
          "name": "merchantName",
          "type": "string"
        }
      ],
      "name": "CreateMerchantContract",
      "type": "event"
    },
    {
      "anonymous": false,
      "inputs": [
        {
          "indexed": false,
          "internalType": "contract MerchantContract",
          "name": "contractInstance",
          "type": "address"
        },
        {
          "indexed": false,
          "internalType": "uint256",
          "name": "idPurchase",
          "type": "uint256"
        },
        {
          "indexed": false,
          "internalType": "uint256",
          "name": "purchaseAmount",
          "type": "uint256"
        },
        {
          "indexed": false,
          "internalType": "uint256",
          "name": "cancelTime",
          "type": "uint256"
        },
        {
          "indexed": false,
          "internalType": "uint256",
          "name": "completeTime",
          "type": "uint256"
        }
      ],
      "name": "CreatePurchase",
      "type": "event"
    },
    {
      "anonymous": false,
      "inputs": [
        {
          "indexed": false,
          "internalType": "contract MerchantContract",
          "name": "contractInstance",
          "type": "address"
        },
        {
          "indexed": false,
          "internalType": "bool",
          "name": "paused",
          "type": "bool"
        }
      ],
      "name": "PauseMerchantContract",
      "type": "event"
    },
    {
      "anonymous": false,
      "inputs": [
        {
          "indexed": false,
          "internalType": "contract MerchantContract",
          "name": "contractInstance",
          "type": "address"
        },
        {
          "indexed": false,
          "internalType": "uint256",
          "name": "idPurchase",
          "type": "uint256"
        },
        {
          "indexed": false,
          "internalType": "address",
          "name": "buyerAddress",
          "type": "address"
        },
        {
          "indexed": false,
          "internalType": "uint256",
          "name": "refundAmount",
          "type": "uint256"
        }
      ],
      "name": "Refund",
      "type": "event"
    },
    {
      "anonymous": false,
      "inputs": [
        {
          "indexed": false,
          "internalType": "contract MerchantContract",
          "name": "contractInstance",
          "type": "address"
        },
        {
          "indexed": false,
          "internalType": "address",
          "name": "voter",
          "type": "address"
        }
      ],
      "name": "VoteNewMerchantContract",
      "type": "event"
    },
    {
      "anonymous": false,
      "inputs": [
        {
          "indexed": false,
          "internalType": "contract MerchantContract",
          "name": "contractInstance",
          "type": "address"
        },
        {
          "indexed": false,
          "internalType": "uint256",
          "name": "restBalance",
          "type": "uint256"
        }
      ],
      "name": "WithdrawRest",
      "type": "event"
    },
    {
      "anonymous": false,
      "inputs": [
        {
          "indexed": false,
          "internalType": "contract MerchantContract",
          "name": "contractInstance",
          "type": "address"
        },
        {
          "indexed": false,
          "internalType": "uint256",
          "name": "merchantBalance",
          "type": "uint256"
        }
      ],
      "name": "Withdrawal",
      "type": "event"
    },
    {
      "inputs": [
        {
          "internalType": "uint256",
          "name": "idPurchase",
          "type": "uint256"
        },
        {
          "internalType": "uint256",
          "name": "cancelTime",
          "type": "uint256"
        },
        {
          "internalType": "uint256",
          "name": "completeTime",
          "type": "uint256"
        },
        {
          "internalType": "address",
          "name": "buyerAddress",
          "type": "address"
        },
        {
          "internalType": "uint256",
          "name": "amount",
          "type": "uint256"
        }
      ],
      "name": "buy",
      "outputs": [],
      "stateMutability": "nonpayable",
      "type": "function"
    },
    {
      "inputs": [
        {
          "internalType": "address",
          "name": "buyerAddress",
          "type": "address"
        },
        {
          "internalType": "uint256",
          "name": "idPurchase",
          "type": "uint256"
        }
      ],
      "name": "cancel",
      "outputs": [],
      "stateMutability": "nonpayable",
      "type": "function"
    },
    {
      "inputs": [
        {
          "internalType": "uint256",
          "name": "idPurchase",
          "type": "uint256"
        }
      ],
      "name": "complete",
      "outputs": [],
      "stateMutability": "nonpayable",
      "type": "function"
    },
    {
      "inputs": [
        {
          "internalType": "address payable",
          "name": "merchantWalletAddress",
          "type": "address"
        },
        {
          "internalType": "string",
          "name": "merchantName",
          "type": "string"
        }
      ],
      "name": "createMerchantContract",
      "outputs": [],
      "stateMutability": "nonpayable",
      "type": "function"
    },
    {
      "inputs": [
        {
          "internalType": "uint256",
          "name": "idPurchase",
          "type": "uint256"
        },
        {
          "internalType": "uint256",
          "name": "amount",
          "type": "uint256"
        },
        {
          "internalType": "uint256",
          "name": "cancelTime",
          "type": "uint256"
        },
        {
          "internalType": "uint256",
          "name": "completeTime",
          "type": "uint256"
        }
      ],
      "name": "createPurchase",
      "outputs": [],
      "stateMutability": "nonpayable",
      "type": "function"
    },
    {
      "inputs": [
        {
          "internalType": "contract MerchantContract",
          "name": "contractInstance",
          "type": "address"
        }
      ],
      "name": "getNumberOfVotes",
      "outputs": [
        {
          "internalType": "uint256",
          "name": "",
          "type": "uint256"
        }
      ],
      "stateMutability": "view",
      "type": "function"
    },
    {
      "inputs": [
        {
          "internalType": "contract MerchantContract",
          "name": "contractInstance",
          "type": "address"
        }
      ],
      "name": "getStatusContract",
      "outputs": [
        {
          "internalType": "uint256",
          "name": "",
          "type": "uint256"
        }
      ],
      "stateMutability": "view",
      "type": "function"
    },
    {
      "inputs": [
        {
          "internalType": "contract MerchantContract",
          "name": "",
          "type": "address"
        }
      ],
      "name": "merchants",
      "outputs": [
        {
          "internalType": "uint256",
          "name": "status",
          "type": "uint256"
        },
        {
          "internalType": "uint256",
          "name": "votes",
          "type": "uint256"
        }
      ],
      "stateMutability": "view",
      "type": "function"
    },
    {
      "inputs": [],
      "name": "ownerAddress",
      "outputs": [
        {
          "internalType": "address",
          "name": "",
          "type": "address"
        }
      ],
      "stateMutability": "view",
      "type": "function"
    },
    {
      "inputs": [
        {
          "internalType": "contract MerchantContract",
          "name": "contractInstance",
          "type": "address"
        }
      ],
      "name": "pause",
      "outputs": [],
      "stateMutability": "nonpayable",
      "type": "function"
    },
    {
      "inputs": [
        {
          "internalType": "uint256",
          "name": "idPurchase",
          "type": "uint256"
        },
        {
          "internalType": "address",
          "name": "buyerAddress",
          "type": "address"
        },
        {
          "internalType": "uint256",
          "name": "amount",
          "type": "uint256"
        }
      ],
      "name": "refund",
      "outputs": [],
      "stateMutability": "nonpayable",
      "type": "function"
    },
    {
      "inputs": [],
      "name": "requiredNumberOfVotes",
      "outputs": [
        {
          "internalType": "uint256",
          "name": "",
          "type": "uint256"
        }
      ],
      "stateMutability": "view",
      "type": "function"
    },
    {
      "inputs": [
        {
          "internalType": "uint256",
          "name": "numberOfVotes",
          "type": "uint256"
        }
      ],
      "name": "setRequiredNumberOfVotes",
      "outputs": [],
      "stateMutability": "nonpayable",
      "type": "function"
    },
    {
      "inputs": [],
      "name": "transferRest",
      "outputs": [],
      "stateMutability": "nonpayable",
      "type": "function"
    },
    {
      "inputs": [
        {
          "internalType": "contract MerchantContract",
          "name": "contractInstance",
          "type": "address"
        }
      ],
      "name": "unpause",
      "outputs": [],
      "stateMutability": "nonpayable",
      "type": "function"
    },
    {
      "inputs": [
        {
          "internalType": "contract MerchantContract",
          "name": "contractInstance",
          "type": "address"
        }
      ],
      "name": "voteApproval",
      "outputs": [],
      "stateMutability": "nonpayable",
      "type": "function"
    },
    {
      "inputs": [
        {
          "internalType": "contract MerchantContract",
          "name": "contractInstance",
          "type": "address"
        }
      ],
      "name": "withdrawRest",
      "outputs": [],
      "stateMutability": "nonpayable",
      "type": "function"
    },
    {
      "inputs": [
        {
          "internalType": "uint256",
          "name": "amount",
          "type": "uint256"
        }
      ],
      "name": "withdrawal",
      "outputs": [],
      "stateMutability": "nonpayable",
      "type": "function"
    },
    {
      "stateMutability": "payable",
      "type": "receive"
    }
  ],
  "bytecode": "0x608060405234801561001057600080fd5b50336000806101000a81548173ffffffffffffffffffffffffffffffffffffffff021916908373ffffffffffffffffffffffffffffffffffffffff16021790555060026001819055506157bd806100686000396000f3fe608060405260043610620001275760003560e01c8063971d852f11620000a3578063cf0ee59c116200006d578063cf0ee59c1462000417578063e32bf8e41462000447578063e796a6eb1462000475578063ee14e93914620004a3578063f8db71b514620004e857620001b8565b8063971d852f146200035f57806398590ef9146200038d578063a4567ea514620003bb578063cdda4e8814620003e957620001b8565b8063644af9dd11620000f1578063644af9dd146200028b57806371cb435714620002a557806376a67a5114620002d3578063835fc6ca14620003015780638f84aa09146200032f57620001b8565b80630f8a1e2b14620001bd578063102d8c7914620001eb57806357b001f914620002195780635ee1ae81146200024757620001b8565b36620001b8573360028060008373ffffffffffffffffffffffffffffffffffffffff1673ffffffffffffffffffffffffffffffffffffffff1681526020019081526020016000206000015414620001b5576040517f08c379a0000000000000000000000000000000000000000000000000000000008152600401620001ac9062001bb7565b60405180910390fd5b50005b600080fd5b348015620001ca57600080fd5b50620001e96004803603810190620001e3919062001c28565b6200052c565b005b348015620001f857600080fd5b5062000217600480360381019062000211919062001cbf565b620005c7565b005b3480156200022657600080fd5b506200024560048036038101906200023f919062001d8c565b620006f6565b005b3480156200025457600080fd5b506200027360048036038101906200026d919062001d8c565b620008f9565b60405162000282919062001dcf565b60405180910390f35b3480156200029857600080fd5b50620002a362000a62565b005b348015620002b257600080fd5b50620002d16004803603810190620002cb919062001d8c565b62000ba9565b005b348015620002e057600080fd5b50620002ff6004803603810190620002f9919062001d8c565b62000d8a565b005b3480156200030e57600080fd5b506200032d600480360381019062000327919062001c28565b62000f8d565b005b3480156200033c57600080fd5b506200034762001054565b60405162000356919062001dfd565b60405180910390f35b3480156200036c57600080fd5b506200038b600480360381019062000385919062001c28565b62001078565b005b3480156200039a57600080fd5b50620003b96004803603810190620003b3919062001e1a565b6200113f565b005b348015620003c857600080fd5b50620003e76004803603810190620003e1919062002008565b62001265565b005b348015620003f657600080fd5b506200041560048036038101906200040f919062001d8c565b62001407565b005b3480156200042457600080fd5b506200042f6200166e565b6040516200043e919062001dcf565b60405180910390f35b3480156200045457600080fd5b506200047360048036038101906200046d91906200206e565b62001674565b005b3480156200048257600080fd5b50620004a160048036038101906200049b9190620020e0565b62001744565b005b348015620004b057600080fd5b50620004cf6004803603810190620004c9919062001d8c565b6200186d565b604051620004df9291906200213c565b60405180910390f35b348015620004f557600080fd5b506200051460048036038101906200050e919062001d8c565b62001891565b60405162000523919062001dcf565b60405180910390f35b60008054906101000a900473ffffffffffffffffffffffffffffffffffffffff1673ffffffffffffffffffffffffffffffffffffffff163373ffffffffffffffffffffffffffffffffffffffff1614620005bd576040517f08c379a0000000000000000000000000000000000000000000000000000000008152600401620005b490620021df565b60405180910390fd5b8060018190555050565b3360028060008373ffffffffffffffffffffffffffffffffffffffff1673ffffffffffffffffffffffffffffffffffffffff16815260200190815260200160002060000154146200064f576040517f08c379a0000000000000000000000000000000000000000000000000000000008152600401620006469062001bb7565b60405180910390fd5b6001600360008573ffffffffffffffffffffffffffffffffffffffff1673ffffffffffffffffffffffffffffffffffffffff1681526020019081526020016000206000016000828254620006a4919062002230565b925050819055507f94bb3021486c007fb1d9049f9b953a34685411fca29479f8ab27a1bb841e5ff6338787878787604051620006e696959493929190620022f8565b60405180910390a1505050505050565b60008054906101000a900473ffffffffffffffffffffffffffffffffffffffff1673ffffffffffffffffffffffffffffffffffffffff163373ffffffffffffffffffffffffffffffffffffffff161462000787576040517f08c379a00000000000000000000000000000000000000000000000000000000081526004016200077e90620021df565b60405180910390fd5b806003600260008373ffffffffffffffffffffffffffffffffffffffff1673ffffffffffffffffffffffffffffffffffffffff168152602001908152602001600020600001541462000810576040517f08c379a00000000000000000000000000000000000000000000000000000000081526004016200080790620023b5565b60405180910390fd5b8173ffffffffffffffffffffffffffffffffffffffff1663fd8159666040518163ffffffff1660e01b8152600401600060405180830381600087803b1580156200085957600080fd5b505af11580156200086e573d6000803e3d6000fd5b5050505060028060008473ffffffffffffffffffffffffffffffffffffffff1673ffffffffffffffffffffffffffffffffffffffff168152602001908152602001600020600001819055507fd5cfd6bdb26dd86b6fec69f92b5443f411788d6ae9b8985e3eef2d5a825afe30826000604051620008ed929190620023f4565b60405180910390a15050565b60008060009054906101000a900473ffffffffffffffffffffffffffffffffffffffff1673ffffffffffffffffffffffffffffffffffffffff163373ffffffffffffffffffffffffffffffffffffffff16146200098d576040517f08c379a00000000000000000000000000000000000000000000000000000000081526004016200098490620021df565b60405180910390fd5b816000600260008373ffffffffffffffffffffffffffffffffffffffff1673ffffffffffffffffffffffffffffffffffffffff16815260200190815260200160002060000154141562000a17576040517f08c379a000000000000000000000000000000000000000000000000000000000815260040162000a0e9062002471565b60405180910390fd5b600260008473ffffffffffffffffffffffffffffffffffffffff1673ffffffffffffffffffffffffffffffffffffffff16815260200190815260200160002060010154915050919050565b60008054906101000a900473ffffffffffffffffffffffffffffffffffffffff1673ffffffffffffffffffffffffffffffffffffffff163373ffffffffffffffffffffffffffffffffffffffff161462000af3576040517f08c379a000000000000000000000000000000000000000000000000000000000815260040162000aea90620021df565b60405180910390fd5b60004790506000811162000b3e576040517f08c379a000000000000000000000000000000000000000000000000000000000815260040162000b359062002509565b60405180910390fd5b60008054906101000a900473ffffffffffffffffffffffffffffffffffffffff1673ffffffffffffffffffffffffffffffffffffffff166108fc829081150290604051600060405180830381858888f1935050505015801562000ba5573d6000803e3d6000fd5b5050565b60008054906101000a900473ffffffffffffffffffffffffffffffffffffffff1673ffffffffffffffffffffffffffffffffffffffff163373ffffffffffffffffffffffffffffffffffffffff161462000c3a576040517f08c379a000000000000000000000000000000000000000000000000000000000815260040162000c3190620021df565b60405180910390fd5b8060028060008373ffffffffffffffffffffffffffffffffffffffff1673ffffffffffffffffffffffffffffffffffffffff168152602001908152602001600020600001541462000cc2576040517f08c379a000000000000000000000000000000000000000000000000000000000815260040162000cb99062001bb7565b60405180910390fd5b60008273ffffffffffffffffffffffffffffffffffffffff1663ef6601696040518163ffffffff1660e01b8152600401602060405180830381600087803b15801562000d0d57600080fd5b505af115801562000d22573d6000803e3d6000fd5b505050506040513d601f19601f8201168201806040525081019062000d48919062002542565b90507fc1af6888c23117fb477a8436e47b5d52ad47a8be4cd9771aa6b5583dcda205df838260405162000d7d92919062002574565b60405180910390a1505050565b60008054906101000a900473ffffffffffffffffffffffffffffffffffffffff1673ffffffffffffffffffffffffffffffffffffffff163373ffffffffffffffffffffffffffffffffffffffff161462000e1b576040517f08c379a000000000000000000000000000000000000000000000000000000000815260040162000e1290620021df565b60405180910390fd5b8060028060008373ffffffffffffffffffffffffffffffffffffffff1673ffffffffffffffffffffffffffffffffffffffff168152602001908152602001600020600001541462000ea3576040517f08c379a000000000000000000000000000000000000000000000000000000000815260040162000e9a9062001bb7565b60405180910390fd5b8173ffffffffffffffffffffffffffffffffffffffff1663fbfd61ef6040518163ffffffff1660e01b8152600401600060405180830381600087803b15801562000eec57600080fd5b505af115801562000f01573d6000803e3d6000fd5b505050506003600260008473ffffffffffffffffffffffffffffffffffffffff1673ffffffffffffffffffffffffffffffffffffffff168152602001908152602001600020600001819055507fd5cfd6bdb26dd86b6fec69f92b5443f411788d6ae9b8985e3eef2d5a825afe3082600160405162000f81929190620023f4565b60405180910390a15050565b3360028060008373ffffffffffffffffffffffffffffffffffffffff1673ffffffffffffffffffffffffffffffffffffffff168152602001908152602001600020600001541462001015576040517f08c379a00000000000000000000000000000000000000000000000000000000081526004016200100c9062001bb7565b60405180910390fd5b7f7fcf532c15f0a6db0bd6d0e038bea71d30d808c7d98cb3bf7268a95bf5081b6533836040516200104892919062002574565b60405180910390a15050565b60008054906101000a900473ffffffffffffffffffffffffffffffffffffffff1681565b3360028060008373ffffffffffffffffffffffffffffffffffffffff1673ffffffffffffffffffffffffffffffffffffffff168152602001908152602001600020600001541462001100576040517f08c379a0000000000000000000000000000000000000000000000000000000008152600401620010f79062001bb7565b60405180910390fd5b7fa4c10083eeef463fdb27c1bd6836fc0310dc50589b1b9695a97b78b00a1436ac33836040516200113392919062002574565b60405180910390a15050565b3360028060008373ffffffffffffffffffffffffffffffffffffffff1673ffffffffffffffffffffffffffffffffffffffff1681526020019081526020016000206000015414620011c7576040517f08c379a0000000000000000000000000000000000000000000000000000000008152600401620011be9062001bb7565b60405180910390fd5b6001600360008573ffffffffffffffffffffffffffffffffffffffff1673ffffffffffffffffffffffffffffffffffffffff16815260200190815260200160002060010160008282546200121c919062002230565b925050819055507f977ca88fbe72d930c467bb5e513bf5120fa044293ebf66e5deb33354c612c9fb3384846040516200125893929190620025a1565b60405180910390a1505050565b60008054906101000a900473ffffffffffffffffffffffffffffffffffffffff1673ffffffffffffffffffffffffffffffffffffffff163373ffffffffffffffffffffffffffffffffffffffff1614620012f6576040517f08c379a0000000000000000000000000000000000000000000000000000000008152600401620012ed90620021df565b60405180910390fd5b60008282604051620013089062001b48565b6200131592919062002671565b604051809103906000f08015801562001332573d6000803e3d6000fd5b5090506001600260008373ffffffffffffffffffffffffffffffffffffffff1673ffffffffffffffffffffffffffffffffffffffff168152602001908152602001600020600001819055506000600260008373ffffffffffffffffffffffffffffffffffffffff1673ffffffffffffffffffffffffffffffffffffffff168152602001908152602001600020600101819055507f1662f72c960ded4b5890e5a125d82ad00bba37f2b009233b32fa95969dbf9f06818484604051620013fa93929190620026ca565b60405180910390a1505050565b6000600260008373ffffffffffffffffffffffffffffffffffffffff1673ffffffffffffffffffffffffffffffffffffffff1681526020019081526020016000209050600181600001541462001494576040517f08c379a00000000000000000000000000000000000000000000000000000000081526004016200148b9062002784565b60405180910390fd5b600015158160020160003373ffffffffffffffffffffffffffffffffffffffff1673ffffffffffffffffffffffffffffffffffffffff16815260200190815260200160002060009054906101000a900460ff161515146200152c576040517f08c379a000000000000000000000000000000000000000000000000000000000815260040162001523906200281c565b60405180910390fd5b60018160020160003373ffffffffffffffffffffffffffffffffffffffff1673ffffffffffffffffffffffffffffffffffffffff16815260200190815260200160002060006101000a81548160ff02191690831515021790555060006001620015d7600360003373ffffffffffffffffffffffffffffffffffffffff1673ffffffffffffffffffffffffffffffffffffffff16815260200190815260200160002060000154620019fa565b620015e3919062002230565b905060148111620015f55780620015f8565b60145b8260010160008282546200160d919062002230565b925050819055507f2e0bca12597186edfd0c67f6ec9c45313f9bae3ca9d2fd65168e7a0a131d0fe98333604051620016479291906200283e565b60405180910390a16001548260010154106200166957620016688362001a63565b5b505050565b60015481565b3360028060008373ffffffffffffffffffffffffffffffffffffffff1673ffffffffffffffffffffffffffffffffffffffff1681526020019081526020016000206000015414620016fc576040517f08c379a0000000000000000000000000000000000000000000000000000000008152600401620016f39062001bb7565b60405180910390fd5b7ff65bcb56dffa18040704f5069f5b0838f93bf67dd059744199adab8b9e1dfbe13386868686604051620017359594939291906200286b565b60405180910390a15050505050565b3360028060008373ffffffffffffffffffffffffffffffffffffffff1673ffffffffffffffffffffffffffffffffffffffff1681526020019081526020016000206000015414620017cc576040517f08c379a0000000000000000000000000000000000000000000000000000000008152600401620017c39062001bb7565b60405180910390fd5b6001600360008573ffffffffffffffffffffffffffffffffffffffff1673ffffffffffffffffffffffffffffffffffffffff168152602001908152602001600020600101600082825462001821919062002230565b925050819055507fde47845a9e880b98711b7001132eaf3b6ab65f2356d600c122b49d4284ab7c0b338585856040516200185f9493929190620028c8565b60405180910390a150505050565b60026020528060005260406000206000915090508060000154908060010154905082565b60008060009054906101000a900473ffffffffffffffffffffffffffffffffffffffff1673ffffffffffffffffffffffffffffffffffffffff163373ffffffffffffffffffffffffffffffffffffffff161462001925576040517f08c379a00000000000000000000000000000000000000000000000000000000081526004016200191c90620021df565b60405180910390fd5b816000600260008373ffffffffffffffffffffffffffffffffffffffff1673ffffffffffffffffffffffffffffffffffffffff168152602001908152602001600020600001541415620019af576040517f08c379a0000000000000000000000000000000000000000000000000000000008152600401620019a69062002471565b60405180910390fd5b600260008473ffffffffffffffffffffffffffffffffffffffff1673ffffffffffffffffffffffffffffffffffffffff16815260200190815260200160002060000154915050919050565b600080600260018462001a0e919062002230565b62001a1a919062002944565b90508291505b8181101562001a5d57809150600281828562001a3d919062002944565b62001a49919062002230565b62001a55919062002944565b905062001a20565b50919050565b8073ffffffffffffffffffffffffffffffffffffffff1663143e61996040518163ffffffff1660e01b8152600401600060405180830381600087803b15801562001aac57600080fd5b505af115801562001ac1573d6000803e3d6000fd5b5050505060028060008373ffffffffffffffffffffffffffffffffffffffff1673ffffffffffffffffffffffffffffffffffffffff168152602001908152602001600020600001819055507f177945c386f887dd75bdfe3a4c968d331b3da998f013cd7d289ab2f7820a03368160405162001b3d91906200297c565b60405180910390a150565b612dee806200299a83390190565b600082825260208201905092915050565b7f4d65726368616e74206973206e6f7420617070726f7665642100000000000000600082015250565b600062001b9f60198362001b56565b915062001bac8262001b67565b602082019050919050565b6000602082019050818103600083015262001bd28162001b90565b9050919050565b6000604051905090565b600080fd5b600080fd5b6000819050919050565b62001c028162001bed565b811462001c0e57600080fd5b50565b60008135905062001c228162001bf7565b92915050565b60006020828403121562001c415762001c4062001be3565b5b600062001c518482850162001c11565b91505092915050565b600073ffffffffffffffffffffffffffffffffffffffff82169050919050565b600062001c878262001c5a565b9050919050565b62001c998162001c7a565b811462001ca557600080fd5b50565b60008135905062001cb98162001c8e565b92915050565b600080600080600060a0868803121562001cde5762001cdd62001be3565b5b600062001cee8882890162001c11565b955050602062001d018882890162001c11565b945050604062001d148882890162001c11565b935050606062001d278882890162001ca8565b925050608062001d3a8882890162001c11565b9150509295509295909350565b600062001d548262001c7a565b9050919050565b62001d668162001d47565b811462001d7257600080fd5b50565b60008135905062001d868162001d5b565b92915050565b60006020828403121562001da55762001da462001be3565b5b600062001db58482850162001d75565b91505092915050565b62001dc98162001bed565b82525050565b600060208201905062001de6600083018462001dbe565b92915050565b62001df78162001c7a565b82525050565b600060208201905062001e14600083018462001dec565b92915050565b6000806040838503121562001e345762001e3362001be3565b5b600062001e448582860162001ca8565b925050602062001e578582860162001c11565b9150509250929050565b600062001e6e8262001c5a565b9050919050565b62001e808162001e61565b811462001e8c57600080fd5b50565b60008135905062001ea08162001e75565b92915050565b600080fd5b600080fd5b6000601f19601f8301169050919050565b7f4e487b7100000000000000000000000000000000000000000000000000000000600052604160045260246000fd5b62001efb8262001eb0565b810181811067ffffffffffffffff8211171562001f1d5762001f1c62001ec1565b5b80604052505050565b600062001f3262001bd9565b905062001f40828262001ef0565b919050565b600067ffffffffffffffff82111562001f635762001f6262001ec1565b5b62001f6e8262001eb0565b9050602081019050919050565b82818337600083830152505050565b600062001fa162001f9b8462001f45565b62001f26565b90508281526020810184848401111562001fc05762001fbf62001eab565b5b62001fcd84828562001f7b565b509392505050565b600082601f83011262001fed5762001fec62001ea6565b5b813562001fff84826020860162001f8a565b91505092915050565b6000806040838503121562002022576200202162001be3565b5b6000620020328582860162001e8f565b925050602083013567ffffffffffffffff81111562002056576200205562001be8565b5b620020648582860162001fd5565b9150509250929050565b600080600080608085870312156200208b576200208a62001be3565b5b60006200209b8782880162001c11565b9450506020620020ae8782880162001c11565b9350506040620020c18782880162001c11565b9250506060620020d48782880162001c11565b91505092959194509250565b600080600060608486031215620020fc57620020fb62001be3565b5b60006200210c8682870162001c11565b93505060206200211f8682870162001ca8565b9250506040620021328682870162001c11565b9150509250925092565b600060408201905062002153600083018562001dbe565b62002162602083018462001dbe565b9392505050565b7f4f6e6c79204f776e65722063616e2063616c6c20746869732066756e6374696f60008201527f6e21000000000000000000000000000000000000000000000000000000000000602082015250565b6000620021c760228362001b56565b9150620021d48262002169565b604082019050919050565b60006020820190508181036000830152620021fa81620021b8565b9050919050565b7f4e487b7100000000000000000000000000000000000000000000000000000000600052601160045260246000fd5b60006200223d8262001bed565b91506200224a8362001bed565b9250827fffffffffffffffffffffffffffffffffffffffffffffffffffffffffffffffff0382111562002282576200228162002201565b5b828201905092915050565b6000819050919050565b6000620022b8620022b2620022ac8462001c5a565b6200228d565b62001c5a565b9050919050565b6000620022cc8262002297565b9050919050565b6000620022e082620022bf565b9050919050565b620022f281620022d3565b82525050565b600060c0820190506200230f6000830189620022e7565b6200231e602083018862001dbe565b6200232d604083018762001dbe565b6200233c606083018662001dbe565b6200234b608083018562001dec565b6200235a60a083018462001dbe565b979650505050505050565b7f4d65726368616e74206973206e6f742070617573656421000000000000000000600082015250565b60006200239d60178362001b56565b9150620023aa8262002365565b602082019050919050565b60006020820190508181036000830152620023d0816200238e565b9050919050565b60008115159050919050565b620023ee81620023d7565b82525050565b60006040820190506200240b6000830185620022e7565b6200241a6020830184620023e3565b9392505050565b7f5468697320636f6e7472616374206973206e6f74206372656174656421000000600082015250565b600062002459601d8362001b56565b9150620024668262002421565b602082019050919050565b600060208201905081810360008301526200248c816200244a565b9050919050565b7f4e6f2062616c616e636520617661696c61626c6520746f207472616e7366657260008201527f2100000000000000000000000000000000000000000000000000000000000000602082015250565b6000620024f160218362001b56565b9150620024fe8262002493565b604082019050919050565b600060208201905081810360008301526200252481620024e2565b9050919050565b6000815190506200253c8162001bf7565b92915050565b6000602082840312156200255b576200255a62001be3565b5b60006200256b848285016200252b565b91505092915050565b60006040820190506200258b6000830185620022e7565b6200259a602083018462001dbe565b9392505050565b6000606082019050620025b86000830186620022e7565b620025c7602083018562001dec565b620025d6604083018462001dbe565b949350505050565b620025e98162001e61565b82525050565b600081519050919050565b60005b838110156200261a578082015181840152602081019050620025fd565b838111156200262a576000848401525b50505050565b60006200263d82620025ef565b62002649818562001b56565b93506200265b818560208601620025fa565b620026668162001eb0565b840191505092915050565b6000604082019050620026886000830185620025de565b81810360208301526200269c818462002630565b90509392505050565b6000620026b282620022bf565b9050919050565b620026c481620026a5565b82525050565b6000606082019050620026e16000830186620022e7565b620026f06020830185620026b9565b818103604083015262002704818462002630565b9050949350505050565b7f4d65726368616e7420646f6573206e6f74206578697374206f7220686173206160008201527f6c7265616479206265656e20617070726f766564210000000000000000000000602082015250565b60006200276c60358362001b56565b915062002779826200270e565b604082019050919050565b600060208201905081810360008301526200279f816200275d565b9050919050565b7f5468697320616464726573732068617320616c726561647920766f746564206960008201527f6e2074686973204d65726368616e74436f6e7472616374210000000000000000602082015250565b60006200280460388362001b56565b91506200281182620027a6565b604082019050919050565b600060208201905081810360008301526200283781620027f5565b9050919050565b6000604082019050620028556000830185620022e7565b62002864602083018462001dec565b9392505050565b600060a082019050620028826000830188620022e7565b62002891602083018762001dbe565b620028a0604083018662001dbe565b620028af606083018562001dbe565b620028be608083018462001dbe565b9695505050505050565b6000608082019050620028df6000830187620022e7565b620028ee602083018662001dbe565b620028fd604083018562001dec565b6200290c606083018462001dbe565b95945050505050565b7f4e487b7100000000000000000000000000000000000000000000000000000000600052601260045260246000fd5b6000620029518262001bed565b91506200295e8362001bed565b92508262002971576200297062002915565b5b828204905092915050565b6000602082019050620029936000830184620022e7565b9291505056fe60806040523480156200001157600080fd5b5060405162002dee38038062002dee8339818101604052810190620000379190620003a2565b81600260006101000a81548173ffffffffffffffffffffffffffffffffffffffff021916908373ffffffffffffffffffffffffffffffffffffffff160217905550806003908051906020019062000090929190620000f0565b50336000806101000a81548173ffffffffffffffffffffffffffffffffffffffff021916908373ffffffffffffffffffffffffffffffffffffffff160217905550600060048190555060006005819055506001808190555050506200046d565b828054620000fe9062000437565b90600052602060002090601f0160209004810192826200012257600085556200016e565b82601f106200013d57805160ff19168380011785556200016e565b828001600101855582156200016e579182015b828111156200016d57825182559160200191906001019062000150565b5b5090506200017d919062000181565b5090565b5b808211156200019c57600081600090555060010162000182565b5090565b6000604051905090565b600080fd5b600080fd5b600073ffffffffffffffffffffffffffffffffffffffff82169050919050565b6000620001e182620001b4565b9050919050565b620001f381620001d4565b8114620001ff57600080fd5b50565b6000815190506200021381620001e8565b92915050565b600080fd5b600080fd5b6000601f19601f8301169050919050565b7f4e487b7100000000000000000000000000000000000000000000000000000000600052604160045260246000fd5b6200026e8262000223565b810181811067ffffffffffffffff8211171562000290576200028f62000234565b5b80604052505050565b6000620002a5620001a0565b9050620002b3828262000263565b919050565b600067ffffffffffffffff821115620002d657620002d562000234565b5b620002e18262000223565b9050602081019050919050565b60005b838110156200030e578082015181840152602081019050620002f1565b838111156200031e576000848401525b50505050565b60006200033b6200033584620002b8565b62000299565b9050828152602081018484840111156200035a57620003596200021e565b5b62000367848285620002ee565b509392505050565b600082601f83011262000387576200038662000219565b5b81516200039984826020860162000324565b91505092915050565b60008060408385031215620003bc57620003bb620001aa565b5b6000620003cc8582860162000202565b925050602083015167ffffffffffffffff811115620003f057620003ef620001af565b5b620003fe858286016200036f565b9150509250929050565b7f4e487b7100000000000000000000000000000000000000000000000000000000600052602260045260246000fd5b600060028204905060018216806200045057607f821691505b6020821081141562000467576200046662000408565b5b50919050565b612971806200047d6000396000f3fe60806040526004361061011f5760003560e01c80639df8ed43116100a0578063e30081a011610064578063e30081a014610394578063e32bf8e4146103bd578063ef660169146103e6578063fbfd61ef14610411578063fd815966146104285761011f565b80639df8ed43146102e0578063b5b17c671461030b578063d270e7ab14610336578063d4e9329214610361578063d96a094a146103785761011f565b806340e58ee5116100e757806340e58ee5146101e7578063538146f2146102105780635af36e3e1461024d5780638392fe3114610276578063971d852f146102b75761011f565b806306fdde031461012457806312065fe01461014f578063143e61991461017a57806317d7de7c14610191578063200d2ed2146101bc575b600080fd5b34801561013057600080fd5b5061013961043f565b6040516101469190611bdc565b60405180910390f35b34801561015b57600080fd5b506101646104cd565b6040516101719190611c17565b60405180910390f35b34801561018657600080fd5b5061018f610567565b005b34801561019d57600080fd5b506101a66105ff565b6040516101b39190611bdc565b60405180910390f35b3480156101c857600080fd5b506101d1610691565b6040516101de9190611c17565b60405180910390f35b3480156101f357600080fd5b5061020e60048036038101906102099190611c63565b610697565b005b34801561021c57600080fd5b5061023760048036038101906102329190611c63565b61095d565b6040516102449190611c17565b60405180910390f35b34801561025957600080fd5b50610274600480360381019061026f9190611c90565b61097d565b005b34801561028257600080fd5b5061029d60048036038101906102989190611c63565b610d46565b6040516102ae959493929190611d11565b60405180910390f35b3480156102c357600080fd5b506102de60048036038101906102d99190611c63565b610d9c565b005b3480156102ec57600080fd5b506102f5610fe8565b6040516103029190611d64565b60405180910390f35b34801561031757600080fd5b5061032061100e565b60405161032d9190611c17565b60405180910390f35b34801561034257600080fd5b5061034b6110a8565b6040516103589190611dde565b60405180910390f35b34801561036d57600080fd5b506103766110cc565b005b610392600480360381019061038d9190611c63565b6112e8565b005b3480156103a057600080fd5b506103bb60048036038101906103b69190611e25565b61154f565b005b3480156103c957600080fd5b506103e460048036038101906103df9190611e52565b611623565b005b3480156103f257600080fd5b506103fb6118b2565b6040516104089190611c17565b60405180910390f35b34801561041d57600080fd5b50610426611a13565b005b34801561043457600080fd5b5061043d611aab565b005b6003805461044c90611ee8565b80601f016020809104026020016040519081016040528092919081815260200182805461047890611ee8565b80156104c55780601f1061049a576101008083540402835291602001916104c5565b820191906000526020600020905b8154815290600101906020018083116104a857829003601f168201915b505050505081565b6000600260009054906101000a900473ffffffffffffffffffffffffffffffffffffffff1673ffffffffffffffffffffffffffffffffffffffff163373ffffffffffffffffffffffffffffffffffffffff161461055f576040517f08c379a000000000000000000000000000000000000000000000000000000000815260040161055690611f8c565b60405180910390fd5b600554905090565b60008054906101000a900473ffffffffffffffffffffffffffffffffffffffff1673ffffffffffffffffffffffffffffffffffffffff163373ffffffffffffffffffffffffffffffffffffffff16146105f5576040517f08c379a00000000000000000000000000000000000000000000000000000000081526004016105ec9061201e565b60405180910390fd5b6002600181905550565b60606003805461060e90611ee8565b80601f016020809104026020016040519081016040528092919081815260200182805461063a90611ee8565b80156106875780601f1061065c57610100808354040283529160200191610687565b820191906000526020600020905b81548152906001019060200180831161066a57829003601f168201915b5050505050905090565b60015481565b6002600154146106dc576040517f08c379a00000000000000000000000000000000000000000000000000000000081526004016106d3906120b0565b60405180910390fd5b6000600660008381526020019081526020016000209050600281600101541461073a576040517f08c379a00000000000000000000000000000000000000000000000000000000081526004016107319061211c565b60405180910390fd5b3373ffffffffffffffffffffffffffffffffffffffff168160040160009054906101000a900473ffffffffffffffffffffffffffffffffffffffff1673ffffffffffffffffffffffffffffffffffffffff16146107cc576040517f08c379a00000000000000000000000000000000000000000000000000000000081526004016107c3906121ae565b60405180910390fd5b42816002015411610812576040517f08c379a000000000000000000000000000000000000000000000000000000000815260040161080990612240565b60405180910390fd5b8060040160009054906101000a900473ffffffffffffffffffffffffffffffffffffffff1673ffffffffffffffffffffffffffffffffffffffff166108fc82600001549081150290604051600060405180830381858888f19350505050158015610880573d6000803e3d6000fd5b50806000015460046000828254610897919061228f565b925050819055506005816001018190555060008054906101000a900473ffffffffffffffffffffffffffffffffffffffff1673ffffffffffffffffffffffffffffffffffffffff166398590ef98260040160009054906101000a900473ffffffffffffffffffffffffffffffffffffffff16846040518363ffffffff1660e01b81526004016109279291906122f6565b600060405180830381600087803b15801561094157600080fd5b505af1158015610955573d6000803e3d6000fd5b505050505050565b600060066000838152602001908152602001600020600101549050919050565b600260009054906101000a900473ffffffffffffffffffffffffffffffffffffffff1673ffffffffffffffffffffffffffffffffffffffff163373ffffffffffffffffffffffffffffffffffffffff1614610a0d576040517f08c379a0000000000000000000000000000000000000000000000000000000008152600401610a0490611f8c565b60405180910390fd5b600260015414610a52576040517f08c379a0000000000000000000000000000000000000000000000000000000008152600401610a49906120b0565b60405180910390fd5b60006006600084815260200190815260200160002090506002816001015414610ab0576040517f08c379a0000000000000000000000000000000000000000000000000000000008152600401610aa79061211c565b60405180910390fd5b60008211610af3576040517f08c379a0000000000000000000000000000000000000000000000000000000008152600401610aea90612391565b60405180910390fd5b8060000154821115610b3a576040517f08c379a0000000000000000000000000000000000000000000000000000000008152600401610b3190612423565b60405180910390fd5b8060000154821415610bd3578060040160009054906101000a900473ffffffffffffffffffffffffffffffffffffffff1673ffffffffffffffffffffffffffffffffffffffff166108fc839081150290604051600060405180830381858888f19350505050158015610bb0573d6000803e3d6000fd5b50806000015460046000828254610bc7919061228f565b92505081905550610c84565b8060040160009054906101000a900473ffffffffffffffffffffffffffffffffffffffff1673ffffffffffffffffffffffffffffffffffffffff166108fc839081150290604051600060405180830381858888f19350505050158015610c3d573d6000803e3d6000fd5b50818160000154610c4e919061228f565b60056000828254610c5f9190612443565b92505081905550806000015460046000828254610c7c919061228f565b925050819055505b6004816001018190555060008054906101000a900473ffffffffffffffffffffffffffffffffffffffff1673ffffffffffffffffffffffffffffffffffffffff1663e796a6eb848360040160009054906101000a900473ffffffffffffffffffffffffffffffffffffffff16856040518463ffffffff1660e01b8152600401610d0f93929190612499565b600060405180830381600087803b158015610d2957600080fd5b505af1158015610d3d573d6000803e3d6000fd5b50505050505050565b60066020528060005260406000206000915090508060000154908060010154908060020154908060030154908060040160009054906101000a900473ffffffffffffffffffffffffffffffffffffffff16905085565b600260009054906101000a900473ffffffffffffffffffffffffffffffffffffffff1673ffffffffffffffffffffffffffffffffffffffff163373ffffffffffffffffffffffffffffffffffffffff1614610e2c576040517f08c379a0000000000000000000000000000000000000000000000000000000008152600401610e2390611f8c565b60405180910390fd5b600260015414610e71576040517f08c379a0000000000000000000000000000000000000000000000000000000008152600401610e68906120b0565b60405180910390fd5b60006006600083815260200190815260200160002090506002816001015414610ecf576040517f08c379a0000000000000000000000000000000000000000000000000000000008152600401610ec69061211c565b60405180910390fd5b42816003015410610f15576040517f08c379a0000000000000000000000000000000000000000000000000000000008152600401610f0c90612542565b60405180910390fd5b806000015460046000828254610f2b919061228f565b92505081905550806000015460056000828254610f489190612443565b925050819055506003816001018190555060008054906101000a900473ffffffffffffffffffffffffffffffffffffffff1673ffffffffffffffffffffffffffffffffffffffff1663971d852f836040518263ffffffff1660e01b8152600401610fb29190611c17565b600060405180830381600087803b158015610fcc57600080fd5b505af1158015610fe0573d6000803e3d6000fd5b505050505050565b600260009054906101000a900473ffffffffffffffffffffffffffffffffffffffff1681565b6000600260009054906101000a900473ffffffffffffffffffffffffffffffffffffffff1673ffffffffffffffffffffffffffffffffffffffff163373ffffffffffffffffffffffffffffffffffffffff16146110a0576040517f08c379a000000000000000000000000000000000000000000000000000000000815260040161109790611f8c565b60405180910390fd5b600454905090565b60008054906101000a900473ffffffffffffffffffffffffffffffffffffffff1681565b600260009054906101000a900473ffffffffffffffffffffffffffffffffffffffff1673ffffffffffffffffffffffffffffffffffffffff163373ffffffffffffffffffffffffffffffffffffffff161461115c576040517f08c379a000000000000000000000000000000000000000000000000000000000815260040161115390611f8c565b60405180910390fd5b6002600154146111a1576040517f08c379a0000000000000000000000000000000000000000000000000000000008152600401611198906120b0565b60405180910390fd5b6000600554116111e6576040517f08c379a00000000000000000000000000000000000000000000000000000000081526004016111dd906125d4565b60405180910390fd5b600260009054906101000a900473ffffffffffffffffffffffffffffffffffffffff1673ffffffffffffffffffffffffffffffffffffffff166108fc6005549081150290604051600060405180830381858888f19350505050158015611250573d6000803e3d6000fd5b5060008054906101000a900473ffffffffffffffffffffffffffffffffffffffff1673ffffffffffffffffffffffffffffffffffffffff1663835fc6ca6005546040518263ffffffff1660e01b81526004016112ac9190611c17565b600060405180830381600087803b1580156112c657600080fd5b505af11580156112da573d6000803e3d6000fd5b505050506000600581905550565b60026001541461132d576040517f08c379a0000000000000000000000000000000000000000000000000000000008152600401611324906120b0565b60405180910390fd5b6000600660008381526020019081526020016000209050600181600101541461138b576040517f08c379a000000000000000000000000000000000000000000000000000000000815260040161138290612666565b60405180910390fd5b600034116113ce576040517f08c379a00000000000000000000000000000000000000000000000000000000081526004016113c5906126d2565b60405180910390fd5b80600001543414611414576040517f08c379a000000000000000000000000000000000000000000000000000000000815260040161140b9061273e565b60405180910390fd5b34600460008282546114269190612443565b92505081905550600281600101819055504281600201600082825461144b9190612443565b92505081905550428160030160008282546114669190612443565b92505081905550338160040160006101000a81548173ffffffffffffffffffffffffffffffffffffffff021916908373ffffffffffffffffffffffffffffffffffffffff16021790555060008054906101000a900473ffffffffffffffffffffffffffffffffffffffff1673ffffffffffffffffffffffffffffffffffffffff1663102d8c79838360020154846003015433346040518663ffffffff1660e01b815260040161151995949392919061277f565b600060405180830381600087803b15801561153357600080fd5b505af1158015611547573d6000803e3d6000fd5b505050505050565b600260009054906101000a900473ffffffffffffffffffffffffffffffffffffffff1673ffffffffffffffffffffffffffffffffffffffff163373ffffffffffffffffffffffffffffffffffffffff16146115df576040517f08c379a00000000000000000000000000000000000000000000000000000000081526004016115d690611f8c565b60405180910390fd5b80600260006101000a81548173ffffffffffffffffffffffffffffffffffffffff021916908373ffffffffffffffffffffffffffffffffffffffff16021790555050565b600260009054906101000a900473ffffffffffffffffffffffffffffffffffffffff1673ffffffffffffffffffffffffffffffffffffffff163373ffffffffffffffffffffffffffffffffffffffff16146116b3576040517f08c379a00000000000000000000000000000000000000000000000000000000081526004016116aa90611f8c565b60405180910390fd5b6002600154146116f8576040517f08c379a00000000000000000000000000000000000000000000000000000000081526004016116ef906120b0565b60405180910390fd5b60006006600086815260200190815260200160002090506000816001015414611756576040517f08c379a000000000000000000000000000000000000000000000000000000000815260040161174d90612844565b60405180910390fd5b6040518060a0016040528085815260200160018152602001848152602001838152602001600073ffffffffffffffffffffffffffffffffffffffff16815250600660008781526020019081526020016000206000820151816000015560208201518160010155604082015181600201556060820151816003015560808201518160040160006101000a81548173ffffffffffffffffffffffffffffffffffffffff021916908373ffffffffffffffffffffffffffffffffffffffff16021790555090505060008054906101000a900473ffffffffffffffffffffffffffffffffffffffff1673ffffffffffffffffffffffffffffffffffffffff1663e32bf8e4868686866040518563ffffffff1660e01b81526004016118799493929190612864565b600060405180830381600087803b15801561189357600080fd5b505af11580156118a7573d6000803e3d6000fd5b505050505050505050565b60008060009054906101000a900473ffffffffffffffffffffffffffffffffffffffff1673ffffffffffffffffffffffffffffffffffffffff163373ffffffffffffffffffffffffffffffffffffffff1614611943576040517f08c379a000000000000000000000000000000000000000000000000000000000815260040161193a9061201e565b60405180910390fd5b60006004546005546119559190612443565b47611960919061228f565b9050600081116119a5576040517f08c379a000000000000000000000000000000000000000000000000000000000815260040161199c9061291b565b60405180910390fd5b60008054906101000a900473ffffffffffffffffffffffffffffffffffffffff1673ffffffffffffffffffffffffffffffffffffffff166108fc829081150290604051600060405180830381858888f19350505050158015611a0b573d6000803e3d6000fd5b508091505090565b60008054906101000a900473ffffffffffffffffffffffffffffffffffffffff1673ffffffffffffffffffffffffffffffffffffffff163373ffffffffffffffffffffffffffffffffffffffff1614611aa1576040517f08c379a0000000000000000000000000000000000000000000000000000000008152600401611a989061201e565b60405180910390fd5b6003600181905550565b60008054906101000a900473ffffffffffffffffffffffffffffffffffffffff1673ffffffffffffffffffffffffffffffffffffffff163373ffffffffffffffffffffffffffffffffffffffff1614611b39576040517f08c379a0000000000000000000000000000000000000000000000000000000008152600401611b309061201e565b60405180910390fd5b6002600181905550565b600081519050919050565b600082825260208201905092915050565b60005b83811015611b7d578082015181840152602081019050611b62565b83811115611b8c576000848401525b50505050565b6000601f19601f8301169050919050565b6000611bae82611b43565b611bb88185611b4e565b9350611bc8818560208601611b5f565b611bd181611b92565b840191505092915050565b60006020820190508181036000830152611bf68184611ba3565b905092915050565b6000819050919050565b611c1181611bfe565b82525050565b6000602082019050611c2c6000830184611c08565b92915050565b600080fd5b611c4081611bfe565b8114611c4b57600080fd5b50565b600081359050611c5d81611c37565b92915050565b600060208284031215611c7957611c78611c32565b5b6000611c8784828501611c4e565b91505092915050565b60008060408385031215611ca757611ca6611c32565b5b6000611cb585828601611c4e565b9250506020611cc685828601611c4e565b9150509250929050565b600073ffffffffffffffffffffffffffffffffffffffff82169050919050565b6000611cfb82611cd0565b9050919050565b611d0b81611cf0565b82525050565b600060a082019050611d266000830188611c08565b611d336020830187611c08565b611d406040830186611c08565b611d4d6060830185611c08565b611d5a6080830184611d02565b9695505050505050565b6000602082019050611d796000830184611d02565b92915050565b6000819050919050565b6000611da4611d9f611d9a84611cd0565b611d7f565b611cd0565b9050919050565b6000611db682611d89565b9050919050565b6000611dc882611dab565b9050919050565b611dd881611dbd565b82525050565b6000602082019050611df36000830184611dcf565b92915050565b611e0281611cf0565b8114611e0d57600080fd5b50565b600081359050611e1f81611df9565b92915050565b600060208284031215611e3b57611e3a611c32565b5b6000611e4984828501611e10565b91505092915050565b60008060008060808587031215611e6c57611e6b611c32565b5b6000611e7a87828801611c4e565b9450506020611e8b87828801611c4e565b9350506040611e9c87828801611c4e565b9250506060611ead87828801611c4e565b91505092959194509250565b7f4e487b7100000000000000000000000000000000000000000000000000000000600052602260045260246000fd5b60006002820490506001821680611f0057607f821691505b60208210811415611f1457611f13611eb9565b5b50919050565b7f4f6e6c79204d65726368616e742063616e2063616c6c20746869732066756e6360008201527f74696f6e21000000000000000000000000000000000000000000000000000000602082015250565b6000611f76602583611b4e565b9150611f8182611f1a565b604082019050919050565b60006020820190508181036000830152611fa581611f69565b9050919050565b7f4f6e6c79204f776e65722063616e2063616c6c20746869732066756e6374696f60008201527f6e21000000000000000000000000000000000000000000000000000000000000602082015250565b6000612008602283611b4e565b915061201382611fac565b604082019050919050565b6000602082019050818103600083015261203781611ffb565b9050919050565b7f4d65726368616e74206973206e6f7420616363657074696e67206f706572617460008201527f696f6e7321000000000000000000000000000000000000000000000000000000602082015250565b600061209a602583611b4e565b91506120a58261203e565b604082019050919050565b600060208201905081810360008301526120c98161208d565b9050919050565b7f5075726368617365206d75737420626520696e20706179656420737461746521600082015250565b6000612106602083611b4e565b9150612111826120d0565b602082019050919050565b60006020820190508181036000830152612135816120f9565b9050919050565b7f5468652062757965722061646472657373206d7573742062652074686520736160008201527f6d65210000000000000000000000000000000000000000000000000000000000602082015250565b6000612198602383611b4e565b91506121a38261213c565b604082019050919050565b600060208201905081810360008301526121c78161218b565b9050919050565b7f5468652063616e63656c2074696d65206f66207468697320707572636861736560008201527f206973206f766572210000000000000000000000000000000000000000000000602082015250565b600061222a602983611b4e565b9150612235826121ce565b604082019050919050565b600060208201905081810360008301526122598161221d565b9050919050565b7f4e487b7100000000000000000000000000000000000000000000000000000000600052601160045260246000fd5b600061229a82611bfe565b91506122a583611bfe565b9250828210156122b8576122b7612260565b5b828203905092915050565b60006122ce82611d89565b9050919050565b60006122e0826122c3565b9050919050565b6122f0816122d5565b82525050565b600060408201905061230b60008301856122e7565b6123186020830184611c08565b9392505050565b7f526566756e6420616d6f756e742073686f756c6420626520677265617465722060008201527f7468616e20302100000000000000000000000000000000000000000000000000602082015250565b600061237b602783611b4e565b91506123868261231f565b604082019050919050565b600060208201905081810360008301526123aa8161236e565b9050919050565b7f526566756e6420616d6f756e742073686f756c64206e6f74206265206772656160008201527f746572207468616e2074686520707572636861736520616d6f756e7421000000602082015250565b600061240d603d83611b4e565b9150612418826123b1565b604082019050919050565b6000602082019050818103600083015261243c81612400565b9050919050565b600061244e82611bfe565b915061245983611bfe565b9250827fffffffffffffffffffffffffffffffffffffffffffffffffffffffffffffffff0382111561248e5761248d612260565b5b828201905092915050565b60006060820190506124ae6000830186611c08565b6124bb60208301856122e7565b6124c86040830184611c08565b949350505050565b7f54686520657363726f772074696d65206f66207468697320707572636861736560008201527f206973206e6f74206f7665722079657421000000000000000000000000000000602082015250565b600061252c603183611b4e565b9150612537826124d0565b604082019050919050565b6000602082019050818103600083015261255b8161251f565b9050919050565b7f42616c616e63652073686f756c642062652067726561746572207468616e203060008201527f2100000000000000000000000000000000000000000000000000000000000000602082015250565b60006125be602183611b4e565b91506125c982612562565b604082019050919050565b600060208201905081810360008301526125ed816125b1565b9050919050565b7f5075726368617365206d75737420657869737420616e6420686173206e6f742060008201527f796574206265656e207061696421000000000000000000000000000000000000602082015250565b6000612650602e83611b4e565b915061265b826125f4565b604082019050919050565b6000602082019050818103600083015261267f81612643565b9050919050565b7f416d6f756e742073686f756c642062652067726561746572207468616e203021600082015250565b60006126bc602083611b4e565b91506126c782612686565b602082019050919050565b600060208201905081810360008301526126eb816126af565b9050919050565b7f57726f6e6720616d6f756e742100000000000000000000000000000000000000600082015250565b6000612728600d83611b4e565b9150612733826126f2565b602082019050919050565b600060208201905081810360008301526127578161271b565b9050919050565b600061276982611cd0565b9050919050565b6127798161275e565b82525050565b600060a0820190506127946000830188611c08565b6127a16020830187611c08565b6127ae6040830186611c08565b6127bb6060830185612770565b6127c86080830184611c08565b9695505050505050565b7f5075726368617365206d75737420626520696e206e6f7420637265617465642060008201527f7374617465210000000000000000000000000000000000000000000000000000602082015250565b600061282e602683611b4e565b9150612839826127d2565b604082019050919050565b6000602082019050818103600083015261285d81612821565b9050919050565b60006080820190506128796000830187611c08565b6128866020830186611c08565b6128936040830185611c08565b6128a06060830184611c08565b95945050505050565b7f4e6f2062616c616e636520617661696c61626c6520746f20776974686472617760008201527f2100000000000000000000000000000000000000000000000000000000000000602082015250565b6000612905602183611b4e565b9150612910826128a9565b604082019050919050565b60006020820190508181036000830152612934816128f8565b905091905056fea2646970667358221220ea94ce1520077147e8df8b8ee16f2b688eddc7677279706068204636089ab93164736f6c63430008090033a26469706673582212204942f0966cefe640fd602711deb1259c4efb493a86a51dddc7a7c0017a85034864736f6c63430008090033",
  "linkReferences": {},
  "deployedLinkReferences": {}
}