{
  "_format": "hh-sol-artifact-1",
  "contractName": "MainContract",
  "sourceName": "contracts/mainContract.sol",
  "abi": [
    {
      "inputs": [],
      "stateMutability": "nonpayable",
      "type": "constructor"
    },
    {
      "anonymous": false,
      "inputs": [
        {
          "indexed": false,
          "internalType": "address",
          "name": "MerchantContractAddress",
          "type": "address"
        },
        {
          "indexed": false,
          "internalType": "string",
          "name": "MerchantName",
          "type": "string"
        },
        {
          "indexed": false,
          "internalType": "bool",
          "name": "Approved",
          "type": "bool"
        }
      ],
      "name": "ApprovedMerchantContract",
      "type": "event"
    },
    {
      "anonymous": false,
      "inputs": [
        {
          "indexed": false,
          "internalType": "address",
          "name": "MerchantContractAddress",
          "type": "address"
        },
        {
          "indexed": false,
          "internalType": "uint256",
          "name": "IDPurchase",
          "type": "uint256"
        },
        {
          "indexed": false,
          "internalType": "uint256",
          "name": "DateFinished",
          "type": "uint256"
        },
        {
          "indexed": false,
          "internalType": "address",
          "name": "BuyerAddress",
          "type": "address"
        },
        {
          "indexed": false,
          "internalType": "uint256",
          "name": "PurchaseAmount",
          "type": "uint256"
        },
        {
          "indexed": false,
          "internalType": "uint256",
          "name": "PurchaseStatus",
          "type": "uint256"
        }
      ],
      "name": "Buy",
      "type": "event"
    },
    {
      "anonymous": false,
      "inputs": [
        {
          "indexed": false,
          "internalType": "address",
          "name": "MerchantContractAddress",
          "type": "address"
        },
        {
          "indexed": false,
          "internalType": "uint256",
          "name": "IDPurchase",
          "type": "uint256"
        }
      ],
      "name": "Complete",
      "type": "event"
    },
    {
      "anonymous": false,
      "inputs": [
        {
          "indexed": false,
          "internalType": "address",
          "name": "MerchantContractAddress",
          "type": "address"
        },
        {
          "indexed": false,
          "internalType": "uint256",
          "name": "IDPurchase",
          "type": "uint256"
        },
        {
          "indexed": false,
          "internalType": "uint256",
          "name": "DateCreated",
          "type": "uint256"
        },
        {
          "indexed": false,
          "internalType": "uint256",
          "name": "PurchaseAmount",
          "type": "uint256"
        },
        {
          "indexed": false,
          "internalType": "uint256",
          "name": "EscrowTime",
          "type": "uint256"
        },
        {
          "indexed": false,
          "internalType": "uint256",
          "name": "PurchaseStatus",
          "type": "uint256"
        }
      ],
      "name": "CreatePurchase",
      "type": "event"
    },
    {
      "anonymous": false,
      "inputs": [
        {
          "indexed": false,
          "internalType": "address",
          "name": "MerchantContractAddress",
          "type": "address"
        },
        {
          "indexed": false,
          "internalType": "address",
          "name": "MerchantAddress",
          "type": "address"
        },
        {
          "indexed": false,
          "internalType": "string",
          "name": "MerchantName",
          "type": "string"
        }
      ],
      "name": "CreatedMerchantContract",
      "type": "event"
    },
    {
      "anonymous": false,
      "inputs": [
        {
          "indexed": false,
          "internalType": "address",
          "name": "MerchantContractAddress",
          "type": "address"
        },
        {
          "indexed": false,
          "internalType": "uint256",
          "name": "Sells",
          "type": "uint256"
        },
        {
          "indexed": false,
          "internalType": "uint256",
          "name": "Refunds",
          "type": "uint256"
        }
      ],
      "name": "Historic",
      "type": "event"
    },
    {
      "anonymous": false,
      "inputs": [
        {
          "indexed": false,
          "internalType": "address",
          "name": "MerchantContractAddress",
          "type": "address"
        },
        {
          "indexed": false,
          "internalType": "bool",
          "name": "Paused",
          "type": "bool"
        }
      ],
      "name": "PausedMerchantContract",
      "type": "event"
    },
    {
      "anonymous": false,
      "inputs": [
        {
          "indexed": false,
          "internalType": "address",
          "name": "MerchantContractAddress",
          "type": "address"
        },
        {
          "indexed": false,
          "internalType": "uint256",
          "name": "IDPurchase",
          "type": "uint256"
        },
        {
          "indexed": false,
          "internalType": "uint256",
          "name": "Date",
          "type": "uint256"
        },
        {
          "indexed": false,
          "internalType": "address",
          "name": "BuyerAddress",
          "type": "address"
        },
        {
          "indexed": false,
          "internalType": "uint256",
          "name": "RefundAmount",
          "type": "uint256"
        },
        {
          "indexed": false,
          "internalType": "uint256",
          "name": "PurchaseStatus",
          "type": "uint256"
        }
      ],
      "name": "Refund",
      "type": "event"
    },
    {
      "anonymous": false,
      "inputs": [
        {
          "indexed": false,
          "internalType": "address",
          "name": "MerchantContractAddress",
          "type": "address"
        },
        {
          "indexed": false,
          "internalType": "uint256",
          "name": "Amount",
          "type": "uint256"
        }
      ],
      "name": "TopUpMyContract",
      "type": "event"
    },
    {
      "anonymous": false,
      "inputs": [
        {
          "indexed": false,
          "internalType": "address",
          "name": "Voter",
          "type": "address"
        },
        {
          "indexed": false,
          "internalType": "address",
          "name": "MerchantContractAddress",
          "type": "address"
        }
      ],
      "name": "VoteNewMerchantContract",
      "type": "event"
    },
    {
      "anonymous": false,
      "inputs": [
        {
          "indexed": false,
          "internalType": "address",
          "name": "MerchantContractAddress",
          "type": "address"
        },
        {
          "indexed": false,
          "internalType": "uint256",
          "name": "Balance",
          "type": "uint256"
        }
      ],
      "name": "Withdrawal",
      "type": "event"
    },
    {
      "inputs": [],
      "name": "RequiredNumberOfVotes",
      "outputs": [
        {
          "internalType": "uint256",
          "name": "",
          "type": "uint256"
        }
      ],
      "stateMutability": "view",
      "type": "function"
    },
    {
      "inputs": [
        {
          "internalType": "uint256",
          "name": "NumberOfVotes",
          "type": "uint256"
        }
      ],
      "name": "changeRequiredNumberOfVotes",
      "outputs": [],
      "stateMutability": "nonpayable",
      "type": "function"
    },
    {
      "inputs": [
        {
          "internalType": "address payable",
          "name": "MerchantWalletAddress",
          "type": "address"
        },
        {
          "internalType": "string",
          "name": "MerchantName",
          "type": "string"
        }
      ],
      "name": "createMerchantContract",
      "outputs": [],
      "stateMutability": "nonpayable",
      "type": "function"
    },
    {
      "inputs": [
        {
          "internalType": "address",
          "name": "MerchantContractAddress",
          "type": "address"
        }
      ],
      "name": "disapproveMerchantContract",
      "outputs": [],
      "stateMutability": "nonpayable",
      "type": "function"
    },
    {
      "inputs": [
        {
          "internalType": "uint256",
          "name": "eventID",
          "type": "uint256"
        },
        {
          "internalType": "address",
          "name": "MerchantContractAddress",
          "type": "address"
        },
        {
          "internalType": "uint256",
          "name": "Amount",
          "type": "uint256"
        }
      ],
      "name": "eventsMerchantContracts2",
      "outputs": [],
      "stateMutability": "nonpayable",
      "type": "function"
    },
    {
      "inputs": [
        {
          "internalType": "uint256",
          "name": "eventID",
          "type": "uint256"
        },
        {
          "internalType": "address",
          "name": "MerchantContractAddress",
          "type": "address"
        },
        {
          "internalType": "uint256",
          "name": "IDPurchase",
          "type": "uint256"
        },
        {
          "internalType": "uint256",
          "name": "Sells",
          "type": "uint256"
        },
        {
          "internalType": "uint256",
          "name": "Refunds",
          "type": "uint256"
        }
      ],
      "name": "eventsMerchantContracts3",
      "outputs": [],
      "stateMutability": "nonpayable",
      "type": "function"
    },
    {
      "inputs": [
        {
          "internalType": "uint256",
          "name": "eventID",
          "type": "uint256"
        },
        {
          "internalType": "address",
          "name": "MerchantContractAddress",
          "type": "address"
        },
        {
          "internalType": "uint256",
          "name": "IDPurchase",
          "type": "uint256"
        },
        {
          "internalType": "uint256",
          "name": "Date",
          "type": "uint256"
        },
        {
          "internalType": "address",
          "name": "BuyerAddress",
          "type": "address"
        },
        {
          "internalType": "uint256",
          "name": "Amount",
          "type": "uint256"
        },
        {
          "internalType": "uint256",
          "name": "PurchaseStatus",
          "type": "uint256"
        },
        {
          "internalType": "uint256",
          "name": "EscrowTime",
          "type": "uint256"
        }
      ],
      "name": "eventsMerchantContracts4",
      "outputs": [],
      "stateMutability": "nonpayable",
      "type": "function"
    },
    {
      "inputs": [
        {
          "internalType": "address",
          "name": "MerchantContractAddress",
          "type": "address"
        }
      ],
      "name": "freezeWithdrawalsMerchantContract",
      "outputs": [],
      "stateMutability": "nonpayable",
      "type": "function"
    },
    {
      "inputs": [
        {
          "internalType": "address",
          "name": "MerchantContractAddress",
          "type": "address"
        }
      ],
      "name": "getMerchantContractNumberOfVotes",
      "outputs": [
        {
          "internalType": "uint256",
          "name": "",
          "type": "uint256"
        }
      ],
      "stateMutability": "view",
      "type": "function"
    },
    {
      "inputs": [
        {
          "internalType": "address",
          "name": "MerchantContractAddress",
          "type": "address"
        }
      ],
      "name": "getMerchantContractStatusContract",
      "outputs": [
        {
          "internalType": "uint256",
          "name": "",
          "type": "uint256"
        }
      ],
      "stateMutability": "view",
      "type": "function"
    },
    {
      "inputs": [
        {
          "internalType": "address",
          "name": "MerchantContractAddress",
          "type": "address"
        }
      ],
      "name": "getMerchantContractStatusWithdrawals",
      "outputs": [
        {
          "internalType": "uint256",
          "name": "",
          "type": "uint256"
        }
      ],
      "stateMutability": "view",
      "type": "function"
    },
    {
      "inputs": [],
      "name": "getOwnerAddress",
      "outputs": [
        {
          "internalType": "address",
          "name": "",
          "type": "address"
        }
      ],
      "stateMutability": "view",
      "type": "function"
    },
    {
      "inputs": [],
      "name": "getRequiredNumberOfVotes",
      "outputs": [
        {
          "internalType": "uint256",
          "name": "",
          "type": "uint256"
        }
      ],
      "stateMutability": "view",
      "type": "function"
    },
    {
      "inputs": [
        {
          "internalType": "address",
          "name": "",
          "type": "address"
        }
      ],
      "name": "merchants",
      "outputs": [
        {
          "internalType": "contract MerchantContract",
          "name": "merchantContract",
          "type": "address"
        },
        {
          "internalType": "string",
          "name": "name",
          "type": "string"
        },
        {
          "internalType": "uint256",
          "name": "status_contract",
          "type": "uint256"
        },
        {
          "internalType": "uint256",
          "name": "status_withdrawals",
          "type": "uint256"
        },
        {
          "internalType": "uint256",
          "name": "votes",
          "type": "uint256"
        }
      ],
      "stateMutability": "view",
      "type": "function"
    },
    {
      "inputs": [
        {
          "internalType": "address",
          "name": "MerchantContractAddress",
          "type": "address"
        }
      ],
      "name": "unfreezeWithdrawalsMerchantContract",
      "outputs": [],
      "stateMutability": "nonpayable",
      "type": "function"
    },
    {
      "inputs": [
        {
          "internalType": "address",
          "name": "MerchantContractAddress",
          "type": "address"
        }
      ],
      "name": "voteNewMerchantContractApproval",
      "outputs": [],
      "stateMutability": "nonpayable",
      "type": "function"
    }
  ],
  "bytecode": "0x608060405234801561001057600080fd5b50336000806101000a81548173ffffffffffffffffffffffffffffffffffffffff021916908373ffffffffffffffffffffffffffffffffffffffff1602179055506002600181905550615939806100686000396000f3fe60806040523480156200001157600080fd5b5060043610620001175760003560e01c806384c2157f11620000a5578063cb52ec4e116200006f578063cb52ec4e14620002e4578063dcc8eada1462000304578063ee14e9391462000324578063f65e5a66146200035e5762000117565b806384c2157f146200024c578063a4567ea51462000282578063a5a5010114620002a2578063b092a5e314620002c25762000117565b806341ea384c11620000e757806341ea384c14620001b45780635aa61fcd14620001ea57806365e73e69146200020a5780637d88a455146200022c5762000117565b8062effb58146200011c578063086da79914620001525780630b43847014620001725780630c4f65bd1462000192575b600080fd5b6200013a600480360381019062000134919062001769565b6200037e565b604051620001499190620017b6565b60405180910390f35b6200017060048036038101906200016a919062001804565b620003d4565b005b6200019060048036038101906200018a919062001769565b620004f0565b005b6200019c62000863565b604051620001ab91906200189d565b60405180910390f35b620001d26004803603810190620001cc919062001769565b62000895565b604051620001e19190620017b6565b60405180910390f35b62000208600480360381019062000202919062001769565b620008eb565b005b6200021462000a40565b604051620002239190620017b6565b60405180910390f35b6200024a600480360381019062000244919062001769565b62000a4a565b005b6200026a600480360381019062000264919062001769565b62000cf9565b604051620002799190620017b6565b60405180910390f35b620002a060048036038101906200029a919062001a61565b62000d4f565b005b620002c06004803603810190620002ba919062001769565b62000ee2565b005b620002cc62001037565b604051620002db9190620017b6565b60405180910390f35b620003026004803603810190620002fc919062001ac7565b6200103d565b005b6200032260048036038101906200031c919062001af9565b62001051565b005b6200034260048036038101906200033c919062001769565b620011cc565b6040516200035595949392919062001cc0565b60405180910390f35b6200037c600480360381019062000376919062001d24565b620012b2565b005b60006200038a620013ca565b600260008373ffffffffffffffffffffffffffffffffffffffff1673ffffffffffffffffffffffffffffffffffffffff168152602001908152602001600020600301549050919050565b60028060003373ffffffffffffffffffffffffffffffffffffffff1673ffffffffffffffffffffffffffffffffffffffff16815260200190815260200160002060020154146200045b576040517f08c379a0000000000000000000000000000000000000000000000000000000008152600401620004529062001dd0565b60405180910390fd5b6001851415620004a1577fa4c10083eeef463fdb27c1bd6836fc0310dc50589b1b9695a97b78b00a1436ac84846040516200049892919062001df2565b60405180910390a15b6002851415620004e9577ffec773402b469d925a189c9c910ae3efc5776194b342a24b4b88d026d45a0128848383604051620004e09392919062001e1f565b60405180910390a15b5050505050565b6000600260008373ffffffffffffffffffffffffffffffffffffffff1673ffffffffffffffffffffffffffffffffffffffff16815260200190815260200160002060020154141562000579576040517f08c379a0000000000000000000000000000000000000000000000000000000008152600401620005709062001eac565b60405180910390fd5b60028060008373ffffffffffffffffffffffffffffffffffffffff1673ffffffffffffffffffffffffffffffffffffffff16815260200190815260200160002060020154141562000601576040517f08c379a0000000000000000000000000000000000000000000000000000000008152600401620005f89062001f44565b60405180910390fd5b60011515600360003373ffffffffffffffffffffffffffffffffffffffff1673ffffffffffffffffffffffffffffffffffffffff16815260200190815260200160002060008373ffffffffffffffffffffffffffffffffffffffff1673ffffffffffffffffffffffffffffffffffffffff16815260200190815260200160002060000160009054906101000a900460ff1615151415620006d8576040517f08c379a0000000000000000000000000000000000000000000000000000000008152600401620006cf9062001fdc565b60405180910390fd5b6001600260008373ffffffffffffffffffffffffffffffffffffffff1673ffffffffffffffffffffffffffffffffffffffff16815260200190815260200160002060040160008282546200072d91906200202d565b925050819055506001600360003373ffffffffffffffffffffffffffffffffffffffff1673ffffffffffffffffffffffffffffffffffffffff16815260200190815260200160002060008373ffffffffffffffffffffffffffffffffffffffff1673ffffffffffffffffffffffffffffffffffffffff16815260200190815260200160002060000160006101000a81548160ff0219169083151502179055507f2e0bca12597186edfd0c67f6ec9c45313f9bae3ca9d2fd65168e7a0a131d0fe93382604051620007ff9291906200208a565b60405180910390a1600154600260008373ffffffffffffffffffffffffffffffffffffffff1673ffffffffffffffffffffffffffffffffffffffff16815260200190815260200160002060040154111562000860576200085f816200145d565b5b50565b60006200086f620013ca565b60008054906101000a900473ffffffffffffffffffffffffffffffffffffffff16905090565b6000620008a1620013ca565b600260008373ffffffffffffffffffffffffffffffffffffffff1673ffffffffffffffffffffffffffffffffffffffff168152602001908152602001600020600401549050919050565b620008f5620013ca565b6000600260008373ffffffffffffffffffffffffffffffffffffffff1673ffffffffffffffffffffffffffffffffffffffff16815260200190815260200160002060030181905550600260008273ffffffffffffffffffffffffffffffffffffffff1673ffffffffffffffffffffffffffffffffffffffff16815260200190815260200160002060000160009054906101000a900473ffffffffffffffffffffffffffffffffffffffff1673ffffffffffffffffffffffffffffffffffffffff1663e4c4be586040518163ffffffff1660e01b8152600401600060405180830381600087803b158015620009e857600080fd5b505af1158015620009fd573d6000803e3d6000fd5b505050507fbb5abab7720f7597afcce36262e4fc1027dba0f18560ba922a6a57e6abd674a281600060405162000a35929190620020d4565b60405180910390a150565b6000600154905090565b62000a54620013ca565b60028060008373ffffffffffffffffffffffffffffffffffffffff1673ffffffffffffffffffffffffffffffffffffffff168152602001908152602001600020600201541462000adb576040517f08c379a000000000000000000000000000000000000000000000000000000000815260040162000ad29062002151565b60405180910390fd5b600260008273ffffffffffffffffffffffffffffffffffffffff1673ffffffffffffffffffffffffffffffffffffffff16815260200190815260200160002060000160009054906101000a900473ffffffffffffffffffffffffffffffffffffffff1673ffffffffffffffffffffffffffffffffffffffff1663cd61f34c6040518163ffffffff1660e01b8152600401600060405180830381600087803b15801562000b8657600080fd5b505af115801562000b9b573d6000803e3d6000fd5b505050506001600260008373ffffffffffffffffffffffffffffffffffffffff1673ffffffffffffffffffffffffffffffffffffffff168152602001908152602001600020600201819055506000600260008373ffffffffffffffffffffffffffffffffffffffff1673ffffffffffffffffffffffffffffffffffffffff168152602001908152602001600020600401819055506001600260008373ffffffffffffffffffffffffffffffffffffffff1673ffffffffffffffffffffffffffffffffffffffff168152602001908152602001600020600301819055507fb28fbd303a9dc19ef98612e3126597a3ca21a88a64fbf10eccbf6123d5bebf3e81600260008473ffffffffffffffffffffffffffffffffffffffff1673ffffffffffffffffffffffffffffffffffffffff168152602001908152602001600020600101600060405162000cee9392919062002279565b60405180910390a150565b600062000d05620013ca565b600260008373ffffffffffffffffffffffffffffffffffffffff1673ffffffffffffffffffffffffffffffffffffffff168152602001908152602001600020600201549050919050565b62000d59620013ca565b600082823060405162000d6c9062001632565b62000d7a93929190620022ce565b604051809103906000f08015801562000d97573d6000803e3d6000fd5b5090506040518060a001604052808273ffffffffffffffffffffffffffffffffffffffff16815260200183815260200160018152602001600181526020016000815250600260008373ffffffffffffffffffffffffffffffffffffffff1673ffffffffffffffffffffffffffffffffffffffff16815260200190815260200160002060008201518160000160006101000a81548173ffffffffffffffffffffffffffffffffffffffff021916908373ffffffffffffffffffffffffffffffffffffffff160217905550602082015181600101908051906020019062000e7e92919062001640565b506040820151816002015560608201518160030155608082015181600401559050507f0c16fdaf46d6cfe8eed6082ac396cb3fe211ef8715ad2bf05c0833ddb9e3624b81848460405162000ed59392919062002337565b60405180910390a1505050565b62000eec620013ca565b6001600260008373ffffffffffffffffffffffffffffffffffffffff1673ffffffffffffffffffffffffffffffffffffffff16815260200190815260200160002060030181905550600260008273ffffffffffffffffffffffffffffffffffffffff1673ffffffffffffffffffffffffffffffffffffffff16815260200190815260200160002060000160009054906101000a900473ffffffffffffffffffffffffffffffffffffffff1673ffffffffffffffffffffffffffffffffffffffff166356bb54a76040518163ffffffff1660e01b8152600401600060405180830381600087803b15801562000fdf57600080fd5b505af115801562000ff4573d6000803e3d6000fd5b505050507fbb5abab7720f7597afcce36262e4fc1027dba0f18560ba922a6a57e6abd674a28160016040516200102c929190620020d4565b60405180910390a150565b60015481565b62001047620013ca565b8060018190555050565b60028060003373ffffffffffffffffffffffffffffffffffffffff1673ffffffffffffffffffffffffffffffffffffffff1681526020019081526020016000206002015414620010d8576040517f08c379a0000000000000000000000000000000000000000000000000000000008152600401620010cf9062001dd0565b60405180910390fd5b600188141562001126577f16beade7427ee289dce26c197615c361bbd89d36e6e729a2eedd62e71588a6588787878685876040516200111d969594939291906200237b565b60405180910390a15b600288141562001174577f0fedfca5f5acdcd7685b22c7c8a250bedf860eee4f1b99d016dda1f8a0b996418787878787876040516200116b96959493929190620023e8565b60405180910390a15b6003881415620011c2577f6a9933bd593854b64c5635d0938d14aa20b5e77d7d51fa280aad42124eee9d76878787878787604051620011b996959493929190620023e8565b60405180910390a15b5050505050505050565b60026020528060005260406000206000915090508060000160009054906101000a900473ffffffffffffffffffffffffffffffffffffffff16908060010180546200121790620021a2565b80601f01602080910402602001604051908101604052809291908181526020018280546200124590620021a2565b8015620012965780601f106200126a5761010080835404028352916020019162001296565b820191906000526020600020905b8154815290600101906020018083116200127857829003601f168201915b5050505050908060020154908060030154908060040154905085565b60028060003373ffffffffffffffffffffffffffffffffffffffff1673ffffffffffffffffffffffffffffffffffffffff168152602001908152602001600020600201541462001339576040517f08c379a0000000000000000000000000000000000000000000000000000000008152600401620013309062001dd0565b60405180910390fd5b60018314156200137f577f7fcf532c15f0a6db0bd6d0e038bea71d30d808c7d98cb3bf7268a95bf5081b6582826040516200137692919062001df2565b60405180910390a15b6002831415620013c5577f4ee35957461b3fd4f97e9fa8f1562099a40403bdcb8a85ca136771f469a3552c8282604051620013bc92919062001df2565b60405180910390a15b505050565b60008054906101000a900473ffffffffffffffffffffffffffffffffffffffff1673ffffffffffffffffffffffffffffffffffffffff163373ffffffffffffffffffffffffffffffffffffffff16146200145b576040517f08c379a00000000000000000000000000000000000000000000000000000000081526004016200145290620024cb565b60405180910390fd5b565b60028060008373ffffffffffffffffffffffffffffffffffffffff1673ffffffffffffffffffffffffffffffffffffffff16815260200190815260200160002060020181905550600260008273ffffffffffffffffffffffffffffffffffffffff1673ffffffffffffffffffffffffffffffffffffffff16815260200190815260200160002060000160009054906101000a900473ffffffffffffffffffffffffffffffffffffffff1673ffffffffffffffffffffffffffffffffffffffff1663143e61996040518163ffffffff1660e01b8152600401600060405180830381600087803b1580156200154f57600080fd5b505af115801562001564573d6000803e3d6000fd5b505050506000600260008373ffffffffffffffffffffffffffffffffffffffff1673ffffffffffffffffffffffffffffffffffffffff168152602001908152602001600020600301819055507fb28fbd303a9dc19ef98612e3126597a3ca21a88a64fbf10eccbf6123d5bebf3e81600260008473ffffffffffffffffffffffffffffffffffffffff1673ffffffffffffffffffffffffffffffffffffffff1681526020019081526020016000206001016001604051620016279392919062002279565b60405180910390a150565b61341680620024ee83390190565b8280546200164e90620021a2565b90600052602060002090601f016020900481019282620016725760008555620016be565b82601f106200168d57805160ff1916838001178555620016be565b82800160010185558215620016be579182015b82811115620016bd578251825591602001919060010190620016a0565b5b509050620016cd9190620016d1565b5090565b5b80821115620016ec576000816000905550600101620016d2565b5090565b6000604051905090565b600080fd5b600080fd5b600073ffffffffffffffffffffffffffffffffffffffff82169050919050565b6000620017318262001704565b9050919050565b620017438162001724565b81146200174f57600080fd5b50565b600081359050620017638162001738565b92915050565b600060208284031215620017825762001781620016fa565b5b6000620017928482850162001752565b91505092915050565b6000819050919050565b620017b0816200179b565b82525050565b6000602082019050620017cd6000830184620017a5565b92915050565b620017de816200179b565b8114620017ea57600080fd5b50565b600081359050620017fe81620017d3565b92915050565b600080600080600060a08688031215620018235762001822620016fa565b5b60006200183388828901620017ed565b9550506020620018468882890162001752565b94505060406200185988828901620017ed565b93505060606200186c88828901620017ed565b92505060806200187f88828901620017ed565b9150509295509295909350565b620018978162001724565b82525050565b6000602082019050620018b460008301846200188c565b92915050565b6000620018c78262001704565b9050919050565b620018d981620018ba565b8114620018e557600080fd5b50565b600081359050620018f981620018ce565b92915050565b600080fd5b600080fd5b6000601f19601f8301169050919050565b7f4e487b7100000000000000000000000000000000000000000000000000000000600052604160045260246000fd5b620019548262001909565b810181811067ffffffffffffffff821117156200197657620019756200191a565b5b80604052505050565b60006200198b620016f0565b905062001999828262001949565b919050565b600067ffffffffffffffff821115620019bc57620019bb6200191a565b5b620019c78262001909565b9050602081019050919050565b82818337600083830152505050565b6000620019fa620019f4846200199e565b6200197f565b90508281526020810184848401111562001a195762001a1862001904565b5b62001a26848285620019d4565b509392505050565b600082601f83011262001a465762001a45620018ff565b5b813562001a58848260208601620019e3565b91505092915050565b6000806040838503121562001a7b5762001a7a620016fa565b5b600062001a8b85828601620018e8565b925050602083013567ffffffffffffffff81111562001aaf5762001aae620016ff565b5b62001abd8582860162001a2e565b9150509250929050565b60006020828403121562001ae05762001adf620016fa565b5b600062001af084828501620017ed565b91505092915050565b600080600080600080600080610100898b03121562001b1d5762001b1c620016fa565b5b600062001b2d8b828c01620017ed565b985050602062001b408b828c0162001752565b975050604062001b538b828c01620017ed565b965050606062001b668b828c01620017ed565b955050608062001b798b828c0162001752565b94505060a062001b8c8b828c01620017ed565b93505060c062001b9f8b828c01620017ed565b92505060e062001bb28b828c01620017ed565b9150509295985092959890939650565b6000819050919050565b600062001bed62001be762001be18462001704565b62001bc2565b62001704565b9050919050565b600062001c018262001bcc565b9050919050565b600062001c158262001bf4565b9050919050565b62001c278162001c08565b82525050565b600081519050919050565b600082825260208201905092915050565b60005b8381101562001c6957808201518184015260208101905062001c4c565b8381111562001c79576000848401525b50505050565b600062001c8c8262001c2d565b62001c98818562001c38565b935062001caa81856020860162001c49565b62001cb58162001909565b840191505092915050565b600060a08201905062001cd7600083018862001c1c565b818103602083015262001ceb818762001c7f565b905062001cfc6040830186620017a5565b62001d0b6060830185620017a5565b62001d1a6080830184620017a5565b9695505050505050565b60008060006060848603121562001d405762001d3f620016fa565b5b600062001d5086828701620017ed565b935050602062001d638682870162001752565b925050604062001d7686828701620017ed565b9150509250925092565b7f4d65726368616e74206861736e2774206265656e20617070726f766564210000600082015250565b600062001db8601e8362001c38565b915062001dc58262001d80565b602082019050919050565b6000602082019050818103600083015262001deb8162001da9565b9050919050565b600060408201905062001e0960008301856200188c565b62001e186020830184620017a5565b9392505050565b600060608201905062001e3660008301866200188c565b62001e456020830185620017a5565b62001e546040830184620017a5565b949350505050565b7f4d65726368616e7420646f65736e277420657869737421000000000000000000600082015250565b600062001e9460178362001c38565b915062001ea18262001e5c565b602082019050919050565b6000602082019050818103600083015262001ec78162001e85565b9050919050565b7f4d65726368616e742068617320616c7265616479206265656e20617070726f7660008201527f6564210000000000000000000000000000000000000000000000000000000000602082015250565b600062001f2c60238362001c38565b915062001f398262001ece565b604082019050919050565b6000602082019050818103600083015262001f5f8162001f1d565b9050919050565b7f5468697320616464726573732068617320616c726561647920766f746564206960008201527f6e2074686973204d65726368616e74436f6e7472616374210000000000000000602082015250565b600062001fc460388362001c38565b915062001fd18262001f66565b604082019050919050565b6000602082019050818103600083015262001ff78162001fb5565b9050919050565b7f4e487b7100000000000000000000000000000000000000000000000000000000600052601160045260246000fd5b60006200203a826200179b565b915062002047836200179b565b9250827fffffffffffffffffffffffffffffffffffffffffffffffffffffffffffffffff038211156200207f576200207e62001ffe565b5b828201905092915050565b6000604082019050620020a160008301856200188c565b620020b060208301846200188c565b9392505050565b60008115159050919050565b620020ce81620020b7565b82525050565b6000604082019050620020eb60008301856200188c565b620020fa6020830184620020c3565b9392505050565b7f5468697320616464726573732069736e277420617070726f7665642100000000600082015250565b600062002139601c8362001c38565b9150620021468262002101565b602082019050919050565b600060208201905081810360008301526200216c816200212a565b9050919050565b7f4e487b7100000000000000000000000000000000000000000000000000000000600052602260045260246000fd5b60006002820490506001821680620021bb57607f821691505b60208210811415620021d257620021d162002173565b5b50919050565b60008190508160005260206000209050919050565b60008154620021fc81620021a2565b62002208818662001c38565b94506001821660008114620022265760018114620022395762002270565b60ff198316865260208601935062002270565b6200224485620021d8565b60005b83811015620022685781548189015260018201915060208101905062002247565b808801955050505b50505092915050565b60006060820190506200229060008301866200188c565b8181036020830152620022a48185620021ed565b9050620022b56040830184620020c3565b949350505050565b620022c881620018ba565b82525050565b6000606082019050620022e56000830186620022bd565b8181036020830152620022f9818562001c7f565b90506200230a60408301846200188c565b949350505050565b60006200231f8262001bf4565b9050919050565b620023318162002312565b82525050565b60006060820190506200234e60008301866200188c565b6200235d602083018562002326565b818103604083015262002371818462001c7f565b9050949350505050565b600060c0820190506200239260008301896200188c565b620023a16020830188620017a5565b620023b06040830187620017a5565b620023bf6060830186620017a5565b620023ce6080830185620017a5565b620023dd60a0830184620017a5565b979650505050505050565b600060c082019050620023ff60008301896200188c565b6200240e6020830188620017a5565b6200241d6040830187620017a5565b6200242c60608301866200188c565b6200243b6080830185620017a5565b6200244a60a0830184620017a5565b979650505050505050565b7f4f6e6c79204f776e65722063616e2063616c6c20746869732066756e6374696f60008201527f6e00000000000000000000000000000000000000000000000000000000000000602082015250565b6000620024b360218362001c38565b9150620024c08262002455565b604082019050919050565b60006020820190508181036000830152620024e681620024a4565b905091905056fe60806040523480156200001157600080fd5b506040516200341638038062003416833981810160405281019062000037919062000503565b620000576200004b6200014060201b60201c565b6200014860201b60201c565b82600260006101000a81548173ffffffffffffffffffffffffffffffffffffffff021916908373ffffffffffffffffffffffffffffffffffffffff1602179055508160039080519060200190620000b09291906200020c565b5080600160006101000a81548173ffffffffffffffffffffffffffffffffffffffff021916908373ffffffffffffffffffffffffffffffffffffffff160217905550600060048190555060006005819055506000600160146101000a81548160ff02191690831515021790555060018060156101000a81548160ff021916908315150217905550505050620005e3565b600033905090565b60008060009054906101000a900473ffffffffffffffffffffffffffffffffffffffff169050816000806101000a81548173ffffffffffffffffffffffffffffffffffffffff021916908373ffffffffffffffffffffffffffffffffffffffff1602179055508173ffffffffffffffffffffffffffffffffffffffff168173ffffffffffffffffffffffffffffffffffffffff167f8be0079c531659141344cd1fd0a4f28419497f9722a3daafe3b4186f6b6457e060405160405180910390a35050565b8280546200021a90620005ad565b90600052602060002090601f0160209004810192826200023e57600085556200028a565b82601f106200025957805160ff19168380011785556200028a565b828001600101855582156200028a579182015b82811115620002895782518255916020019190600101906200026c565b5b5090506200029991906200029d565b5090565b5b80821115620002b85760008160009055506001016200029e565b5090565b6000604051905090565b600080fd5b600080fd5b600073ffffffffffffffffffffffffffffffffffffffff82169050919050565b6000620002fd82620002d0565b9050919050565b6200030f81620002f0565b81146200031b57600080fd5b50565b6000815190506200032f8162000304565b92915050565b600080fd5b600080fd5b6000601f19601f8301169050919050565b7f4e487b7100000000000000000000000000000000000000000000000000000000600052604160045260246000fd5b6200038a826200033f565b810181811067ffffffffffffffff82111715620003ac57620003ab62000350565b5b80604052505050565b6000620003c1620002bc565b9050620003cf82826200037f565b919050565b600067ffffffffffffffff821115620003f257620003f162000350565b5b620003fd826200033f565b9050602081019050919050565b60005b838110156200042a5780820151818401526020810190506200040d565b838111156200043a576000848401525b50505050565b6000620004576200045184620003d4565b620003b5565b9050828152602081018484840111156200047657620004756200033a565b5b620004838482856200040a565b509392505050565b600082601f830112620004a357620004a262000335565b5b8151620004b584826020860162000440565b91505092915050565b6000620004cb82620002d0565b9050919050565b620004dd81620004be565b8114620004e957600080fd5b50565b600081519050620004fd81620004d2565b92915050565b6000806000606084860312156200051f576200051e620002c6565b5b60006200052f868287016200031e565b935050602084015167ffffffffffffffff811115620005535762000552620002cb565b5b62000561868287016200048b565b92505060406200057486828701620004ec565b9150509250925092565b7f4e487b7100000000000000000000000000000000000000000000000000000000600052602260045260246000fd5b60006002820490506001821680620005c657607f821691505b60208210811415620005dd57620005dc6200057e565b5b50919050565b612e2380620005f36000396000f3fe6080604052600436106101815760003560e01c8063903b8c76116100d1578063d270e7ab1161008a578063e4c4be5811610064578063e4c4be58146104c6578063e796a6eb146104dd578063f2441aba14610506578063f2fde38b1461053157610181565b8063d270e7ab14610468578063d4e9329214610493578063d96a094a146104aa57610181565b8063903b8c761461037e578063971d852f146103a95780639b27c10f146103d2578063a18bf1e9146103fb578063b37d61f814610426578063cd61f34c1461045157610181565b806356bb54a71161013e57806368db764a1161011857806368db764a146102d0578063715018a6146102fb5780638392fe31146103125780638da5cb5b1461035357610181565b806356bb54a7146102515780635ba7a069146102685780635c975abb146102a557610181565b806306fdde03146101865780630c4f65bd146101b1578063143e6199146101dc5780631536e674146101f35780631833b7c6146101fd57806319d40b0814610226575b600080fd5b34801561019257600080fd5b5061019b61055a565b6040516101a89190611c5b565b60405180910390f35b3480156101bd57600080fd5b506101c66105e8565b6040516101d39190611cbe565b60405180910390f35b3480156101e857600080fd5b506101f1610605565b005b6101fb610644565b005b34801561020957600080fd5b50610224600480360381019061021f9190611d1c565b610745565b005b34801561023257600080fd5b5061023b610799565b6040516102489190611d64565b60405180910390f35b34801561025d57600080fd5b506102666107ac565b005b34801561027457600080fd5b5061028f600480360381019061028a9190611db5565b6107d0565b60405161029c9190611df1565b60405180910390f35b3480156102b157600080fd5b506102ba6107f8565b6040516102c79190611d64565b60405180910390f35b3480156102dc57600080fd5b506102e561080b565b6040516102f29190611df1565b60405180910390f35b34801561030757600080fd5b50610310610825565b005b34801561031e57600080fd5b5061033960048036038101906103349190611db5565b610839565b60405161034a959493929190611e0c565b60405180910390f35b34801561035f57600080fd5b5061036861086f565b6040516103759190611cbe565b60405180910390f35b34801561038a57600080fd5b50610393610898565b6040516103a09190611c5b565b60405180910390f35b3480156103b557600080fd5b506103d060048036038101906103cb9190611db5565b61093a565b005b3480156103de57600080fd5b506103f960048036038101906103f49190611e5f565b610af9565b005b34801561040757600080fd5b50610410610c22565b60405161041d9190611cbe565b60405180910390f35b34801561043257600080fd5b5061043b610c5c565b6040516104489190611df1565b60405180910390f35b34801561045d57600080fd5b50610466610c76565b005b34801561047457600080fd5b5061047d610cb5565b60405161048a9190611f11565b60405180910390f35b34801561049f57600080fd5b506104a8610cdb565b005b6104c460048036038101906104bf9190611db5565b610e41565b005b3480156104d257600080fd5b506104db611147565b005b3480156104e957600080fd5b5061050460048036038101906104ff9190611f2c565b61116c565b005b34801561051257600080fd5b5061051b611562565b6040516105289190611cbe565b60405180910390f35b34801561053d57600080fd5b5061055860048036038101906105539190611fab565b611594565b005b6003805461056790612007565b80601f016020809104026020016040519081016040528092919081815260200182805461059390612007565b80156105e05780601f106105b5576101008083540402835291602001916105e0565b820191906000526020600020905b8154815290600101906020018083116105c357829003601f168201915b505050505081565b60006105f2611618565b60006105fc61086f565b90508091505090565b61060d611618565b60018060146101000a81548160ff0219169083151502179055506000600160156101000a81548160ff021916908315150217905550565b61064c611696565b610654611728565b6000341415610698576040517f08c379a000000000000000000000000000000000000000000000000000000000815260040161068f90612085565b60405180910390fd5b34600560008282546106aa91906120d4565b92505081905550600160009054906101000a900473ffffffffffffffffffffffffffffffffffffffff1673ffffffffffffffffffffffffffffffffffffffff1663f65e5a66600230346040518463ffffffff1660e01b815260040161071193929190612165565b600060405180830381600087803b15801561072b57600080fd5b505af115801561073f573d6000803e3d6000fd5b50505050565b61074d611696565b610755611728565b80600260006101000a81548173ffffffffffffffffffffffffffffffffffffffff021916908373ffffffffffffffffffffffffffffffffffffffff16021790555050565b600160149054906101000a900460ff1681565b6107b4611618565b60018060156101000a81548160ff021916908315150217905550565b60006107da611728565b60066000838152602001908152602001600020600201549050919050565b600160159054906101000a900460ff1681565b6000610815611696565b61081d611728565b600454905090565b61082d611618565b6108376000611780565b565b60066020528060005260406000206000915090508060000154908060010154908060020154908060030154908060040154905085565b60008060009054906101000a900473ffffffffffffffffffffffffffffffffffffffff16905090565b60606108a2611696565b6108aa611728565b600380546108b790612007565b80601f01602080910402602001604051908101604052809291908181526020018280546108e390612007565b80156109305780601f1061090557610100808354040283529160200191610930565b820191906000526020600020905b81548152906001019060200180831161091357829003601f168201915b5050505050905090565b610942611696565b61094a611728565b426006600083815260200190815260200160002060000154106109a2576040517f08c379a00000000000000000000000000000000000000000000000000000000081526004016109999061220e565b60405180910390fd5b6006600082815260200190815260200160002060010154600460008282546109ca919061222e565b925050819055506006600082815260200190815260200160002060010154600660008381526020019081526020016000206003016000828254610a0d919061222e565b92505081905550600660008281526020019081526020016000206001015460056000828254610a3c91906120d4565b9250508190555060036006600083815260200190815260200160002060020181905550600160009054906101000a900473ffffffffffffffffffffffffffffffffffffffff1673ffffffffffffffffffffffffffffffffffffffff1663086da799600130846000806040518663ffffffff1660e01b8152600401610ac49594939291906122d8565b600060405180830381600087803b158015610ade57600080fd5b505af1158015610af2573d6000803e3d6000fd5b5050505050565b610b01611696565b610b09611728565b6040518060a00160405280428152602001838152602001600181526020016000815260200182815250600660008581526020019081526020016000206000820151816000015560208201518160010155604082015181600201556060820151816003015560808201518160040155905050600060019050600160009054906101000a900473ffffffffffffffffffffffffffffffffffffffff1673ffffffffffffffffffffffffffffffffffffffff1663dcc8eada60013087423089888a6040518963ffffffff1660e01b8152600401610bea98979695949392919061232b565b600060405180830381600087803b158015610c0457600080fd5b505af1158015610c18573d6000803e3d6000fd5b5050505050505050565b6000610c2c611696565b610c34611728565b600260009054906101000a900473ffffffffffffffffffffffffffffffffffffffff16905090565b6000610c66611696565b610c6e611728565b600554905090565b610c7e611618565b6000600160146101000a81548160ff02191690831515021790555060018060156101000a81548160ff021916908315150217905550565b600160009054906101000a900473ffffffffffffffffffffffffffffffffffffffff1681565b610ce3611696565b610ceb611844565b610cf3611728565b600060055411610d38576040517f08c379a0000000000000000000000000000000000000000000000000000000008152600401610d2f9061241b565b60405180910390fd5b600260009054906101000a900473ffffffffffffffffffffffffffffffffffffffff1673ffffffffffffffffffffffffffffffffffffffff166108fc6005549081150290604051600060405180830381858888f19350505050158015610da2573d6000803e3d6000fd5b50600160009054906101000a900473ffffffffffffffffffffffffffffffffffffffff1673ffffffffffffffffffffffffffffffffffffffff1663f65e5a666001306005546040518463ffffffff1660e01b8152600401610e059392919061243b565b600060405180830381600087803b158015610e1f57600080fd5b505af1158015610e33573d6000803e3d6000fd5b505050506000600581905550565b610e49611728565b6000341415610e8d576040517f08c379a0000000000000000000000000000000000000000000000000000000008152600401610e8490612085565b60405180910390fd5b600060066000838152602001908152602001600020600201541415610ee7576040517f08c379a0000000000000000000000000000000000000000000000000000000008152600401610ede906124be565b60405180910390fd5b600260066000838152602001908152602001600020600201541415610f41576040517f08c379a0000000000000000000000000000000000000000000000000000000008152600401610f3890612550565b60405180910390fd5b600360066000838152602001908152602001600020600201541415610f9b576040517f08c379a0000000000000000000000000000000000000000000000000000000008152600401610f92906125e2565b60405180910390fd5b60066000828152602001908152602001600020600101543414610ff3576040517f08c379a0000000000000000000000000000000000000000000000000000000008152600401610fea9061264e565b60405180910390fd5b346004600082825461100591906120d4565b9250508190555060066000828152602001908152602001600020600401544261102e91906120d4565b60066000838152602001908152602001600020600001819055506002600660008381526020019081526020016000206002018190555034600660008381526020019081526020016000206003018190555061108a33600061189c565b600060029050600160009054906101000a900473ffffffffffffffffffffffffffffffffffffffff1673ffffffffffffffffffffffffffffffffffffffff1663dcc8eada60023085600660008881526020019081526020016000206000015433348860006040518963ffffffff1660e01b815260040161111198979695949392919061266e565b600060405180830381600087803b15801561112b57600080fd5b505af115801561113f573d6000803e3d6000fd5b505050505050565b61114f611618565b6000600160156101000a81548160ff021916908315150217905550565b611174611696565b61117c611844565b611184611728565b600081116111c7576040517f08c379a00000000000000000000000000000000000000000000000000000000081526004016111be9061275e565b60405180910390fd5b6006600084815260200190815260200160002060010154811115611220576040517f08c379a0000000000000000000000000000000000000000000000000000000008152600401611217906127f0565b60405180910390fd5b60006006600085815260200190815260200160002060020154141561127a576040517f08c379a0000000000000000000000000000000000000000000000000000000008152600401611271906124be565b60405180910390fd5b6001600660008581526020019081526020016000206002015414156112d4576040517f08c379a00000000000000000000000000000000000000000000000000000000081526004016112cb90612882565b60405180910390fd5b60036006600085815260200190815260200160002060020154141561132e576040517f08c379a000000000000000000000000000000000000000000000000000000000815260040161132590612914565b60405180910390fd5b8060055460045461133f91906120d4565b1015611380576040517f08c379a0000000000000000000000000000000000000000000000000000000008152600401611377906129a6565b60405180910390fd5b806006600085815260200190815260200160002060030154106113e857806006600085815260200190815260200160002060030160008282546113c3919061222e565b9250508190555080600460008282546113dc919061222e565b9250508190555061144b565b806005541061140f578060056000828254611403919061222e565b9250508190555061144a565b6040517f08c379a000000000000000000000000000000000000000000000000000000000815260040161144190612a38565b60405180910390fd5b5b8173ffffffffffffffffffffffffffffffffffffffff166108fc829081150290604051600060405180830381858888f19350505050158015611491573d6000803e3d6000fd5b50600460066000858152602001908152602001600020600201819055506114b982600161189c565b600060049050600160009054906101000a900473ffffffffffffffffffffffffffffffffffffffff1673ffffffffffffffffffffffffffffffffffffffff1663dcc8eada600330874288888860006040518963ffffffff1660e01b815260040161152a989796959493929190612ab4565b600060405180830381600087803b15801561154457600080fd5b505af1158015611558573d6000803e3d6000fd5b5050505050505050565b600061156c611618565b600260009054906101000a900473ffffffffffffffffffffffffffffffffffffffff16905090565b61159c611618565b600073ffffffffffffffffffffffffffffffffffffffff168173ffffffffffffffffffffffffffffffffffffffff16141561160c576040517f08c379a000000000000000000000000000000000000000000000000000000000815260040161160390612ba4565b60405180910390fd5b61161581611780565b50565b611620611bba565b73ffffffffffffffffffffffffffffffffffffffff1661163e61086f565b73ffffffffffffffffffffffffffffffffffffffff1614611694576040517f08c379a000000000000000000000000000000000000000000000000000000000815260040161168b90612c10565b60405180910390fd5b565b600260009054906101000a900473ffffffffffffffffffffffffffffffffffffffff1673ffffffffffffffffffffffffffffffffffffffff163373ffffffffffffffffffffffffffffffffffffffff1614611726576040517f08c379a000000000000000000000000000000000000000000000000000000000815260040161171d90612ca2565b60405180910390fd5b565b60011515600160149054906101000a900460ff1615151461177e576040517f08c379a000000000000000000000000000000000000000000000000000000000815260040161177590612d0e565b60405180910390fd5b565b60008060009054906101000a900473ffffffffffffffffffffffffffffffffffffffff169050816000806101000a81548173ffffffffffffffffffffffffffffffffffffffff021916908373ffffffffffffffffffffffffffffffffffffffff1602179055508173ffffffffffffffffffffffffffffffffffffffff168173ffffffffffffffffffffffffffffffffffffffff167f8be0079c531659141344cd1fd0a4f28419497f9722a3daafe3b4186f6b6457e060405160405180910390a35050565b60001515600160159054906101000a900460ff1615151461189a576040517f08c379a000000000000000000000000000000000000000000000000000000000815260040161189190612d7a565b60405180910390fd5b565b600081141561198057600160076000600260009054906101000a900473ffffffffffffffffffffffffffffffffffffffff1673ffffffffffffffffffffffffffffffffffffffff1673ffffffffffffffffffffffffffffffffffffffff168152602001908152602001600020600001600082825461191a91906120d4565b925050819055506001600860008473ffffffffffffffffffffffffffffffffffffffff1673ffffffffffffffffffffffffffffffffffffffff168152602001908152602001600020600001600082825461197491906120d4565b92505081905550611a57565b600160076000600260009054906101000a900473ffffffffffffffffffffffffffffffffffffffff1673ffffffffffffffffffffffffffffffffffffffff1673ffffffffffffffffffffffffffffffffffffffff16815260200190815260200160002060010160008282546119f591906120d4565b925050819055506001600860008473ffffffffffffffffffffffffffffffffffffffff1673ffffffffffffffffffffffffffffffffffffffff1681526020019081526020016000206001016000828254611a4f91906120d4565b925050819055505b600160009054906101000a900473ffffffffffffffffffffffffffffffffffffffff1673ffffffffffffffffffffffffffffffffffffffff1663086da799600230600060076000600260009054906101000a900473ffffffffffffffffffffffffffffffffffffffff1673ffffffffffffffffffffffffffffffffffffffff1673ffffffffffffffffffffffffffffffffffffffff1681526020019081526020016000206000015460076000600260009054906101000a900473ffffffffffffffffffffffffffffffffffffffff1673ffffffffffffffffffffffffffffffffffffffff1673ffffffffffffffffffffffffffffffffffffffff168152602001908152602001600020600101546040518663ffffffff1660e01b8152600401611b84959493929190612d9a565b600060405180830381600087803b158015611b9e57600080fd5b505af1158015611bb2573d6000803e3d6000fd5b505050505050565b600033905090565b600081519050919050565b600082825260208201905092915050565b60005b83811015611bfc578082015181840152602081019050611be1565b83811115611c0b576000848401525b50505050565b6000601f19601f8301169050919050565b6000611c2d82611bc2565b611c378185611bcd565b9350611c47818560208601611bde565b611c5081611c11565b840191505092915050565b60006020820190508181036000830152611c758184611c22565b905092915050565b600073ffffffffffffffffffffffffffffffffffffffff82169050919050565b6000611ca882611c7d565b9050919050565b611cb881611c9d565b82525050565b6000602082019050611cd36000830184611caf565b92915050565b600080fd5b6000611ce982611c7d565b9050919050565b611cf981611cde565b8114611d0457600080fd5b50565b600081359050611d1681611cf0565b92915050565b600060208284031215611d3257611d31611cd9565b5b6000611d4084828501611d07565b91505092915050565b60008115159050919050565b611d5e81611d49565b82525050565b6000602082019050611d796000830184611d55565b92915050565b6000819050919050565b611d9281611d7f565b8114611d9d57600080fd5b50565b600081359050611daf81611d89565b92915050565b600060208284031215611dcb57611dca611cd9565b5b6000611dd984828501611da0565b91505092915050565b611deb81611d7f565b82525050565b6000602082019050611e066000830184611de2565b92915050565b600060a082019050611e216000830188611de2565b611e2e6020830187611de2565b611e3b6040830186611de2565b611e486060830185611de2565b611e556080830184611de2565b9695505050505050565b600080600060608486031215611e7857611e77611cd9565b5b6000611e8686828701611da0565b9350506020611e9786828701611da0565b9250506040611ea886828701611da0565b9150509250925092565b6000819050919050565b6000611ed7611ed2611ecd84611c7d565b611eb2565b611c7d565b9050919050565b6000611ee982611ebc565b9050919050565b6000611efb82611ede565b9050919050565b611f0b81611ef0565b82525050565b6000602082019050611f266000830184611f02565b92915050565b600080600060608486031215611f4557611f44611cd9565b5b6000611f5386828701611da0565b9350506020611f6486828701611d07565b9250506040611f7586828701611da0565b9150509250925092565b611f8881611c9d565b8114611f9357600080fd5b50565b600081359050611fa581611f7f565b92915050565b600060208284031215611fc157611fc0611cd9565b5b6000611fcf84828501611f96565b91505092915050565b7f4e487b7100000000000000000000000000000000000000000000000000000000600052602260045260246000fd5b6000600282049050600182168061201f57607f821691505b6020821081141561203357612032611fd8565b5b50919050565b7f416d6f756e742073686f756c642062652067726561746572207468616e203021600082015250565b600061206f602083611bcd565b915061207a82612039565b602082019050919050565b6000602082019050818103600083015261209e81612062565b9050919050565b7f4e487b7100000000000000000000000000000000000000000000000000000000600052601160045260246000fd5b60006120df82611d7f565b91506120ea83611d7f565b9250827fffffffffffffffffffffffffffffffffffffffffffffffffffffffffffffffff0382111561211f5761211e6120a5565b5b828201905092915050565b6000819050919050565b600061214f61214a6121458461212a565b611eb2565b611d7f565b9050919050565b61215f81612134565b82525050565b600060608201905061217a6000830186612156565b6121876020830185611caf565b6121946040830184611de2565b949350505050565b7f54686520657363726f772074696d65206f66207468697320707572636861736560008201527f2069736e2774206f766572207965742100000000000000000000000000000000602082015250565b60006121f8603083611bcd565b91506122038261219c565b604082019050919050565b60006020820190508181036000830152612227816121eb565b9050919050565b600061223982611d7f565b915061224483611d7f565b925082821015612257576122566120a5565b5b828203905092915050565b6000819050919050565b600061228761228261227d84612262565b611eb2565b611d7f565b9050919050565b6122978161226c565b82525050565b6000819050919050565b60006122c26122bd6122b88461229d565b611eb2565b611d7f565b9050919050565b6122d2816122a7565b82525050565b600060a0820190506122ed600083018861228e565b6122fa6020830187611caf565b6123076040830186611de2565b61231460608301856122c9565b61232160808301846122c9565b9695505050505050565b600061010082019050612341600083018b61228e565b61234e602083018a611caf565b61235b6040830189611de2565b6123686060830188611de2565b6123756080830187611caf565b61238260a0830186611de2565b61238f60c0830185611de2565b61239c60e0830184611de2565b9998505050505050505050565b7f42616c616e63652073686f756c642062652067726561746572207468616e203060008201527f2121000000000000000000000000000000000000000000000000000000000000602082015250565b6000612405602283611bcd565b9150612410826123a9565b604082019050919050565b60006020820190508181036000830152612434816123f8565b9050919050565b6000606082019050612450600083018661228e565b61245d6020830185611caf565b61246a6040830184611de2565b949350505050565b7f54686520707572636861736520646f65736e2774206578697374210000000000600082015250565b60006124a8601b83611bcd565b91506124b382612472565b602082019050919050565b600060208201905081810360008301526124d78161249b565b9050919050565b7f5468652070757263686173652068617320616c7265616479206265656e20706160008201527f6964210000000000000000000000000000000000000000000000000000000000602082015250565b600061253a602383611bcd565b9150612545826124de565b604082019050919050565b600060208201905081810360008301526125698161252d565b9050919050565b7f5468652070757263686173652068617320616c7265616479206265656e20726560008201527f66756e6465642100000000000000000000000000000000000000000000000000602082015250565b60006125cc602783611bcd565b91506125d782612570565b604082019050919050565b600060208201905081810360008301526125fb816125bf565b9050919050565b7f57726f6e6720616d6f756e742100000000000000000000000000000000000000600082015250565b6000612638600d83611bcd565b915061264382612602565b602082019050919050565b600060208201905081810360008301526126678161262b565b9050919050565b600061010082019050612684600083018b612156565b612691602083018a611caf565b61269e6040830189611de2565b6126ab6060830188611de2565b6126b86080830187611caf565b6126c560a0830186611de2565b6126d260c0830185611de2565b6126df60e08301846122c9565b9998505050505050505050565b7f526566756e6420616d6f756e742073686f756c6420626520677265617465722060008201527f7468616e20302121000000000000000000000000000000000000000000000000602082015250565b6000612748602883611bcd565b9150612753826126ec565b604082019050919050565b600060208201905081810360008301526127778161273b565b9050919050565b7f526566756e6420616d6f756e742073686f756c646e277420626520677265617460008201527f6572207468616e20746865207075726368617365416d6f756e74210000000000602082015250565b60006127da603b83611bcd565b91506127e58261277e565b604082019050919050565b60006020820190508181036000830152612809816127cd565b9050919050565b7f54686174207075726368617365206861736e277420796574206265656e20706160008201527f6964210000000000000000000000000000000000000000000000000000000000602082015250565b600061286c602383611bcd565b915061287782612810565b604082019050919050565b6000602082019050818103600083015261289b8161285f565b9050919050565b7f546861742070757263686173652068617320616c7265616479206265656e207260008201527f6566756e64656421000000000000000000000000000000000000000000000000602082015250565b60006128fe602883611bcd565b9150612909826128a2565b604082019050919050565b6000602082019050818103600083015261292d816128f1565b9050919050565b7f596f7520646f6e2774206861766520656e6f756768206d6f6e657920696e207460008201527f686520736d6172742d636f6e7472616374210000000000000000000000000000602082015250565b6000612990603283611bcd565b915061299b82612934565b604082019050919050565b600060208201905081810360008301526129bf81612983565b9050919050565b7f4572726f722070726f63657373696e6720726566756e642c20636865636b207960008201527f6f757220736d6172742d636f6e74726163742062616c616e6365210000000000602082015250565b6000612a22603b83611bcd565b9150612a2d826129c6565b604082019050919050565b60006020820190508181036000830152612a5181612a15565b9050919050565b6000819050919050565b6000612a7d612a78612a7384612a58565b611eb2565b611d7f565b9050919050565b612a8d81612a62565b82525050565b6000612a9e82611ede565b9050919050565b612aae81612a93565b82525050565b600061010082019050612aca600083018b612a84565b612ad7602083018a611caf565b612ae46040830189611de2565b612af16060830188611de2565b612afe6080830187612aa5565b612b0b60a0830186611de2565b612b1860c0830185611de2565b612b2560e08301846122c9565b9998505050505050505050565b7f4f776e61626c653a206e6577206f776e657220697320746865207a65726f206160008201527f6464726573730000000000000000000000000000000000000000000000000000602082015250565b6000612b8e602683611bcd565b9150612b9982612b32565b604082019050919050565b60006020820190508181036000830152612bbd81612b81565b9050919050565b7f4f776e61626c653a2063616c6c6572206973206e6f7420746865206f776e6572600082015250565b6000612bfa602083611bcd565b9150612c0582612bc4565b602082019050919050565b60006020820190508181036000830152612c2981612bed565b9050919050565b7f4f6e6c79204d65726368616e742063616e2063616c6c20746869732066756e6360008201527f74696f6e00000000000000000000000000000000000000000000000000000000602082015250565b6000612c8c602483611bcd565b9150612c9782612c30565b604082019050919050565b60006020820190508181036000830152612cbb81612c7f565b9050919050565b7f4d65726368616e74206e6f7420617070726f7665642100000000000000000000600082015250565b6000612cf8601683611bcd565b9150612d0382612cc2565b602082019050919050565b60006020820190508181036000830152612d2781612ceb565b9050919050565b7f5769746864726177616c73206172652070617573656421000000000000000000600082015250565b6000612d64601783611bcd565b9150612d6f82612d2e565b602082019050919050565b60006020820190508181036000830152612d9381612d57565b9050919050565b600060a082019050612daf6000830188612156565b612dbc6020830187611caf565b612dc960408301866122c9565b612dd66060830185611de2565b612de36080830184611de2565b969550505050505056fea26469706673582212205fbc00ab60094af70d05dbc0ec5deed877dc9f38e3a50ca1f82299513579c05164736f6c63430008090033a2646970667358221220b8cb51e4cbe6ee85078bbd468f8093bbc24fe9d87f5d5d9ab8be648a93b6943f64736f6c63430008090033",
  "linkReferences": {},
  "deployedLinkReferences": {}
}