{
  "_format": "hh-sol-artifact-1",
  "contractName": "Lock",
  "sourceName": "contracts/Lock.sol",
  "abi": [
    {
      "anonymous": false,
      "inputs": [
        {
          "indexed": false,
          "internalType": "uint256",
          "name": "amount",
          "type": "uint256"
        },
        {
          "indexed": false,
          "internalType": "uint256",
          "name": "when",
          "type": "uint256"
        }
      ],
      "name": "Withdrawal",
      "type": "event"
    },
    {
      "inputs": [],
      "name": "hello",
      "outputs": [
        {
          "internalType": "string",
          "name": "",
          "type": "string"
        }
      ],
      "stateMutability": "view",
      "type": "function"
    },
    {
      "inputs": [],
      "name": "owner",
      "outputs": [
        {
          "internalType": "address payable",
          "name": "",
          "type": "address"
        }
      ],
      "stateMutability": "view",
      "type": "function"
    },
    {
      "inputs": [],
      "name": "unlockTime",
      "outputs": [
        {
          "internalType": "uint256",
          "name": "",
          "type": "uint256"
        }
      ],
      "stateMutability": "view",
      "type": "function"
    },
    {
      "inputs": [],
      "name": "withdraw",
      "outputs": [],
      "stateMutability": "nonpayable",
      "type": "function"
    }
  ],
  "bytecode": "0x60806040526040518060400160405280600481526020017f74657374000000000000000000000000000000000000000000000000000000008152506002908051906020019061004f929190610062565b5034801561005c57600080fd5b50610166565b82805461006e90610134565b90600052602060002090601f01602090048101928261009057600085556100d7565b82601f106100a957805160ff19168380011785556100d7565b828001600101855582156100d7579182015b828111156100d65782518255916020019190600101906100bb565b5b5090506100e491906100e8565b5090565b5b808211156101015760008160009055506001016100e9565b5090565b7f4e487b7100000000000000000000000000000000000000000000000000000000600052602260045260246000fd5b6000600282049050600182168061014c57607f821691505b602082108114156101605761015f610105565b5b50919050565b6105cf806101756000396000f3fe608060405234801561001057600080fd5b506004361061004c5760003560e01c806319ff1d2114610051578063251c1aa31461006f5780633ccfd60b1461008d5780638da5cb5b14610097575b600080fd5b6100596100b5565b6040516100669190610385565b60405180910390f35b610077610147565b60405161008491906103c0565b60405180910390f35b61009561014d565b005b61009f6102c6565b6040516100ac919061041c565b60405180910390f35b6060600280546100c490610466565b80601f01602080910402602001604051908101604052809291908181526020018280546100f090610466565b801561013d5780601f106101125761010080835404028352916020019161013d565b820191906000526020600020905b81548152906001019060200180831161012057829003601f168201915b5050505050905090565b60005481565b600054421015610192576040517f08c379a0000000000000000000000000000000000000000000000000000000008152600401610189906104e4565b60405180910390fd5b600160009054906101000a900473ffffffffffffffffffffffffffffffffffffffff1673ffffffffffffffffffffffffffffffffffffffff163373ffffffffffffffffffffffffffffffffffffffff1614610222576040517f08c379a000000000000000000000000000000000000000000000000000000000815260040161021990610550565b60405180910390fd5b7fbf2ed60bd5b5965d685680c01195c9514e4382e28e3a5a2d2d5244bf59411b934742604051610253929190610570565b60405180910390a1600160009054906101000a900473ffffffffffffffffffffffffffffffffffffffff1673ffffffffffffffffffffffffffffffffffffffff166108fc479081150290604051600060405180830381858888f193505050501580156102c3573d6000803e3d6000fd5b50565b600160009054906101000a900473ffffffffffffffffffffffffffffffffffffffff1681565b600081519050919050565b600082825260208201905092915050565b60005b8381101561032657808201518184015260208101905061030b565b83811115610335576000848401525b50505050565b6000601f19601f8301169050919050565b6000610357826102ec565b61036181856102f7565b9350610371818560208601610308565b61037a8161033b565b840191505092915050565b6000602082019050818103600083015261039f818461034c565b905092915050565b6000819050919050565b6103ba816103a7565b82525050565b60006020820190506103d560008301846103b1565b92915050565b600073ffffffffffffffffffffffffffffffffffffffff82169050919050565b6000610406826103db565b9050919050565b610416816103fb565b82525050565b6000602082019050610431600083018461040d565b92915050565b7f4e487b7100000000000000000000000000000000000000000000000000000000600052602260045260246000fd5b6000600282049050600182168061047e57607f821691505b6020821081141561049257610491610437565b5b50919050565b7f596f752063616e27742077697468647261772079657400000000000000000000600082015250565b60006104ce6016836102f7565b91506104d982610498565b602082019050919050565b600060208201905081810360008301526104fd816104c1565b9050919050565b7f596f75206172656e277420746865206f776e6572000000000000000000000000600082015250565b600061053a6014836102f7565b915061054582610504565b602082019050919050565b600060208201905081810360008301526105698161052d565b9050919050565b600060408201905061058560008301856103b1565b61059260208301846103b1565b939250505056fea26469706673582212207a6a81e2a2b52ffca19459571a0fd57096a104ebe876f06fc22b1c8d7ae081d964736f6c63430008090033",
  "linkReferences": {},
  "deployedLinkReferences": {}
}