{
  "_format": "hh-sol-artifact-1",
  "contractName": "MerchantContract",
  "sourceName": "contracts/merchantContract.sol",
  "abi": [
    {
      "inputs": [
        {
          "internalType": "address payable",
          "name": "MerchantAddress",
          "type": "address"
        },
        {
          "internalType": "string",
          "name": "MerchantName",
          "type": "string"
        }
      ],
      "stateMutability": "nonpayable",
      "type": "constructor"
    },
    {
      "anonymous": false,
      "inputs": [
        {
          "indexed": false,
          "internalType": "address",
          "name": "MerchantContractAddress",
          "type": "address"
        },
        {
          "indexed": false,
          "internalType": "bool",
          "name": "ApprovedMerchant",
          "type": "bool"
        }
      ],
      "name": "ApprovedMerchant",
      "type": "event"
    },
    {
      "anonymous": false,
      "inputs": [
        {
          "indexed": false,
          "internalType": "uint256",
          "name": "PurchaseID",
          "type": "uint256"
        },
        {
          "indexed": false,
          "internalType": "uint256",
          "name": "DateF",
          "type": "uint256"
        },
        {
          "indexed": false,
          "internalType": "address",
          "name": "BuyerAddress",
          "type": "address"
        },
        {
          "indexed": false,
          "internalType": "address",
          "name": "MerchantContractAddress",
          "type": "address"
        },
        {
          "indexed": false,
          "internalType": "uint256",
          "name": "Amount",
          "type": "uint256"
        }
      ],
      "name": "Buy",
      "type": "event"
    },
    {
      "anonymous": false,
      "inputs": [
        {
          "indexed": false,
          "internalType": "uint256",
          "name": "PurchaseID",
          "type": "uint256"
        }
      ],
      "name": "Complete",
      "type": "event"
    },
    {
      "anonymous": false,
      "inputs": [
        {
          "indexed": false,
          "internalType": "uint256",
          "name": "Date",
          "type": "uint256"
        },
        {
          "indexed": false,
          "internalType": "uint256",
          "name": "Amount",
          "type": "uint256"
        },
        {
          "indexed": false,
          "internalType": "uint256",
          "name": "EscrowTime",
          "type": "uint256"
        }
      ],
      "name": "CreatePurchase",
      "type": "event"
    },
    {
      "anonymous": false,
      "inputs": [
        {
          "indexed": false,
          "internalType": "address",
          "name": "MerchantContractAddress",
          "type": "address"
        },
        {
          "indexed": false,
          "internalType": "uint256",
          "name": "Sells",
          "type": "uint256"
        },
        {
          "indexed": false,
          "internalType": "uint256",
          "name": "Refunds",
          "type": "uint256"
        }
      ],
      "name": "Historic",
      "type": "event"
    },
    {
      "anonymous": false,
      "inputs": [
        {
          "indexed": true,
          "internalType": "address",
          "name": "previousOwner",
          "type": "address"
        },
        {
          "indexed": true,
          "internalType": "address",
          "name": "newOwner",
          "type": "address"
        }
      ],
      "name": "OwnershipTransferred",
      "type": "event"
    },
    {
      "anonymous": false,
      "inputs": [
        {
          "indexed": false,
          "internalType": "address",
          "name": "MerchantContractAddress",
          "type": "address"
        },
        {
          "indexed": false,
          "internalType": "bool",
          "name": "PausedWithdrawals",
          "type": "bool"
        }
      ],
      "name": "PausedWithdrawals",
      "type": "event"
    },
    {
      "anonymous": false,
      "inputs": [
        {
          "indexed": false,
          "internalType": "address",
          "name": "MerchantContractAddress",
          "type": "address"
        },
        {
          "indexed": false,
          "internalType": "address",
          "name": "BuyerAddress",
          "type": "address"
        },
        {
          "indexed": false,
          "internalType": "uint256",
          "name": "Amount",
          "type": "uint256"
        }
      ],
      "name": "Refund",
      "type": "event"
    },
    {
      "anonymous": false,
      "inputs": [
        {
          "indexed": false,
          "internalType": "address",
          "name": "MerchantContractAddress",
          "type": "address"
        },
        {
          "indexed": false,
          "internalType": "uint256",
          "name": "Amount",
          "type": "uint256"
        }
      ],
      "name": "TopUpMyContract",
      "type": "event"
    },
    {
      "anonymous": false,
      "inputs": [
        {
          "indexed": false,
          "internalType": "address",
          "name": "MerchantContractAddress",
          "type": "address"
        },
        {
          "indexed": false,
          "internalType": "uint256",
          "name": "Amount",
          "type": "uint256"
        }
      ],
      "name": "Withdrawal",
      "type": "event"
    },
    {
      "inputs": [],
      "name": "approveMerchant",
      "outputs": [],
      "stateMutability": "nonpayable",
      "type": "function"
    },
    {
      "inputs": [],
      "name": "approved",
      "outputs": [
        {
          "internalType": "bool",
          "name": "",
          "type": "bool"
        }
      ],
      "stateMutability": "view",
      "type": "function"
    },
    {
      "inputs": [
        {
          "internalType": "uint256",
          "name": "idPurchase",
          "type": "uint256"
        }
      ],
      "name": "buy",
      "outputs": [],
      "stateMutability": "payable",
      "type": "function"
    },
    {
      "inputs": [
        {
          "internalType": "address payable",
          "name": "NewAddress",
          "type": "address"
        }
      ],
      "name": "changeMyAddress",
      "outputs": [],
      "stateMutability": "nonpayable",
      "type": "function"
    },
    {
      "inputs": [],
      "name": "checkMyAddress",
      "outputs": [
        {
          "internalType": "address",
          "name": "",
          "type": "address"
        }
      ],
      "stateMutability": "view",
      "type": "function"
    },
    {
      "inputs": [],
      "name": "checkMyBalance",
      "outputs": [
        {
          "internalType": "uint256",
          "name": "",
          "type": "uint256"
        }
      ],
      "stateMutability": "view",
      "type": "function"
    },
    {
      "inputs": [],
      "name": "checkMyEscrowAmount",
      "outputs": [
        {
          "internalType": "uint256",
          "name": "",
          "type": "uint256"
        }
      ],
      "stateMutability": "view",
      "type": "function"
    },
    {
      "inputs": [],
      "name": "checkMyName",
      "outputs": [
        {
          "internalType": "string",
          "name": "",
          "type": "string"
        }
      ],
      "stateMutability": "view",
      "type": "function"
    },
    {
      "inputs": [
        {
          "internalType": "uint256",
          "name": "idPurchase",
          "type": "uint256"
        }
      ],
      "name": "complete",
      "outputs": [],
      "stateMutability": "nonpayable",
      "type": "function"
    },
    {
      "inputs": [
        {
          "internalType": "uint256",
          "name": "idPurchase",
          "type": "uint256"
        },
        {
          "internalType": "uint256",
          "name": "purchaseAmount",
          "type": "uint256"
        },
        {
          "internalType": "uint256",
          "name": "escrowTime",
          "type": "uint256"
        }
      ],
      "name": "createPurchase",
      "outputs": [],
      "stateMutability": "nonpayable",
      "type": "function"
    },
    {
      "inputs": [],
      "name": "disapproveMerchant",
      "outputs": [],
      "stateMutability": "nonpayable",
      "type": "function"
    },
    {
      "inputs": [],
      "name": "getMerchantAddress",
      "outputs": [
        {
          "internalType": "address",
          "name": "",
          "type": "address"
        }
      ],
      "stateMutability": "view",
      "type": "function"
    },
    {
      "inputs": [],
      "name": "name",
      "outputs": [
        {
          "internalType": "string",
          "name": "",
          "type": "string"
        }
      ],
      "stateMutability": "view",
      "type": "function"
    },
    {
      "inputs": [],
      "name": "owner",
      "outputs": [
        {
          "internalType": "address",
          "name": "",
          "type": "address"
        }
      ],
      "stateMutability": "view",
      "type": "function"
    },
    {
      "inputs": [],
      "name": "pauseWithdrawals",
      "outputs": [],
      "stateMutability": "nonpayable",
      "type": "function"
    },
    {
      "inputs": [],
      "name": "paused",
      "outputs": [
        {
          "internalType": "bool",
          "name": "",
          "type": "bool"
        }
      ],
      "stateMutability": "view",
      "type": "function"
    },
    {
      "inputs": [
        {
          "internalType": "uint256",
          "name": "",
          "type": "uint256"
        }
      ],
      "name": "purchases",
      "outputs": [
        {
          "internalType": "uint256",
          "name": "dateF",
          "type": "uint256"
        },
        {
          "internalType": "uint256",
          "name": "amount",
          "type": "uint256"
        },
        {
          "internalType": "uint256",
          "name": "status",
          "type": "uint256"
        },
        {
          "internalType": "uint256",
          "name": "escrow_amount",
          "type": "uint256"
        },
        {
          "internalType": "uint256",
          "name": "escrow_time",
          "type": "uint256"
        }
      ],
      "stateMutability": "view",
      "type": "function"
    },
    {
      "inputs": [
        {
          "internalType": "uint256",
          "name": "idPurchase",
          "type": "uint256"
        },
        {
          "internalType": "address payable",
          "name": "BuyerAddress",
          "type": "address"
        },
        {
          "internalType": "uint256",
          "name": "refundAmount",
          "type": "uint256"
        }
      ],
      "name": "refund",
      "outputs": [],
      "stateMutability": "nonpayable",
      "type": "function"
    },
    {
      "inputs": [],
      "name": "renounceOwnership",
      "outputs": [],
      "stateMutability": "nonpayable",
      "type": "function"
    },
    {
      "inputs": [],
      "name": "topUpMyContract",
      "outputs": [],
      "stateMutability": "payable",
      "type": "function"
    },
    {
      "inputs": [
        {
          "internalType": "address",
          "name": "newOwner",
          "type": "address"
        }
      ],
      "name": "transferOwnership",
      "outputs": [],
      "stateMutability": "nonpayable",
      "type": "function"
    },
    {
      "inputs": [],
      "name": "unpauseWithdrawals",
      "outputs": [],
      "stateMutability": "nonpayable",
      "type": "function"
    },
    {
      "inputs": [],
      "name": "withdrawal",
      "outputs": [],
      "stateMutability": "nonpayable",
      "type": "function"
    }
  ],
  "bytecode": "0x60806040523480156200001157600080fd5b506040516200441c3803806200441c833981810160405281019062000037919062000461565b620000576200004b620000e360201b60201c565b620000eb60201b60201c565b81600260006101000a81548173ffffffffffffffffffffffffffffffffffffffff021916908373ffffffffffffffffffffffffffffffffffffffff1602179055508060039080519060200190620000b0929190620001af565b506000600481905550600060058190555060018060146101000a81548160ff02191690831515021790555050506200052c565b600033905090565b60008060009054906101000a900473ffffffffffffffffffffffffffffffffffffffff169050816000806101000a81548173ffffffffffffffffffffffffffffffffffffffff021916908373ffffffffffffffffffffffffffffffffffffffff1602179055508173ffffffffffffffffffffffffffffffffffffffff168173ffffffffffffffffffffffffffffffffffffffff167f8be0079c531659141344cd1fd0a4f28419497f9722a3daafe3b4186f6b6457e060405160405180910390a35050565b828054620001bd90620004f6565b90600052602060002090601f016020900481019282620001e157600085556200022d565b82601f10620001fc57805160ff19168380011785556200022d565b828001600101855582156200022d579182015b828111156200022c5782518255916020019190600101906200020f565b5b5090506200023c919062000240565b5090565b5b808211156200025b57600081600090555060010162000241565b5090565b6000604051905090565b600080fd5b600080fd5b600073ffffffffffffffffffffffffffffffffffffffff82169050919050565b6000620002a08262000273565b9050919050565b620002b28162000293565b8114620002be57600080fd5b50565b600081519050620002d281620002a7565b92915050565b600080fd5b600080fd5b6000601f19601f8301169050919050565b7f4e487b7100000000000000000000000000000000000000000000000000000000600052604160045260246000fd5b6200032d82620002e2565b810181811067ffffffffffffffff821117156200034f576200034e620002f3565b5b80604052505050565b6000620003646200025f565b905062000372828262000322565b919050565b600067ffffffffffffffff821115620003955762000394620002f3565b5b620003a082620002e2565b9050602081019050919050565b60005b83811015620003cd578082015181840152602081019050620003b0565b83811115620003dd576000848401525b50505050565b6000620003fa620003f48462000377565b62000358565b905082815260208101848484011115620004195762000418620002dd565b5b62000426848285620003ad565b509392505050565b600082601f830112620004465762000445620002d8565b5b815162000458848260208601620003e3565b91505092915050565b600080604083850312156200047b576200047a62000269565b5b60006200048b85828601620002c1565b925050602083015167ffffffffffffffff811115620004af57620004ae6200026e565b5b620004bd858286016200042e565b9150509250929050565b7f4e487b7100000000000000000000000000000000000000000000000000000000600052602260045260246000fd5b600060028204905060018216806200050f57607f821691505b60208210811415620005265762000525620004c7565b5b50919050565b613ee0806200053c6000396000f3fe6080604052600436106101405760003560e01c8063903b8c76116100b6578063cd61f34c1161006f578063cd61f34c146103d3578063d4e93292146103ea578063d96a094a14610401578063e4c4be581461041d578063e796a6eb14610434578063f2fde38b1461045d57610140565b8063903b8c76146102d5578063971d852f146103005780639b27c10f14610329578063a18bf1e914610352578063a3eb6e5b1461037d578063b37d61f8146103a857610140565b806356bb54a71161010857806356bb54a7146101e55780635c975abb146101fc57806368db764a14610227578063715018a6146102525780638392fe31146102695780638da5cb5b146102aa57610140565b806306fdde0314610145578063143e6199146101705780631536e674146101875780631833b7c61461019157806319d40b08146101ba575b600080fd5b34801561015157600080fd5b5061015a610486565b6040516101679190612de7565b60405180910390f35b34801561017c57600080fd5b50610185610514565b005b61018f610617565b005b34801561019d57600080fd5b506101b860048036038101906101b39190612e6c565b6107d6565b005b3480156101c657600080fd5b506101cf610961565b6040516101dc9190612eb4565b60405180910390f35b3480156101f157600080fd5b506101fa610974565b005b34801561020857600080fd5b50610211610a24565b60405161021e9190612eb4565b60405180910390f35b34801561023357600080fd5b5061023c610a37565b6040516102499190612ee8565b60405180910390f35b34801561025e57600080fd5b50610267610b68565b005b34801561027557600080fd5b50610290600480360381019061028b9190612f2f565b610b7c565b6040516102a1959493929190612f5c565b60405180910390f35b3480156102b657600080fd5b506102bf610bb2565b6040516102cc9190612fd0565b60405180910390f35b3480156102e157600080fd5b506102ea610bdb565b6040516102f79190612de7565b60405180910390f35b34801561030c57600080fd5b5061032760048036038101906103229190612f2f565b610e1c565b005b34801561033557600080fd5b50610350600480360381019061034b9190612feb565b61112c565b005b34801561035e57600080fd5b50610367611377565b6040516103749190612fd0565b60405180910390f35b34801561038957600080fd5b506103926114e8565b60405161039f9190612fd0565b60405180910390f35b3480156103b457600080fd5b506103bd61157b565b6040516103ca9190612ee8565b60405180910390f35b3480156103df57600080fd5b506103e86116ac565b005b3480156103f657600080fd5b506103ff6117b0565b005b61041b60048036038101906104169190612f2f565b611a83565b005b34801561042957600080fd5b50610432611db3565b005b34801561044057600080fd5b5061045b6004803603810190610456919061303e565b611e64565b005b34801561046957600080fd5b50610484600480360381019061047f91906130bd565b61244e565b005b6003805461049390613119565b80601f01602080910402602001604051908101604052809291908181526020018280546104bf90613119565b801561050c5780601f106104e15761010080835404028352916020019161050c565b820191906000526020600020905b8154815290600101906020018083116104ef57829003601f168201915b505050505081565b61051c6124d2565b60018060146101000a81548160ff0219169083151502179055506105cd6040518060400160405280600981526020017f4d65726368616e74200000000000000000000000000000000000000000000000815250600260009054906101000a900473ffffffffffffffffffffffffffffffffffffffff166040518060400160405280600d81526020017f20697320617070726f7665642100000000000000000000000000000000000000815250612550565b7fbbefd2748bf3df11d4780ac73713fdbf70aa738d1f39988c1c02b7ce7e9b18da30600160149054906101000a900460ff1660405161060d92919061314b565b60405180910390a1565b600260009054906101000a900473ffffffffffffffffffffffffffffffffffffffff1673ffffffffffffffffffffffffffffffffffffffff163373ffffffffffffffffffffffffffffffffffffffff16146106a7576040517f08c379a000000000000000000000000000000000000000000000000000000000815260040161069e906131e6565b60405180910390fd5b60011515600160149054906101000a900460ff161515146106fd576040517f08c379a00000000000000000000000000000000000000000000000000000000081526004016106f490613252565b60405180910390fd5b6000341415610741576040517f08c379a0000000000000000000000000000000000000000000000000000000008152600401610738906132be565b60405180910390fd5b3460056000828254610753919061330d565b9250508190555061079b6040518060400160405280600981526020017f42616c616e63653a2000000000000000000000000000000000000000000000008152506005546125ef565b7f4ee35957461b3fd4f97e9fa8f1562099a40403bdcb8a85ca136771f469a3552c30346040516107cc929190613363565b60405180910390a1565b600260009054906101000a900473ffffffffffffffffffffffffffffffffffffffff1673ffffffffffffffffffffffffffffffffffffffff163373ffffffffffffffffffffffffffffffffffffffff1614610866576040517f08c379a000000000000000000000000000000000000000000000000000000000815260040161085d906131e6565b60405180910390fd5b60011515600160149054906101000a900460ff161515146108bc576040517f08c379a00000000000000000000000000000000000000000000000000000000081526004016108b390613252565b60405180910390fd5b80600260006101000a81548173ffffffffffffffffffffffffffffffffffffffff021916908373ffffffffffffffffffffffffffffffffffffffff16021790555061095e6040518060400160405280601381526020017f4d79206e657720616464726573732069733a2000000000000000000000000000815250600260009054906101000a900473ffffffffffffffffffffffffffffffffffffffff1661268b565b50565b600160149054906101000a900460ff1681565b61097c6124d2565b60018060156101000a81548160ff0219169083151502179055506109da600260009054906101000a900473ffffffffffffffffffffffffffffffffffffffff16604051806060016040528060258152602001613e8660259139612727565b7febc82356aaaf865811d770ad9745f6e986872a120f623cecf3a04828850d76ac30600160159054906101000a900460ff16604051610a1a92919061314b565b60405180910390a1565b600160159054906101000a900460ff1681565b6000600260009054906101000a900473ffffffffffffffffffffffffffffffffffffffff1673ffffffffffffffffffffffffffffffffffffffff163373ffffffffffffffffffffffffffffffffffffffff1614610ac9576040517f08c379a0000000000000000000000000000000000000000000000000000000008152600401610ac0906131e6565b60405180910390fd5b60011515600160149054906101000a900460ff16151514610b1f576040517f08c379a0000000000000000000000000000000000000000000000000000000008152600401610b1690613252565b60405180910390fd5b610b606040518060400160405280601181526020017f4d7920457363726f77416d6f756e743a200000000000000000000000000000008152506004546125ef565b600454905090565b610b706124d2565b610b7a60006127c3565b565b60066020528060005260406000206000915090508060000154908060010154908060020154908060030154908060040154905085565b60008060009054906101000a900473ffffffffffffffffffffffffffffffffffffffff16905090565b6060600260009054906101000a900473ffffffffffffffffffffffffffffffffffffffff1673ffffffffffffffffffffffffffffffffffffffff163373ffffffffffffffffffffffffffffffffffffffff1614610c6d576040517f08c379a0000000000000000000000000000000000000000000000000000000008152600401610c64906131e6565b60405180910390fd5b60011515600160149054906101000a900460ff16151514610cc3576040517f08c379a0000000000000000000000000000000000000000000000000000000008152600401610cba90613252565b60405180910390fd5b610d8c6040518060400160405280600c81526020017f4d79206e616d652069733a20000000000000000000000000000000000000000081525060038054610d0990613119565b80601f0160208091040260200160405190810160405280929190818152602001828054610d3590613119565b8015610d825780601f10610d5757610100808354040283529160200191610d82565b820191906000526020600020905b815481529060010190602001808311610d6557829003601f168201915b5050505050612887565b60038054610d9990613119565b80601f0160208091040260200160405190810160405280929190818152602001828054610dc590613119565b8015610e125780601f10610de757610100808354040283529160200191610e12565b820191906000526020600020905b815481529060010190602001808311610df557829003601f168201915b5050505050905090565b600260009054906101000a900473ffffffffffffffffffffffffffffffffffffffff1673ffffffffffffffffffffffffffffffffffffffff163373ffffffffffffffffffffffffffffffffffffffff1614610eac576040517f08c379a0000000000000000000000000000000000000000000000000000000008152600401610ea3906131e6565b60405180910390fd5b60011515600160149054906101000a900460ff16151514610f02576040517f08c379a0000000000000000000000000000000000000000000000000000000008152600401610ef990613252565b60405180910390fd5b42600660008381526020019081526020016000206000015410610f5a576040517f08c379a0000000000000000000000000000000000000000000000000000000008152600401610f51906133fe565b60405180910390fd5b600660008281526020019081526020016000206001015460046000828254610f82919061341e565b925050819055506006600082815260200190815260200160002060010154600660008381526020019081526020016000206003016000828254610fc5919061341e565b92505081905550600660008281526020019081526020016000206001015460056000828254610ff4919061330d565b925050819055506110706040518060400160405280600e81526020017f5075636861736520772f20696420000000000000000000000000000000000000815250826040518060400160405280600f81526020017f2077617320636f6d706c65746564210000000000000000000000000000000000815250612923565b6110b16040518060400160405280601381526020017f546f74616c457363726f77416d6f756e743a20000000000000000000000000008152506004546125ef565b6110f26040518060400160405280600981526020017f42616c616e63653a2000000000000000000000000000000000000000000000008152506005546125ef565b7faaaf03c480f43393f2414d5013b316f6cc36576bed29ae1ea15d8936dcc0d5e7816040516111219190612ee8565b60405180910390a150565b600260009054906101000a900473ffffffffffffffffffffffffffffffffffffffff1673ffffffffffffffffffffffffffffffffffffffff163373ffffffffffffffffffffffffffffffffffffffff16146111bc576040517f08c379a00000000000000000000000000000000000000000000000000000000081526004016111b3906131e6565b60405180910390fd5b60011515600160149054906101000a900460ff16151514611212576040517f08c379a000000000000000000000000000000000000000000000000000000000815260040161120990613252565b60405180910390fd5b6040518060a001604052804281526020018381526020016001815260200160008152602001828152506006600085815260200190815260200160002060008201518160000155602082015181600101556040820151816002015560608201518160030155608082015181600401559050506112c26040518060400160405280600e81526020017f5075636861736520772f20696420000000000000000000000000000000000000815250846125ef565b6113376040518060400160405280600c81526020017f20616e6420616d6f756e74200000000000000000000000000000000000000000815250836040518060400160405280600d81526020017f2077617320637265617465642100000000000000000000000000000000000000815250612923565b7fb505b090182fd7beb3c70cb69467e3b025bf377859f8bebbdaa1afeacde07e0a42838360405161136a93929190613452565b60405180910390a1505050565b6000600260009054906101000a900473ffffffffffffffffffffffffffffffffffffffff1673ffffffffffffffffffffffffffffffffffffffff163373ffffffffffffffffffffffffffffffffffffffff1614611409576040517f08c379a0000000000000000000000000000000000000000000000000000000008152600401611400906131e6565b60405180910390fd5b60011515600160149054906101000a900460ff1615151461145f576040517f08c379a000000000000000000000000000000000000000000000000000000000815260040161145690613252565b60405180910390fd5b6114c06040518060400160405280600f81526020017f4d7920616464726573732069733a200000000000000000000000000000000000815250600260009054906101000a900473ffffffffffffffffffffffffffffffffffffffff1661268b565b600260009054906101000a900473ffffffffffffffffffffffffffffffffffffffff16905090565b60006114f26124d2565b6115536040518060400160405280601281526020017f4d65726368616e7420416464726573733a200000000000000000000000000000815250600260009054906101000a900473ffffffffffffffffffffffffffffffffffffffff1661268b565b600260009054906101000a900473ffffffffffffffffffffffffffffffffffffffff16905090565b6000600260009054906101000a900473ffffffffffffffffffffffffffffffffffffffff1673ffffffffffffffffffffffffffffffffffffffff163373ffffffffffffffffffffffffffffffffffffffff161461160d576040517f08c379a0000000000000000000000000000000000000000000000000000000008152600401611604906131e6565b60405180910390fd5b60011515600160149054906101000a900460ff16151514611663576040517f08c379a000000000000000000000000000000000000000000000000000000000815260040161165a90613252565b60405180910390fd5b6116a46040518060400160405280600c81526020017f4d792042616c616e63653a2000000000000000000000000000000000000000008152506005546125ef565b600554905090565b6116b46124d2565b6000600160146101000a81548160ff0219169083151502179055506117666040518060400160405280600981526020017f4d65726368616e74200000000000000000000000000000000000000000000000815250600260009054906101000a900473ffffffffffffffffffffffffffffffffffffffff166040518060400160405280601081526020017f20697320646973617070726f7665642100000000000000000000000000000000815250612550565b7fbbefd2748bf3df11d4780ac73713fdbf70aa738d1f39988c1c02b7ce7e9b18da30600160149054906101000a900460ff166040516117a692919061314b565b60405180910390a1565b600260009054906101000a900473ffffffffffffffffffffffffffffffffffffffff1673ffffffffffffffffffffffffffffffffffffffff163373ffffffffffffffffffffffffffffffffffffffff1614611840576040517f08c379a0000000000000000000000000000000000000000000000000000000008152600401611837906131e6565b60405180910390fd5b60001515600160159054906101000a900460ff16151514611896576040517f08c379a000000000000000000000000000000000000000000000000000000000815260040161188d906134d5565b60405180910390fd5b60011515600160149054906101000a900460ff161515146118ec576040517f08c379a00000000000000000000000000000000000000000000000000000000081526004016118e390613252565b60405180910390fd5b600060055411611931576040517f08c379a000000000000000000000000000000000000000000000000000000000815260040161192890613567565b60405180910390fd5b600260009054906101000a900473ffffffffffffffffffffffffffffffffffffffff1673ffffffffffffffffffffffffffffffffffffffff166108fc6005549081150290604051600060405180830381858888f1935050505015801561199b573d6000803e3d6000fd5b506119fd6040518060400160405280600981526020017f416464726573733a200000000000000000000000000000000000000000000000815250600260009054906101000a900473ffffffffffffffffffffffffffffffffffffffff1661268b565b611a3e6040518060400160405280600e81526020017f42616c616e63652053656e743a200000000000000000000000000000000000008152506005546125ef565b7f7fcf532c15f0a6db0bd6d0e038bea71d30d808c7d98cb3bf7268a95bf5081b6530600554604051611a71929190613363565b60405180910390a16000600581905550565b60011515600160149054906101000a900460ff16151514611ad9576040517f08c379a0000000000000000000000000000000000000000000000000000000008152600401611ad090613252565b60405180910390fd5b6000341415611b1d576040517f08c379a0000000000000000000000000000000000000000000000000000000008152600401611b14906132be565b60405180910390fd5b600060066000838152602001908152602001600020600201541415611b77576040517f08c379a0000000000000000000000000000000000000000000000000000000008152600401611b6e906135d3565b60405180910390fd5b600260066000838152602001908152602001600020600201541415611bd1576040517f08c379a0000000000000000000000000000000000000000000000000000000008152600401611bc890613665565b60405180910390fd5b600360066000838152602001908152602001600020600201541415611c2b576040517f08c379a0000000000000000000000000000000000000000000000000000000008152600401611c22906136f7565b60405180910390fd5b60066000828152602001908152602001600020600101543414611c83576040517f08c379a0000000000000000000000000000000000000000000000000000000008152600401611c7a90613763565b60405180910390fd5b3460046000828254611c95919061330d565b92505081905550611cdd6040518060400160405280601381526020017f546f74616c457363726f77416d6f756e743a20000000000000000000000000008152506004546125ef565b600660008281526020019081526020016000206004015442611cff919061330d565b600660008381526020019081526020016000206000018190555060026006600083815260200190815260200160002060020181905550346006600083815260200190815260200160002060030181905550611d5b3360006129c2565b7ff7af8fb316f3a41b7db460c51be9f487d7f75844a791ee49f15d5a00063ed263816006600084815260200190815260200160002060000154333034604051611da8959493929190613783565b60405180910390a150565b611dbb6124d2565b6000600160156101000a81548160ff021916908315150217905550611e1a600260009054906101000a900473ffffffffffffffffffffffffffffffffffffffff16604051806060016040528060278152602001613e5f60279139612727565b7febc82356aaaf865811d770ad9745f6e986872a120f623cecf3a04828850d76ac30600160159054906101000a900460ff16604051611e5a92919061314b565b60405180910390a1565b600260009054906101000a900473ffffffffffffffffffffffffffffffffffffffff1673ffffffffffffffffffffffffffffffffffffffff163373ffffffffffffffffffffffffffffffffffffffff1614611ef4576040517f08c379a0000000000000000000000000000000000000000000000000000000008152600401611eeb906131e6565b60405180910390fd5b60001515600160159054906101000a900460ff16151514611f4a576040517f08c379a0000000000000000000000000000000000000000000000000000000008152600401611f41906134d5565b60405180910390fd5b60011515600160149054906101000a900460ff16151514611fa0576040517f08c379a0000000000000000000000000000000000000000000000000000000008152600401611f9790613252565b60405180910390fd5b60008111611fe3576040517f08c379a0000000000000000000000000000000000000000000000000000000008152600401611fda90613848565b60405180910390fd5b600660008481526020019081526020016000206001015481111561203c576040517f08c379a0000000000000000000000000000000000000000000000000000000008152600401612033906138da565b60405180910390fd5b600060066000858152602001908152602001600020600201541415612096576040517f08c379a000000000000000000000000000000000000000000000000000000000815260040161208d906135d3565b60405180910390fd5b6001600660008581526020019081526020016000206002015414156120f0576040517f08c379a00000000000000000000000000000000000000000000000000000000081526004016120e79061396c565b60405180910390fd5b60036006600085815260200190815260200160002060020154141561214a576040517f08c379a0000000000000000000000000000000000000000000000000000000008152600401612141906139fe565b60405180910390fd5b8060055460045461215b919061330d565b101561219c576040517f08c379a000000000000000000000000000000000000000000000000000000000815260040161219390613a90565b60405180910390fd5b8060066000858152602001908152602001600020600301541061224257806006600085815260200190815260200160002060030160008282546121df919061341e565b9250508190555080600460008282546121f8919061341e565b9250508190555061223d6040518060400160405280601581526020017f457363726f77416d6f756e742075706461746564210000000000000000000000815250612c84565b6122e3565b80600554106122a757806005600082825461225d919061341e565b925050819055506122a26040518060400160405280601081526020017f42616c616e636520757064617465642100000000000000000000000000000000815250612c84565b6122e2565b6040517f08c379a00000000000000000000000000000000000000000000000000000000081526004016122d990613b22565b60405180910390fd5b5b8173ffffffffffffffffffffffffffffffffffffffff166108fc829081150290604051600060405180830381858888f19350505050158015612329573d6000803e3d6000fd5b50600360066000858152602001908152602001600020600201819055506123518260016129c2565b6123906040518060400160405280600c81526020017f696450757263686173653a200000000000000000000000000000000000000000815250846125ef565b6123cf6040518060400160405280600981526020017f416464726573733a2000000000000000000000000000000000000000000000008152508361268b565b61240e6040518060400160405280600e81526020017f526566756e64416d6f756e743a20000000000000000000000000000000000000815250826125ef565b7ff40cc8c1a1d17359049ba500cfc894596a692cffc9d03943cd92ec2e159cf6ae30838360405161244193929190613ba1565b60405180910390a1505050565b6124566124d2565b600073ffffffffffffffffffffffffffffffffffffffff168173ffffffffffffffffffffffffffffffffffffffff1614156124c6576040517f08c379a00000000000000000000000000000000000000000000000000000000081526004016124bd90613c4a565b60405180910390fd5b6124cf816127c3565b50565b6124da612d1d565b73ffffffffffffffffffffffffffffffffffffffff166124f8610bb2565b73ffffffffffffffffffffffffffffffffffffffff161461254e576040517f08c379a000000000000000000000000000000000000000000000000000000000815260040161254590613cb6565b60405180910390fd5b565b6125ea83838360405160240161256893929190613cd6565b6040516020818303038152906040527fe0e9ad4f000000000000000000000000000000000000000000000000000000007bffffffffffffffffffffffffffffffffffffffffffffffffffffffff19166020820180517bffffffffffffffffffffffffffffffffffffffffffffffffffffffff8381831617835250505050612d25565b505050565b6126878282604051602401612605929190613d1b565b6040516020818303038152906040527f9710a9d0000000000000000000000000000000000000000000000000000000007bffffffffffffffffffffffffffffffffffffffffffffffffffffffff19166020820180517bffffffffffffffffffffffffffffffffffffffffffffffffffffffff8381831617835250505050612d25565b5050565b61272382826040516024016126a1929190613d4b565b6040516020818303038152906040527f319af333000000000000000000000000000000000000000000000000000000007bffffffffffffffffffffffffffffffffffffffffffffffffffffffff19166020820180517bffffffffffffffffffffffffffffffffffffffffffffffffffffffff8381831617835250505050612d25565b5050565b6127bf828260405160240161273d929190613d7b565b6040516020818303038152906040527f759f86bb000000000000000000000000000000000000000000000000000000007bffffffffffffffffffffffffffffffffffffffffffffffffffffffff19166020820180517bffffffffffffffffffffffffffffffffffffffffffffffffffffffff8381831617835250505050612d25565b5050565b60008060009054906101000a900473ffffffffffffffffffffffffffffffffffffffff169050816000806101000a81548173ffffffffffffffffffffffffffffffffffffffff021916908373ffffffffffffffffffffffffffffffffffffffff1602179055508173ffffffffffffffffffffffffffffffffffffffff168173ffffffffffffffffffffffffffffffffffffffff167f8be0079c531659141344cd1fd0a4f28419497f9722a3daafe3b4186f6b6457e060405160405180910390a35050565b61291f828260405160240161289d929190613dab565b6040516020818303038152906040527f4b5c4277000000000000000000000000000000000000000000000000000000007bffffffffffffffffffffffffffffffffffffffffffffffffffffffff19166020820180517bffffffffffffffffffffffffffffffffffffffffffffffffffffffff8381831617835250505050612d25565b5050565b6129bd83838360405160240161293b93929190613de2565b6040516020818303038152906040527fa3f5c739000000000000000000000000000000000000000000000000000000007bffffffffffffffffffffffffffffffffffffffffffffffffffffffff19166020820180517bffffffffffffffffffffffffffffffffffffffffffffffffffffffff8381831617835250505050612d25565b505050565b6000811415612aa657600160076000600260009054906101000a900473ffffffffffffffffffffffffffffffffffffffff1673ffffffffffffffffffffffffffffffffffffffff1673ffffffffffffffffffffffffffffffffffffffff1681526020019081526020016000206000016000828254612a40919061330d565b925050819055506001600860008473ffffffffffffffffffffffffffffffffffffffff1673ffffffffffffffffffffffffffffffffffffffff1681526020019081526020016000206000016000828254612a9a919061330d565b92505081905550612b7d565b600160076000600260009054906101000a900473ffffffffffffffffffffffffffffffffffffffff1673ffffffffffffffffffffffffffffffffffffffff1673ffffffffffffffffffffffffffffffffffffffff1681526020019081526020016000206001016000828254612b1b919061330d565b925050819055506001600860008473ffffffffffffffffffffffffffffffffffffffff1673ffffffffffffffffffffffffffffffffffffffff1681526020019081526020016000206001016000828254612b75919061330d565b925050819055505b7ffec773402b469d925a189c9c910ae3efc5776194b342a24b4b88d026d45a01283060076000600260009054906101000a900473ffffffffffffffffffffffffffffffffffffffff1673ffffffffffffffffffffffffffffffffffffffff1673ffffffffffffffffffffffffffffffffffffffff1681526020019081526020016000206000015460076000600260009054906101000a900473ffffffffffffffffffffffffffffffffffffffff1673ffffffffffffffffffffffffffffffffffffffff1673ffffffffffffffffffffffffffffffffffffffff16815260200190815260200160002060010154604051612c7893929190613e27565b60405180910390a15050565b612d1a81604051602401612c989190612de7565b6040516020818303038152906040527f41304fac000000000000000000000000000000000000000000000000000000007bffffffffffffffffffffffffffffffffffffffffffffffffffffffff19166020820180517bffffffffffffffffffffffffffffffffffffffffffffffffffffffff8381831617835250505050612d25565b50565b600033905090565b60008151905060006a636f6e736f6c652e6c6f679050602083016000808483855afa5050505050565b600081519050919050565b600082825260208201905092915050565b60005b83811015612d88578082015181840152602081019050612d6d565b83811115612d97576000848401525b50505050565b6000601f19601f8301169050919050565b6000612db982612d4e565b612dc38185612d59565b9350612dd3818560208601612d6a565b612ddc81612d9d565b840191505092915050565b60006020820190508181036000830152612e018184612dae565b905092915050565b600080fd5b600073ffffffffffffffffffffffffffffffffffffffff82169050919050565b6000612e3982612e0e565b9050919050565b612e4981612e2e565b8114612e5457600080fd5b50565b600081359050612e6681612e40565b92915050565b600060208284031215612e8257612e81612e09565b5b6000612e9084828501612e57565b91505092915050565b60008115159050919050565b612eae81612e99565b82525050565b6000602082019050612ec96000830184612ea5565b92915050565b6000819050919050565b612ee281612ecf565b82525050565b6000602082019050612efd6000830184612ed9565b92915050565b612f0c81612ecf565b8114612f1757600080fd5b50565b600081359050612f2981612f03565b92915050565b600060208284031215612f4557612f44612e09565b5b6000612f5384828501612f1a565b91505092915050565b600060a082019050612f716000830188612ed9565b612f7e6020830187612ed9565b612f8b6040830186612ed9565b612f986060830185612ed9565b612fa56080830184612ed9565b9695505050505050565b6000612fba82612e0e565b9050919050565b612fca81612faf565b82525050565b6000602082019050612fe56000830184612fc1565b92915050565b60008060006060848603121561300457613003612e09565b5b600061301286828701612f1a565b935050602061302386828701612f1a565b925050604061303486828701612f1a565b9150509250925092565b60008060006060848603121561305757613056612e09565b5b600061306586828701612f1a565b935050602061307686828701612e57565b925050604061308786828701612f1a565b9150509250925092565b61309a81612faf565b81146130a557600080fd5b50565b6000813590506130b781613091565b92915050565b6000602082840312156130d3576130d2612e09565b5b60006130e1848285016130a8565b91505092915050565b7f4e487b7100000000000000000000000000000000000000000000000000000000600052602260045260246000fd5b6000600282049050600182168061313157607f821691505b60208210811415613145576131446130ea565b5b50919050565b60006040820190506131606000830185612fc1565b61316d6020830184612ea5565b9392505050565b7f4f6e6c79204d65726368616e742063616e2063616c6c20746869732066756e6360008201527f74696f6e00000000000000000000000000000000000000000000000000000000602082015250565b60006131d0602483612d59565b91506131db82613174565b604082019050919050565b600060208201905081810360008301526131ff816131c3565b9050919050565b7f4d65726368616e74206e6f7420617070726f7665642100000000000000000000600082015250565b600061323c601683612d59565b915061324782613206565b602082019050919050565b6000602082019050818103600083015261326b8161322f565b9050919050565b7f416d6f756e742073686f756c642062652067726561746572207468616e203021600082015250565b60006132a8602083612d59565b91506132b382613272565b602082019050919050565b600060208201905081810360008301526132d78161329b565b9050919050565b7f4e487b7100000000000000000000000000000000000000000000000000000000600052601160045260246000fd5b600061331882612ecf565b915061332383612ecf565b9250827fffffffffffffffffffffffffffffffffffffffffffffffffffffffffffffffff03821115613358576133576132de565b5b828201905092915050565b60006040820190506133786000830185612fc1565b6133856020830184612ed9565b9392505050565b7f54686520657363726f772074696d65206f66207468697320707572636861736560008201527f2069736e2774206f766572207965742100000000000000000000000000000000602082015250565b60006133e8603083612d59565b91506133f38261338c565b604082019050919050565b60006020820190508181036000830152613417816133db565b9050919050565b600061342982612ecf565b915061343483612ecf565b925082821015613447576134466132de565b5b828203905092915050565b60006060820190506134676000830186612ed9565b6134746020830185612ed9565b6134816040830184612ed9565b949350505050565b7f5769746864726177616c73206172652070617573656421000000000000000000600082015250565b60006134bf601783612d59565b91506134ca82613489565b602082019050919050565b600060208201905081810360008301526134ee816134b2565b9050919050565b7f42616c616e63652073686f756c642062652067726561746572207468616e203060008201527f2121000000000000000000000000000000000000000000000000000000000000602082015250565b6000613551602283612d59565b915061355c826134f5565b604082019050919050565b6000602082019050818103600083015261358081613544565b9050919050565b7f54686520707572636861736520646f65736e2774206578697374210000000000600082015250565b60006135bd601b83612d59565b91506135c882613587565b602082019050919050565b600060208201905081810360008301526135ec816135b0565b9050919050565b7f5468652070757263686173652068617320616c7265616479206265656e20706160008201527f6964210000000000000000000000000000000000000000000000000000000000602082015250565b600061364f602383612d59565b915061365a826135f3565b604082019050919050565b6000602082019050818103600083015261367e81613642565b9050919050565b7f5468652070757263686173652068617320616c7265616479206265656e20726560008201527f66756e6465642100000000000000000000000000000000000000000000000000602082015250565b60006136e1602783612d59565b91506136ec82613685565b604082019050919050565b60006020820190508181036000830152613710816136d4565b9050919050565b7f57726f6e6720616d6f756e742100000000000000000000000000000000000000600082015250565b600061374d600d83612d59565b915061375882613717565b602082019050919050565b6000602082019050818103600083015261377c81613740565b9050919050565b600060a0820190506137986000830188612ed9565b6137a56020830187612ed9565b6137b26040830186612fc1565b6137bf6060830185612fc1565b6137cc6080830184612ed9565b9695505050505050565b7f526566756e6420616d6f756e742073686f756c6420626520677265617465722060008201527f7468616e20302121000000000000000000000000000000000000000000000000602082015250565b6000613832602883612d59565b915061383d826137d6565b604082019050919050565b6000602082019050818103600083015261386181613825565b9050919050565b7f526566756e6420616d6f756e742073686f756c646e277420626520677265617460008201527f6572207468616e20746865207075726368617365416d6f756e74210000000000602082015250565b60006138c4603b83612d59565b91506138cf82613868565b604082019050919050565b600060208201905081810360008301526138f3816138b7565b9050919050565b7f54686174207075726368617365206861736e277420796574206265656e20706160008201527f6964210000000000000000000000000000000000000000000000000000000000602082015250565b6000613956602383612d59565b9150613961826138fa565b604082019050919050565b6000602082019050818103600083015261398581613949565b9050919050565b7f546861742070757263686173652068617320616c7265616479206265656e207260008201527f6566756e64656421000000000000000000000000000000000000000000000000602082015250565b60006139e8602883612d59565b91506139f38261398c565b604082019050919050565b60006020820190508181036000830152613a17816139db565b9050919050565b7f596f7520646f6e2774206861766520656e6f756768206d6f6e657920696e207460008201527f686520736d6172742d636f6e7472616374210000000000000000000000000000602082015250565b6000613a7a603283612d59565b9150613a8582613a1e565b604082019050919050565b60006020820190508181036000830152613aa981613a6d565b9050919050565b7f4572726f722070726f63657373696e6720726566756e642c20636865636b207960008201527f6f757220736d6172742d636f6e74726163742062616c616e6365210000000000602082015250565b6000613b0c603b83612d59565b9150613b1782613ab0565b604082019050919050565b60006020820190508181036000830152613b3b81613aff565b9050919050565b6000819050919050565b6000613b67613b62613b5d84612e0e565b613b42565b612e0e565b9050919050565b6000613b7982613b4c565b9050919050565b6000613b8b82613b6e565b9050919050565b613b9b81613b80565b82525050565b6000606082019050613bb66000830186612fc1565b613bc36020830185613b92565b613bd06040830184612ed9565b949350505050565b7f4f776e61626c653a206e6577206f776e657220697320746865207a65726f206160008201527f6464726573730000000000000000000000000000000000000000000000000000602082015250565b6000613c34602683612d59565b9150613c3f82613bd8565b604082019050919050565b60006020820190508181036000830152613c6381613c27565b9050919050565b7f4f776e61626c653a2063616c6c6572206973206e6f7420746865206f776e6572600082015250565b6000613ca0602083612d59565b9150613cab82613c6a565b602082019050919050565b60006020820190508181036000830152613ccf81613c93565b9050919050565b60006060820190508181036000830152613cf08186612dae565b9050613cff6020830185612fc1565b8181036040830152613d118184612dae565b9050949350505050565b60006040820190508181036000830152613d358185612dae565b9050613d446020830184612ed9565b9392505050565b60006040820190508181036000830152613d658185612dae565b9050613d746020830184612fc1565b9392505050565b6000604082019050613d906000830185612fc1565b8181036020830152613da28184612dae565b90509392505050565b60006040820190508181036000830152613dc58185612dae565b90508181036020830152613dd98184612dae565b90509392505050565b60006060820190508181036000830152613dfc8186612dae565b9050613e0b6020830185612ed9565b8181036040830152613e1d8184612dae565b9050949350505050565b6000606082019050613e3c6000830186612fc1565b613e496020830185612ed9565b613e566040830184612ed9565b94935050505056fe202d2d3e204d65726368616e74207769746864726177616c732061726520756e70617573656421202d2d3e204d65726368616e74207769746864726177616c73206172652070617573656421a26469706673582212205beba14cd9346f136630611ac2c5e86f4c97406198cfc72686f84beee13533f964736f6c63430008090033",
  "linkReferences": {},
  "deployedLinkReferences": {}
}