{
  "_format": "hh-sol-artifact-1",
  "contractName": "MerchantContract",
  "sourceName": "contracts/merchantContract.sol",
  "abi": [
    {
      "inputs": [
        {
          "internalType": "address payable",
          "name": "_merchantAddress",
          "type": "address"
        },
        {
          "internalType": "string",
          "name": "_merchantName",
          "type": "string"
        }
      ],
      "stateMutability": "nonpayable",
      "type": "constructor"
    },
    {
      "inputs": [],
      "name": "approveMerchant",
      "outputs": [],
      "stateMutability": "nonpayable",
      "type": "function"
    },
    {
      "inputs": [
        {
          "internalType": "uint256",
          "name": "idPurchase",
          "type": "uint256"
        }
      ],
      "name": "buy",
      "outputs": [],
      "stateMutability": "payable",
      "type": "function"
    },
    {
      "inputs": [
        {
          "internalType": "uint256",
          "name": "idPurchase",
          "type": "uint256"
        }
      ],
      "name": "cancel",
      "outputs": [],
      "stateMutability": "nonpayable",
      "type": "function"
    },
    {
      "inputs": [
        {
          "internalType": "uint256",
          "name": "idPurchase",
          "type": "uint256"
        }
      ],
      "name": "complete",
      "outputs": [],
      "stateMutability": "nonpayable",
      "type": "function"
    },
    {
      "inputs": [
        {
          "internalType": "uint256",
          "name": "idPurchase",
          "type": "uint256"
        },
        {
          "internalType": "uint256",
          "name": "purchaseAmount",
          "type": "uint256"
        },
        {
          "internalType": "uint256",
          "name": "cancelTime",
          "type": "uint256"
        },
        {
          "internalType": "uint256",
          "name": "completeTime",
          "type": "uint256"
        }
      ],
      "name": "createPurchase",
      "outputs": [],
      "stateMutability": "nonpayable",
      "type": "function"
    },
    {
      "inputs": [],
      "name": "getBalance",
      "outputs": [
        {
          "internalType": "uint256",
          "name": "",
          "type": "uint256"
        }
      ],
      "stateMutability": "view",
      "type": "function"
    },
    {
      "inputs": [],
      "name": "getName",
      "outputs": [
        {
          "internalType": "string",
          "name": "",
          "type": "string"
        }
      ],
      "stateMutability": "view",
      "type": "function"
    },
    {
      "inputs": [],
      "name": "getTotalEscrowAmount",
      "outputs": [
        {
          "internalType": "uint256",
          "name": "",
          "type": "uint256"
        }
      ],
      "stateMutability": "view",
      "type": "function"
    },
    {
      "inputs": [],
      "name": "mainContract",
      "outputs": [
        {
          "internalType": "contract MainContract",
          "name": "",
          "type": "address"
        }
      ],
      "stateMutability": "view",
      "type": "function"
    },
    {
      "inputs": [],
      "name": "merchantAddress",
      "outputs": [
        {
          "internalType": "address payable",
          "name": "",
          "type": "address"
        }
      ],
      "stateMutability": "view",
      "type": "function"
    },
    {
      "inputs": [],
      "name": "name",
      "outputs": [
        {
          "internalType": "string",
          "name": "",
          "type": "string"
        }
      ],
      "stateMutability": "view",
      "type": "function"
    },
    {
      "inputs": [],
      "name": "pauseMerchant",
      "outputs": [],
      "stateMutability": "nonpayable",
      "type": "function"
    },
    {
      "inputs": [
        {
          "internalType": "uint256",
          "name": "idPurchase",
          "type": "uint256"
        }
      ],
      "name": "purchaseStatus",
      "outputs": [
        {
          "internalType": "uint256",
          "name": "",
          "type": "uint256"
        }
      ],
      "stateMutability": "view",
      "type": "function"
    },
    {
      "inputs": [
        {
          "internalType": "uint256",
          "name": "",
          "type": "uint256"
        }
      ],
      "name": "purchases",
      "outputs": [
        {
          "internalType": "uint256",
          "name": "amount",
          "type": "uint256"
        },
        {
          "internalType": "uint256",
          "name": "status",
          "type": "uint256"
        },
        {
          "internalType": "uint256",
          "name": "cancelTime",
          "type": "uint256"
        },
        {
          "internalType": "uint256",
          "name": "completeTime",
          "type": "uint256"
        },
        {
          "internalType": "address payable",
          "name": "buyerAddress",
          "type": "address"
        }
      ],
      "stateMutability": "view",
      "type": "function"
    },
    {
      "inputs": [
        {
          "internalType": "uint256",
          "name": "idPurchase",
          "type": "uint256"
        },
        {
          "internalType": "uint256",
          "name": "refundAmount",
          "type": "uint256"
        }
      ],
      "name": "refund",
      "outputs": [],
      "stateMutability": "nonpayable",
      "type": "function"
    },
    {
      "inputs": [
        {
          "internalType": "address payable",
          "name": "newAddress",
          "type": "address"
        }
      ],
      "name": "setAddress",
      "outputs": [],
      "stateMutability": "nonpayable",
      "type": "function"
    },
    {
      "inputs": [],
      "name": "status",
      "outputs": [
        {
          "internalType": "uint256",
          "name": "",
          "type": "uint256"
        }
      ],
      "stateMutability": "view",
      "type": "function"
    },
    {
      "inputs": [],
      "name": "unpauseMerchant",
      "outputs": [],
      "stateMutability": "nonpayable",
      "type": "function"
    },
    {
      "inputs": [],
      "name": "withdrawRest",
      "outputs": [
        {
          "internalType": "uint256",
          "name": "",
          "type": "uint256"
        }
      ],
      "stateMutability": "nonpayable",
      "type": "function"
    },
    {
      "inputs": [],
      "name": "withdrawal",
      "outputs": [],
      "stateMutability": "nonpayable",
      "type": "function"
    }
  ],
  "bytecode": "0x60806040523480156200001157600080fd5b5060405162002dee38038062002dee8339818101604052810190620000379190620003a2565b81600260006101000a81548173ffffffffffffffffffffffffffffffffffffffff021916908373ffffffffffffffffffffffffffffffffffffffff160217905550806003908051906020019062000090929190620000f0565b50336000806101000a81548173ffffffffffffffffffffffffffffffffffffffff021916908373ffffffffffffffffffffffffffffffffffffffff160217905550600060048190555060006005819055506001808190555050506200046d565b828054620000fe9062000437565b90600052602060002090601f0160209004810192826200012257600085556200016e565b82601f106200013d57805160ff19168380011785556200016e565b828001600101855582156200016e579182015b828111156200016d57825182559160200191906001019062000150565b5b5090506200017d919062000181565b5090565b5b808211156200019c57600081600090555060010162000182565b5090565b6000604051905090565b600080fd5b600080fd5b600073ffffffffffffffffffffffffffffffffffffffff82169050919050565b6000620001e182620001b4565b9050919050565b620001f381620001d4565b8114620001ff57600080fd5b50565b6000815190506200021381620001e8565b92915050565b600080fd5b600080fd5b6000601f19601f8301169050919050565b7f4e487b7100000000000000000000000000000000000000000000000000000000600052604160045260246000fd5b6200026e8262000223565b810181811067ffffffffffffffff8211171562000290576200028f62000234565b5b80604052505050565b6000620002a5620001a0565b9050620002b3828262000263565b919050565b600067ffffffffffffffff821115620002d657620002d562000234565b5b620002e18262000223565b9050602081019050919050565b60005b838110156200030e578082015181840152602081019050620002f1565b838111156200031e576000848401525b50505050565b60006200033b6200033584620002b8565b62000299565b9050828152602081018484840111156200035a57620003596200021e565b5b62000367848285620002ee565b509392505050565b600082601f83011262000387576200038662000219565b5b81516200039984826020860162000324565b91505092915050565b60008060408385031215620003bc57620003bb620001aa565b5b6000620003cc8582860162000202565b925050602083015167ffffffffffffffff811115620003f057620003ef620001af565b5b620003fe858286016200036f565b9150509250929050565b7f4e487b7100000000000000000000000000000000000000000000000000000000600052602260045260246000fd5b600060028204905060018216806200045057607f821691505b6020821081141562000467576200046662000408565b5b50919050565b612971806200047d6000396000f3fe60806040526004361061011f5760003560e01c80639df8ed43116100a0578063e30081a011610064578063e30081a014610394578063e32bf8e4146103bd578063ef660169146103e6578063fbfd61ef14610411578063fd815966146104285761011f565b80639df8ed43146102e0578063b5b17c671461030b578063d270e7ab14610336578063d4e9329214610361578063d96a094a146103785761011f565b806340e58ee5116100e757806340e58ee5146101e7578063538146f2146102105780635af36e3e1461024d5780638392fe3114610276578063971d852f146102b75761011f565b806306fdde031461012457806312065fe01461014f578063143e61991461017a57806317d7de7c14610191578063200d2ed2146101bc575b600080fd5b34801561013057600080fd5b5061013961043f565b6040516101469190611bdc565b60405180910390f35b34801561015b57600080fd5b506101646104cd565b6040516101719190611c17565b60405180910390f35b34801561018657600080fd5b5061018f610567565b005b34801561019d57600080fd5b506101a66105ff565b6040516101b39190611bdc565b60405180910390f35b3480156101c857600080fd5b506101d1610691565b6040516101de9190611c17565b60405180910390f35b3480156101f357600080fd5b5061020e60048036038101906102099190611c63565b610697565b005b34801561021c57600080fd5b5061023760048036038101906102329190611c63565b61095d565b6040516102449190611c17565b60405180910390f35b34801561025957600080fd5b50610274600480360381019061026f9190611c90565b61097d565b005b34801561028257600080fd5b5061029d60048036038101906102989190611c63565b610d46565b6040516102ae959493929190611d11565b60405180910390f35b3480156102c357600080fd5b506102de60048036038101906102d99190611c63565b610d9c565b005b3480156102ec57600080fd5b506102f5610fe8565b6040516103029190611d64565b60405180910390f35b34801561031757600080fd5b5061032061100e565b60405161032d9190611c17565b60405180910390f35b34801561034257600080fd5b5061034b6110a8565b6040516103589190611dde565b60405180910390f35b34801561036d57600080fd5b506103766110cc565b005b610392600480360381019061038d9190611c63565b6112e8565b005b3480156103a057600080fd5b506103bb60048036038101906103b69190611e25565b61154f565b005b3480156103c957600080fd5b506103e460048036038101906103df9190611e52565b611623565b005b3480156103f257600080fd5b506103fb6118b2565b6040516104089190611c17565b60405180910390f35b34801561041d57600080fd5b50610426611a13565b005b34801561043457600080fd5b5061043d611aab565b005b6003805461044c90611ee8565b80601f016020809104026020016040519081016040528092919081815260200182805461047890611ee8565b80156104c55780601f1061049a576101008083540402835291602001916104c5565b820191906000526020600020905b8154815290600101906020018083116104a857829003601f168201915b505050505081565b6000600260009054906101000a900473ffffffffffffffffffffffffffffffffffffffff1673ffffffffffffffffffffffffffffffffffffffff163373ffffffffffffffffffffffffffffffffffffffff161461055f576040517f08c379a000000000000000000000000000000000000000000000000000000000815260040161055690611f8c565b60405180910390fd5b600554905090565b60008054906101000a900473ffffffffffffffffffffffffffffffffffffffff1673ffffffffffffffffffffffffffffffffffffffff163373ffffffffffffffffffffffffffffffffffffffff16146105f5576040517f08c379a00000000000000000000000000000000000000000000000000000000081526004016105ec9061201e565b60405180910390fd5b6002600181905550565b60606003805461060e90611ee8565b80601f016020809104026020016040519081016040528092919081815260200182805461063a90611ee8565b80156106875780601f1061065c57610100808354040283529160200191610687565b820191906000526020600020905b81548152906001019060200180831161066a57829003601f168201915b5050505050905090565b60015481565b6002600154146106dc576040517f08c379a00000000000000000000000000000000000000000000000000000000081526004016106d3906120b0565b60405180910390fd5b6000600660008381526020019081526020016000209050600281600101541461073a576040517f08c379a00000000000000000000000000000000000000000000000000000000081526004016107319061211c565b60405180910390fd5b3373ffffffffffffffffffffffffffffffffffffffff168160040160009054906101000a900473ffffffffffffffffffffffffffffffffffffffff1673ffffffffffffffffffffffffffffffffffffffff16146107cc576040517f08c379a00000000000000000000000000000000000000000000000000000000081526004016107c3906121ae565b60405180910390fd5b42816002015411610812576040517f08c379a000000000000000000000000000000000000000000000000000000000815260040161080990612240565b60405180910390fd5b8060040160009054906101000a900473ffffffffffffffffffffffffffffffffffffffff1673ffffffffffffffffffffffffffffffffffffffff166108fc82600001549081150290604051600060405180830381858888f19350505050158015610880573d6000803e3d6000fd5b50806000015460046000828254610897919061228f565b925050819055506005816001018190555060008054906101000a900473ffffffffffffffffffffffffffffffffffffffff1673ffffffffffffffffffffffffffffffffffffffff166398590ef98260040160009054906101000a900473ffffffffffffffffffffffffffffffffffffffff16846040518363ffffffff1660e01b81526004016109279291906122f6565b600060405180830381600087803b15801561094157600080fd5b505af1158015610955573d6000803e3d6000fd5b505050505050565b600060066000838152602001908152602001600020600101549050919050565b600260009054906101000a900473ffffffffffffffffffffffffffffffffffffffff1673ffffffffffffffffffffffffffffffffffffffff163373ffffffffffffffffffffffffffffffffffffffff1614610a0d576040517f08c379a0000000000000000000000000000000000000000000000000000000008152600401610a0490611f8c565b60405180910390fd5b600260015414610a52576040517f08c379a0000000000000000000000000000000000000000000000000000000008152600401610a49906120b0565b60405180910390fd5b60006006600084815260200190815260200160002090506002816001015414610ab0576040517f08c379a0000000000000000000000000000000000000000000000000000000008152600401610aa79061211c565b60405180910390fd5b60008211610af3576040517f08c379a0000000000000000000000000000000000000000000000000000000008152600401610aea90612391565b60405180910390fd5b8060000154821115610b3a576040517f08c379a0000000000000000000000000000000000000000000000000000000008152600401610b3190612423565b60405180910390fd5b8060000154821415610bd3578060040160009054906101000a900473ffffffffffffffffffffffffffffffffffffffff1673ffffffffffffffffffffffffffffffffffffffff166108fc839081150290604051600060405180830381858888f19350505050158015610bb0573d6000803e3d6000fd5b50806000015460046000828254610bc7919061228f565b92505081905550610c84565b8060040160009054906101000a900473ffffffffffffffffffffffffffffffffffffffff1673ffffffffffffffffffffffffffffffffffffffff166108fc839081150290604051600060405180830381858888f19350505050158015610c3d573d6000803e3d6000fd5b50818160000154610c4e919061228f565b60056000828254610c5f9190612443565b92505081905550806000015460046000828254610c7c919061228f565b925050819055505b6004816001018190555060008054906101000a900473ffffffffffffffffffffffffffffffffffffffff1673ffffffffffffffffffffffffffffffffffffffff1663e796a6eb848360040160009054906101000a900473ffffffffffffffffffffffffffffffffffffffff16856040518463ffffffff1660e01b8152600401610d0f93929190612499565b600060405180830381600087803b158015610d2957600080fd5b505af1158015610d3d573d6000803e3d6000fd5b50505050505050565b60066020528060005260406000206000915090508060000154908060010154908060020154908060030154908060040160009054906101000a900473ffffffffffffffffffffffffffffffffffffffff16905085565b600260009054906101000a900473ffffffffffffffffffffffffffffffffffffffff1673ffffffffffffffffffffffffffffffffffffffff163373ffffffffffffffffffffffffffffffffffffffff1614610e2c576040517f08c379a0000000000000000000000000000000000000000000000000000000008152600401610e2390611f8c565b60405180910390fd5b600260015414610e71576040517f08c379a0000000000000000000000000000000000000000000000000000000008152600401610e68906120b0565b60405180910390fd5b60006006600083815260200190815260200160002090506002816001015414610ecf576040517f08c379a0000000000000000000000000000000000000000000000000000000008152600401610ec69061211c565b60405180910390fd5b42816003015410610f15576040517f08c379a0000000000000000000000000000000000000000000000000000000008152600401610f0c90612542565b60405180910390fd5b806000015460046000828254610f2b919061228f565b92505081905550806000015460056000828254610f489190612443565b925050819055506003816001018190555060008054906101000a900473ffffffffffffffffffffffffffffffffffffffff1673ffffffffffffffffffffffffffffffffffffffff1663971d852f836040518263ffffffff1660e01b8152600401610fb29190611c17565b600060405180830381600087803b158015610fcc57600080fd5b505af1158015610fe0573d6000803e3d6000fd5b505050505050565b600260009054906101000a900473ffffffffffffffffffffffffffffffffffffffff1681565b6000600260009054906101000a900473ffffffffffffffffffffffffffffffffffffffff1673ffffffffffffffffffffffffffffffffffffffff163373ffffffffffffffffffffffffffffffffffffffff16146110a0576040517f08c379a000000000000000000000000000000000000000000000000000000000815260040161109790611f8c565b60405180910390fd5b600454905090565b60008054906101000a900473ffffffffffffffffffffffffffffffffffffffff1681565b600260009054906101000a900473ffffffffffffffffffffffffffffffffffffffff1673ffffffffffffffffffffffffffffffffffffffff163373ffffffffffffffffffffffffffffffffffffffff161461115c576040517f08c379a000000000000000000000000000000000000000000000000000000000815260040161115390611f8c565b60405180910390fd5b6002600154146111a1576040517f08c379a0000000000000000000000000000000000000000000000000000000008152600401611198906120b0565b60405180910390fd5b6000600554116111e6576040517f08c379a00000000000000000000000000000000000000000000000000000000081526004016111dd906125d4565b60405180910390fd5b600260009054906101000a900473ffffffffffffffffffffffffffffffffffffffff1673ffffffffffffffffffffffffffffffffffffffff166108fc6005549081150290604051600060405180830381858888f19350505050158015611250573d6000803e3d6000fd5b5060008054906101000a900473ffffffffffffffffffffffffffffffffffffffff1673ffffffffffffffffffffffffffffffffffffffff1663835fc6ca6005546040518263ffffffff1660e01b81526004016112ac9190611c17565b600060405180830381600087803b1580156112c657600080fd5b505af11580156112da573d6000803e3d6000fd5b505050506000600581905550565b60026001541461132d576040517f08c379a0000000000000000000000000000000000000000000000000000000008152600401611324906120b0565b60405180910390fd5b6000600660008381526020019081526020016000209050600181600101541461138b576040517f08c379a000000000000000000000000000000000000000000000000000000000815260040161138290612666565b60405180910390fd5b600034116113ce576040517f08c379a00000000000000000000000000000000000000000000000000000000081526004016113c5906126d2565b60405180910390fd5b80600001543414611414576040517f08c379a000000000000000000000000000000000000000000000000000000000815260040161140b9061273e565b60405180910390fd5b34600460008282546114269190612443565b92505081905550600281600101819055504281600201600082825461144b9190612443565b92505081905550428160030160008282546114669190612443565b92505081905550338160040160006101000a81548173ffffffffffffffffffffffffffffffffffffffff021916908373ffffffffffffffffffffffffffffffffffffffff16021790555060008054906101000a900473ffffffffffffffffffffffffffffffffffffffff1673ffffffffffffffffffffffffffffffffffffffff1663102d8c79838360020154846003015433346040518663ffffffff1660e01b815260040161151995949392919061277f565b600060405180830381600087803b15801561153357600080fd5b505af1158015611547573d6000803e3d6000fd5b505050505050565b600260009054906101000a900473ffffffffffffffffffffffffffffffffffffffff1673ffffffffffffffffffffffffffffffffffffffff163373ffffffffffffffffffffffffffffffffffffffff16146115df576040517f08c379a00000000000000000000000000000000000000000000000000000000081526004016115d690611f8c565b60405180910390fd5b80600260006101000a81548173ffffffffffffffffffffffffffffffffffffffff021916908373ffffffffffffffffffffffffffffffffffffffff16021790555050565b600260009054906101000a900473ffffffffffffffffffffffffffffffffffffffff1673ffffffffffffffffffffffffffffffffffffffff163373ffffffffffffffffffffffffffffffffffffffff16146116b3576040517f08c379a00000000000000000000000000000000000000000000000000000000081526004016116aa90611f8c565b60405180910390fd5b6002600154146116f8576040517f08c379a00000000000000000000000000000000000000000000000000000000081526004016116ef906120b0565b60405180910390fd5b60006006600086815260200190815260200160002090506000816001015414611756576040517f08c379a000000000000000000000000000000000000000000000000000000000815260040161174d90612844565b60405180910390fd5b6040518060a0016040528085815260200160018152602001848152602001838152602001600073ffffffffffffffffffffffffffffffffffffffff16815250600660008781526020019081526020016000206000820151816000015560208201518160010155604082015181600201556060820151816003015560808201518160040160006101000a81548173ffffffffffffffffffffffffffffffffffffffff021916908373ffffffffffffffffffffffffffffffffffffffff16021790555090505060008054906101000a900473ffffffffffffffffffffffffffffffffffffffff1673ffffffffffffffffffffffffffffffffffffffff1663e32bf8e4868686866040518563ffffffff1660e01b81526004016118799493929190612864565b600060405180830381600087803b15801561189357600080fd5b505af11580156118a7573d6000803e3d6000fd5b505050505050505050565b60008060009054906101000a900473ffffffffffffffffffffffffffffffffffffffff1673ffffffffffffffffffffffffffffffffffffffff163373ffffffffffffffffffffffffffffffffffffffff1614611943576040517f08c379a000000000000000000000000000000000000000000000000000000000815260040161193a9061201e565b60405180910390fd5b60006004546005546119559190612443565b47611960919061228f565b9050600081116119a5576040517f08c379a000000000000000000000000000000000000000000000000000000000815260040161199c9061291b565b60405180910390fd5b60008054906101000a900473ffffffffffffffffffffffffffffffffffffffff1673ffffffffffffffffffffffffffffffffffffffff166108fc829081150290604051600060405180830381858888f19350505050158015611a0b573d6000803e3d6000fd5b508091505090565b60008054906101000a900473ffffffffffffffffffffffffffffffffffffffff1673ffffffffffffffffffffffffffffffffffffffff163373ffffffffffffffffffffffffffffffffffffffff1614611aa1576040517f08c379a0000000000000000000000000000000000000000000000000000000008152600401611a989061201e565b60405180910390fd5b6003600181905550565b60008054906101000a900473ffffffffffffffffffffffffffffffffffffffff1673ffffffffffffffffffffffffffffffffffffffff163373ffffffffffffffffffffffffffffffffffffffff1614611b39576040517f08c379a0000000000000000000000000000000000000000000000000000000008152600401611b309061201e565b60405180910390fd5b6002600181905550565b600081519050919050565b600082825260208201905092915050565b60005b83811015611b7d578082015181840152602081019050611b62565b83811115611b8c576000848401525b50505050565b6000601f19601f8301169050919050565b6000611bae82611b43565b611bb88185611b4e565b9350611bc8818560208601611b5f565b611bd181611b92565b840191505092915050565b60006020820190508181036000830152611bf68184611ba3565b905092915050565b6000819050919050565b611c1181611bfe565b82525050565b6000602082019050611c2c6000830184611c08565b92915050565b600080fd5b611c4081611bfe565b8114611c4b57600080fd5b50565b600081359050611c5d81611c37565b92915050565b600060208284031215611c7957611c78611c32565b5b6000611c8784828501611c4e565b91505092915050565b60008060408385031215611ca757611ca6611c32565b5b6000611cb585828601611c4e565b9250506020611cc685828601611c4e565b9150509250929050565b600073ffffffffffffffffffffffffffffffffffffffff82169050919050565b6000611cfb82611cd0565b9050919050565b611d0b81611cf0565b82525050565b600060a082019050611d266000830188611c08565b611d336020830187611c08565b611d406040830186611c08565b611d4d6060830185611c08565b611d5a6080830184611d02565b9695505050505050565b6000602082019050611d796000830184611d02565b92915050565b6000819050919050565b6000611da4611d9f611d9a84611cd0565b611d7f565b611cd0565b9050919050565b6000611db682611d89565b9050919050565b6000611dc882611dab565b9050919050565b611dd881611dbd565b82525050565b6000602082019050611df36000830184611dcf565b92915050565b611e0281611cf0565b8114611e0d57600080fd5b50565b600081359050611e1f81611df9565b92915050565b600060208284031215611e3b57611e3a611c32565b5b6000611e4984828501611e10565b91505092915050565b60008060008060808587031215611e6c57611e6b611c32565b5b6000611e7a87828801611c4e565b9450506020611e8b87828801611c4e565b9350506040611e9c87828801611c4e565b9250506060611ead87828801611c4e565b91505092959194509250565b7f4e487b7100000000000000000000000000000000000000000000000000000000600052602260045260246000fd5b60006002820490506001821680611f0057607f821691505b60208210811415611f1457611f13611eb9565b5b50919050565b7f4f6e6c79204d65726368616e742063616e2063616c6c20746869732066756e6360008201527f74696f6e21000000000000000000000000000000000000000000000000000000602082015250565b6000611f76602583611b4e565b9150611f8182611f1a565b604082019050919050565b60006020820190508181036000830152611fa581611f69565b9050919050565b7f4f6e6c79204f776e65722063616e2063616c6c20746869732066756e6374696f60008201527f6e21000000000000000000000000000000000000000000000000000000000000602082015250565b6000612008602283611b4e565b915061201382611fac565b604082019050919050565b6000602082019050818103600083015261203781611ffb565b9050919050565b7f4d65726368616e74206973206e6f7420616363657074696e67206f706572617460008201527f696f6e7321000000000000000000000000000000000000000000000000000000602082015250565b600061209a602583611b4e565b91506120a58261203e565b604082019050919050565b600060208201905081810360008301526120c98161208d565b9050919050565b7f5075726368617365206d75737420626520696e20706179656420737461746521600082015250565b6000612106602083611b4e565b9150612111826120d0565b602082019050919050565b60006020820190508181036000830152612135816120f9565b9050919050565b7f5468652062757965722061646472657373206d7573742062652074686520736160008201527f6d65210000000000000000000000000000000000000000000000000000000000602082015250565b6000612198602383611b4e565b91506121a38261213c565b604082019050919050565b600060208201905081810360008301526121c78161218b565b9050919050565b7f5468652063616e63656c2074696d65206f66207468697320707572636861736560008201527f206973206f766572210000000000000000000000000000000000000000000000602082015250565b600061222a602983611b4e565b9150612235826121ce565b604082019050919050565b600060208201905081810360008301526122598161221d565b9050919050565b7f4e487b7100000000000000000000000000000000000000000000000000000000600052601160045260246000fd5b600061229a82611bfe565b91506122a583611bfe565b9250828210156122b8576122b7612260565b5b828203905092915050565b60006122ce82611d89565b9050919050565b60006122e0826122c3565b9050919050565b6122f0816122d5565b82525050565b600060408201905061230b60008301856122e7565b6123186020830184611c08565b9392505050565b7f526566756e6420616d6f756e742073686f756c6420626520677265617465722060008201527f7468616e20302100000000000000000000000000000000000000000000000000602082015250565b600061237b602783611b4e565b91506123868261231f565b604082019050919050565b600060208201905081810360008301526123aa8161236e565b9050919050565b7f526566756e6420616d6f756e742073686f756c64206e6f74206265206772656160008201527f746572207468616e2074686520707572636861736520616d6f756e7421000000602082015250565b600061240d603d83611b4e565b9150612418826123b1565b604082019050919050565b6000602082019050818103600083015261243c81612400565b9050919050565b600061244e82611bfe565b915061245983611bfe565b9250827fffffffffffffffffffffffffffffffffffffffffffffffffffffffffffffffff0382111561248e5761248d612260565b5b828201905092915050565b60006060820190506124ae6000830186611c08565b6124bb60208301856122e7565b6124c86040830184611c08565b949350505050565b7f54686520657363726f772074696d65206f66207468697320707572636861736560008201527f206973206e6f74206f7665722079657421000000000000000000000000000000602082015250565b600061252c603183611b4e565b9150612537826124d0565b604082019050919050565b6000602082019050818103600083015261255b8161251f565b9050919050565b7f42616c616e63652073686f756c642062652067726561746572207468616e203060008201527f2100000000000000000000000000000000000000000000000000000000000000602082015250565b60006125be602183611b4e565b91506125c982612562565b604082019050919050565b600060208201905081810360008301526125ed816125b1565b9050919050565b7f5075726368617365206d75737420657869737420616e6420686173206e6f742060008201527f796574206265656e207061696421000000000000000000000000000000000000602082015250565b6000612650602e83611b4e565b915061265b826125f4565b604082019050919050565b6000602082019050818103600083015261267f81612643565b9050919050565b7f416d6f756e742073686f756c642062652067726561746572207468616e203021600082015250565b60006126bc602083611b4e565b91506126c782612686565b602082019050919050565b600060208201905081810360008301526126eb816126af565b9050919050565b7f57726f6e6720616d6f756e742100000000000000000000000000000000000000600082015250565b6000612728600d83611b4e565b9150612733826126f2565b602082019050919050565b600060208201905081810360008301526127578161271b565b9050919050565b600061276982611cd0565b9050919050565b6127798161275e565b82525050565b600060a0820190506127946000830188611c08565b6127a16020830187611c08565b6127ae6040830186611c08565b6127bb6060830185612770565b6127c86080830184611c08565b9695505050505050565b7f5075726368617365206d75737420626520696e206e6f7420637265617465642060008201527f7374617465210000000000000000000000000000000000000000000000000000602082015250565b600061282e602683611b4e565b9150612839826127d2565b604082019050919050565b6000602082019050818103600083015261285d81612821565b9050919050565b60006080820190506128796000830187611c08565b6128866020830186611c08565b6128936040830185611c08565b6128a06060830184611c08565b95945050505050565b7f4e6f2062616c616e636520617661696c61626c6520746f20776974686472617760008201527f2100000000000000000000000000000000000000000000000000000000000000602082015250565b6000612905602183611b4e565b9150612910826128a9565b604082019050919050565b60006020820190508181036000830152612934816128f8565b905091905056fea2646970667358221220ea94ce1520077147e8df8b8ee16f2b688eddc7677279706068204636089ab93164736f6c63430008090033",
  "linkReferences": {},
  "deployedLinkReferences": {}
}